{
  "transactions": [
    {
      "hash": "0xa9e828fb4a51ebb59b33f2ce960b77345aa9a681e4e979d7c4ae52ed313c5d6f",
      "transactionType": "CALL",
      "contractName": null,
      "contractAddress": "0x0e26ade1f5a99bd6b5d40f870a87bfe143db68b6",
      "function": "UpdateXYZ(address,bool,uint256,uint256)",
      "arguments": [
        "0x25D45a942405834B963c84b66418514c81b2f8c7",
        "false",
        "115792089237316195423570985008687907853269984665640564039457584007913129639935",
        "1000"
      ],
      "transaction": {
        "from": "0xc1612c97537c2cc62a11fc4516367ab6f62d4b23",
        "to": "0x0e26ade1f5a99bd6b5d40f870a87bfe143db68b6",
        "gas": "0x18982",
        "value": "0x0",
        "input": "0xe9aea39600000000000000000000000025d45a942405834b963c84b66418514c81b2f8c70000000000000000000000000000000000000000000000000000000000000000ffffffffffffffffffffffffffffffffffffffffffffffffffffffffffffffff00000000000000000000000000000000000000000000000000000000000003e8",
        "nonce": "0xec",
        "chainId": "0x7e1"
      },
      "additionalContracts": [],
      "isFixedGasLimit": false
    },
    {
      "hash": "0xa206f48d1eadc24d73f8df80cb688152bd6f7bd25b462c618ee23649ac26dff4",
      "transactionType": "CALL",
      "contractName": null,
      "contractAddress": "0x0e26ade1f5a99bd6b5d40f870a87bfe143db68b6",
      "function": "UpdateXYZ(address,bool,uint256,uint256)",
      "arguments": [
        "0x5fe291dD7b6A35502a51814df5E51A461B9c085f",
        "false",
        "115792089237316195423570985008687907853269984665640564039457584007913129639935",
        "1000"
      ],
      "transaction": {
        "from": "0xc1612c97537c2cc62a11fc4516367ab6f62d4b23",
        "to": "0x0e26ade1f5a99bd6b5d40f870a87bfe143db68b6",
        "gas": "0x17c35",
        "value": "0x0",
        "input": "0xe9aea3960000000000000000000000005fe291dd7b6a35502a51814df5e51a461b9c085f0000000000000000000000000000000000000000000000000000000000000000ffffffffffffffffffffffffffffffffffffffffffffffffffffffffffffffff00000000000000000000000000000000000000000000000000000000000003e8",
        "nonce": "0xed",
        "chainId": "0x7e1"
      },
      "additionalContracts": [],
      "isFixedGasLimit": false
    },
    {
      "hash": "0x0d38e7e8fcf6688c2bab36fce03cee5832c54c84e2ad42b4e0da894ca9c123e8",
      "transactionType": "CALL",
      "contractName": null,
      "contractAddress": "0x0e26ade1f5a99bd6b5d40f870a87bfe143db68b6",
      "function": "UpdateXYZ(address,bool,uint256,uint256)",
      "arguments": [
        "0x3A60aCD97fEA737ddD3e8FB2070601c19Ac22699",
        "false",
        "115792089237316195423570985008687907853269984665640564039457584007913129639935",
        "1000"
      ],
      "transaction": {
        "from": "0xc1612c97537c2cc62a11fc4516367ab6f62d4b23",
        "to": "0x0e26ade1f5a99bd6b5d40f870a87bfe143db68b6",
        "gas": "0x16ee8",
        "value": "0x0",
        "input": "0xe9aea3960000000000000000000000003a60acd97fea737ddd3e8fb2070601c19ac226990000000000000000000000000000000000000000000000000000000000000000ffffffffffffffffffffffffffffffffffffffffffffffffffffffffffffffff00000000000000000000000000000000000000000000000000000000000003e8",
        "nonce": "0xee",
        "chainId": "0x7e1"
      },
      "additionalContracts": [],
      "isFixedGasLimit": false
    },
    {
      "hash": "0x116e7587197a4670b2627f4f52e5899261996746a8cb9a2103a54ee4d6976ff0",
      "transactionType": "CALL",
      "contractName": null,
      "contractAddress": "0x0e26ade1f5a99bd6b5d40f870a87bfe143db68b6",
      "function": "UpdateXYZ(address,bool,uint256,uint256)",
      "arguments": [
        "0xF84548d35A90d8B107019478188a3791f3b8f6C1",
        "false",
        "115792089237316195423570985008687907853269984665640564039457584007913129639935",
        "1000"
      ],
      "transaction": {
        "from": "0xc1612c97537c2cc62a11fc4516367ab6f62d4b23",
        "to": "0x0e26ade1f5a99bd6b5d40f870a87bfe143db68b6",
        "gas": "0x1619c",
        "value": "0x0",
        "input": "0xe9aea396000000000000000000000000f84548d35a90d8b107019478188a3791f3b8f6c10000000000000000000000000000000000000000000000000000000000000000ffffffffffffffffffffffffffffffffffffffffffffffffffffffffffffffff00000000000000000000000000000000000000000000000000000000000003e8",
        "nonce": "0xef",
        "chainId": "0x7e1"
      },
      "additionalContracts": [],
      "isFixedGasLimit": false
    },
    {
      "hash": "0x2ce3e2e581f1bb07b29ca11c143512469f2f736d765f19f71de6c420705349b0",
      "transactionType": "CALL",
      "contractName": null,
      "contractAddress": "0x0e26ade1f5a99bd6b5d40f870a87bfe143db68b6",
      "function": "UpdateXYZ(address,bool,uint256,uint256)",
      "arguments": [
        "0x5Cc307482EabA4C03526C00B6D6f5e05949550d9",
        "false",
        "115792089237316195423570985008687907853269984665640564039457584007913129639935",
        "1000"
      ],
      "transaction": {
        "from": "0xc1612c97537c2cc62a11fc4516367ab6f62d4b23",
        "to": "0x0e26ade1f5a99bd6b5d40f870a87bfe143db68b6",
        "gas": "0x1544f",
        "value": "0x0",
        "input": "0xe9aea3960000000000000000000000005cc307482eaba4c03526c00b6d6f5e05949550d90000000000000000000000000000000000000000000000000000000000000000ffffffffffffffffffffffffffffffffffffffffffffffffffffffffffffffff00000000000000000000000000000000000000000000000000000000000003e8",
        "nonce": "0xf0",
        "chainId": "0x7e1"
      },
      "additionalContracts": [],
      "isFixedGasLimit": false
    },
    {
      "hash": "0x6c251e711581b5e23363c399ad94722b24e0551b1057ec543ea0d3e72c9bb12d",
      "transactionType": "CALL",
      "contractName": null,
      "contractAddress": "0x0e26ade1f5a99bd6b5d40f870a87bfe143db68b6",
      "function": "UpdateXYZ(address,bool,uint256,uint256)",
      "arguments": [
        "0x7e27fC84da5e35097982fdA7b2C93E8cE4FB5817",
        "false",
        "115792089237316195423570985008687907853269984665640564039457584007913129639935",
        "1000"
      ],
      "transaction": {
        "from": "0xc1612c97537c2cc62a11fc4516367ab6f62d4b23",
        "to": "0x0e26ade1f5a99bd6b5d40f870a87bfe143db68b6",
        "gas": "0x122ea",
        "value": "0x0",
        "input": "0xe9aea3960000000000000000000000007e27fc84da5e35097982fda7b2c93e8ce4fb58170000000000000000000000000000000000000000000000000000000000000000ffffffffffffffffffffffffffffffffffffffffffffffffffffffffffffffff00000000000000000000000000000000000000000000000000000000000003e8",
        "nonce": "0xf1",
        "chainId": "0x7e1"
      },
      "additionalContracts": [],
      "isFixedGasLimit": false
    },
    {
      "hash": "0x48983db7183b428c7bbb7ad41e8b4a890302666d7d651301ba8ff701172cd3f2",
      "transactionType": "CALL",
      "contractName": null,
      "contractAddress": "0x0e26ade1f5a99bd6b5d40f870a87bfe143db68b6",
      "function": "UpdateXYZ(address,bool,uint256,uint256)",
      "arguments": [
        "0xC8156aF812714b8cedb540AdEc69FC104d99930B",
        "false",
        "115792089237316195423570985008687907853269984665640564039457584007913129639935",
        "1000"
      ],
      "transaction": {
        "from": "0xc1612c97537c2cc62a11fc4516367ab6f62d4b23",
        "to": "0x0e26ade1f5a99bd6b5d40f870a87bfe143db68b6",
        "gas": "0x1165b",
        "value": "0x0",
        "input": "0xe9aea396000000000000000000000000c8156af812714b8cedb540adec69fc104d99930b0000000000000000000000000000000000000000000000000000000000000000ffffffffffffffffffffffffffffffffffffffffffffffffffffffffffffffff00000000000000000000000000000000000000000000000000000000000003e8",
        "nonce": "0xf2",
        "chainId": "0x7e1"
      },
      "additionalContracts": [],
      "isFixedGasLimit": false
    },
    {
      "hash": "0xac876e40f306516e2d42ce0a7f4d6b2524a30f94772bcfc12f2ec4ca3be75d03",
      "transactionType": "CALL",
      "contractName": null,
      "contractAddress": "0x0e26ade1f5a99bd6b5d40f870a87bfe143db68b6",
      "function": "UpdateXYZ(address,bool,uint256,uint256)",
      "arguments": [
        "0x989251Ff79b744736a91c617DDE3D3b5Da2C09Ef",
        "false",
        "115792089237316195423570985008687907853269984665640564039457584007913129639935",
        "1000"
      ],
      "transaction": {
        "from": "0xc1612c97537c2cc62a11fc4516367ab6f62d4b23",
        "to": "0x0e26ade1f5a99bd6b5d40f870a87bfe143db68b6",
        "gas": "0x109cb",
        "value": "0x0",
        "input": "0xe9aea396000000000000000000000000989251ff79b744736a91c617dde3d3b5da2c09ef0000000000000000000000000000000000000000000000000000000000000000ffffffffffffffffffffffffffffffffffffffffffffffffffffffffffffffff00000000000000000000000000000000000000000000000000000000000003e8",
        "nonce": "0xf3",
        "chainId": "0x7e1"
      },
      "additionalContracts": [],
      "isFixedGasLimit": false
    },
    {
      "hash": "0x7fda659988e5928039ebe60bf98a2dae238e6443b9bdb0778cb74eb617ed4d5d",
      "transactionType": "CALL",
      "contractName": null,
      "contractAddress": "0x0e26ade1f5a99bd6b5d40f870a87bfe143db68b6",
      "function": "UpdateXYZ(address,bool,uint256,uint256)",
      "arguments": [
        "0x356Ccc8a7cBE1EADF0282E6C23278B0e67fB3f91",
        "false",
        "115792089237316195423570985008687907853269984665640564039457584007913129639935",
        "1000"
      ],
      "transaction": {
        "from": "0xc1612c97537c2cc62a11fc4516367ab6f62d4b23",
        "to": "0x0e26ade1f5a99bd6b5d40f870a87bfe143db68b6",
        "gas": "0xfd3c",
        "value": "0x0",
        "input": "0xe9aea396000000000000000000000000356ccc8a7cbe1eadf0282e6c23278b0e67fb3f910000000000000000000000000000000000000000000000000000000000000000ffffffffffffffffffffffffffffffffffffffffffffffffffffffffffffffff00000000000000000000000000000000000000000000000000000000000003e8",
        "nonce": "0xf4",
        "chainId": "0x7e1"
      },
      "additionalContracts": [],
      "isFixedGasLimit": false
    },
    {
      "hash": "0xef13e82f745f1e2a9c8c0dff07d101584479ba5d6bd9a36c1a8fc82cc665de2e",
      "transactionType": "CALL",
      "contractName": null,
      "contractAddress": "0x0e26ade1f5a99bd6b5d40f870a87bfe143db68b6",
      "function": "UpdateXYZ(address,bool,uint256,uint256)",
      "arguments": [
        "0x5404F8B4F4625CFf045A3076Bc28c250a71E4507",
        "false",
        "115792089237316195423570985008687907853269984665640564039457584007913129639935",
        "1000"
      ],
      "transaction": {
        "from": "0xc1612c97537c2cc62a11fc4516367ab6f62d4b23",
        "to": "0x0e26ade1f5a99bd6b5d40f870a87bfe143db68b6",
        "gas": "0xe9fd",
        "value": "0x0",
        "input": "0xe9aea3960000000000000000000000005404f8b4f4625cff045a3076bc28c250a71e45070000000000000000000000000000000000000000000000000000000000000000ffffffffffffffffffffffffffffffffffffffffffffffffffffffffffffffff00000000000000000000000000000000000000000000000000000000000003e8",
        "nonce": "0xf5",
        "chainId": "0x7e1"
      },
      "additionalContracts": [],
      "isFixedGasLimit": false
    }
  ],
  "receipts": [
    {
      "status": "0x1",
      "cumulativeGasUsed": "0x10d11",
      "logs": [
        {
          "address": "0x0e26ade1f5a99bd6b5d40f870a87bfe143db68b6",
          "topics": [
            "0x84f12763861d318f97fe38a0e6f70b46f0566462d67561978f0f4dff814031df"
          ],
          "data": "0x00000000000000000000000025d45a942405834b963c84b66418514c81b2f8c70000000000000000000000000000000000000000000000000000000000000000ffffffffffffffffffffffffffffffffffffffffffffffffffffffffffffffff00000000000000000000000000000000000000000000000000000000000003e8",
          "blockHash": "0xec98423e7ba2b94edd7d60f0408c0edf79cac42227f26021af9f1df835edcdd9",
          "blockNumber": "0x4e314",
          "blockTimestamp": "0x66c64489",
          "transactionHash": "0xa9e828fb4a51ebb59b33f2ce960b77345aa9a681e4e979d7c4ae52ed313c5d6f",
          "transactionIndex": "0x0",
          "logIndex": "0x0",
          "removed": false
        },
        {
          "address": "0x0e26ade1f5a99bd6b5d40f870a87bfe143db68b6",
          "topics": [
            "0x29ef6e5e7533f5e04f1729a119b0acf31837e10f8a66e61d22dedd180d0221e9"
          ],
          "data": "0x00000000000000000000000025d45a942405834b963c84b66418514c81b2f8c7",
          "blockHash": "0xec98423e7ba2b94edd7d60f0408c0edf79cac42227f26021af9f1df835edcdd9",
          "blockNumber": "0x4e314",
          "blockTimestamp": "0x66c64489",
          "transactionHash": "0xa9e828fb4a51ebb59b33f2ce960b77345aa9a681e4e979d7c4ae52ed313c5d6f",
          "transactionIndex": "0x0",
          "logIndex": "0x1",
          "removed": false
        }
      ],
      "logsBloom": "0x00000000800000000000000000000000000000000000000000000000000000000000000000000000000000000000000000000000000000000000000000000000000000000000000000000000000000080000000000000000000000000000000000000000000000000000000000000000000000000000000000000000000000000000000000000000000000000000000010000000000000000001000000000000080100000000000000000000000000000000000000000000000000000000000000000000000000000000080000000000000000000000000000000000000000000000000000000000000400000000000010000000000000000000000000000000",
      "type": "0x2",
      "transactionHash": "0xa9e828fb4a51ebb59b33f2ce960b77345aa9a681e4e979d7c4ae52ed313c5d6f",
      "transactionIndex": "0x0",
      "blockHash": "0xec98423e7ba2b94edd7d60f0408c0edf79cac42227f26021af9f1df835edcdd9",
      "blockNumber": "0x4e314",
      "gasUsed": "0x10d11",
      "effectiveGasPrice": "0x8",
      "from": "0xc1612c97537c2cc62a11fc4516367ab6f62d4b23",
      "to": "0x0e26ade1f5a99bd6b5d40f870a87bfe143db68b6",
      "contractAddress": null
    },
    {
      "status": "0x1",
      "cumulativeGasUsed": "0x103f9",
      "logs": [
        {
          "address": "0x0e26ade1f5a99bd6b5d40f870a87bfe143db68b6",
          "topics": [
            "0x84f12763861d318f97fe38a0e6f70b46f0566462d67561978f0f4dff814031df"
          ],
          "data": "0x0000000000000000000000005fe291dd7b6a35502a51814df5e51a461b9c085f0000000000000000000000000000000000000000000000000000000000000000ffffffffffffffffffffffffffffffffffffffffffffffffffffffffffffffff00000000000000000000000000000000000000000000000000000000000003e8",
          "blockHash": "0x4342f357ee43cf772b0a23142f9d6dfe2e5dd710315e420aa579213a50fbf281",
          "blockNumber": "0x4e315",
          "blockTimestamp": "0x66c64493",
          "transactionHash": "0xa206f48d1eadc24d73f8df80cb688152bd6f7bd25b462c618ee23649ac26dff4",
          "transactionIndex": "0x0",
          "logIndex": "0x0",
          "removed": false
        },
        {
          "address": "0x0e26ade1f5a99bd6b5d40f870a87bfe143db68b6",
          "topics": [
            "0x29ef6e5e7533f5e04f1729a119b0acf31837e10f8a66e61d22dedd180d0221e9"
          ],
          "data": "0x0000000000000000000000005fe291dd7b6a35502a51814df5e51a461b9c085f",
          "blockHash": "0x4342f357ee43cf772b0a23142f9d6dfe2e5dd710315e420aa579213a50fbf281",
          "blockNumber": "0x4e315",
          "blockTimestamp": "0x66c64493",
          "transactionHash": "0xa206f48d1eadc24d73f8df80cb688152bd6f7bd25b462c618ee23649ac26dff4",
          "transactionIndex": "0x0",
          "logIndex": "0x1",
          "removed": false
        }
      ],
      "logsBloom": "0x00000000800000000000000000000000000000000000000000000000000000000000000000000000000000000000000000000000000000000000000000000000000000000000000000000000000000080000000000000000000000000000000000000000000000000000000000000000000000000000000000000000000000000000000000000000000000000000000010000000000000000001000000000000080100000000000000000000000000000000000000000000000000000000000000000000000000000000080000000000000000000000000000000000000000000000000000000000000400000000000010000000000000000000000000000000",
      "type": "0x2",
      "transactionHash": "0xa206f48d1eadc24d73f8df80cb688152bd6f7bd25b462c618ee23649ac26dff4",
      "transactionIndex": "0x0",
      "blockHash": "0x4342f357ee43cf772b0a23142f9d6dfe2e5dd710315e420aa579213a50fbf281",
      "blockNumber": "0x4e315",
      "gasUsed": "0x103f9",
      "effectiveGasPrice": "0x8",
      "from": "0xc1612c97537c2cc62a11fc4516367ab6f62d4b23",
      "to": "0x0e26ade1f5a99bd6b5d40f870a87bfe143db68b6",
      "contractAddress": null
    },
    {
      "status": "0x1",
      "cumulativeGasUsed": "0x1feda",
      "logs": [
        {
          "address": "0x0e26ade1f5a99bd6b5d40f870a87bfe143db68b6",
          "topics": [
            "0x84f12763861d318f97fe38a0e6f70b46f0566462d67561978f0f4dff814031df"
          ],
          "data": "0x0000000000000000000000003a60acd97fea737ddd3e8fb2070601c19ac226990000000000000000000000000000000000000000000000000000000000000000ffffffffffffffffffffffffffffffffffffffffffffffffffffffffffffffff00000000000000000000000000000000000000000000000000000000000003e8",
          "blockHash": "0x4342f357ee43cf772b0a23142f9d6dfe2e5dd710315e420aa579213a50fbf281",
          "blockNumber": "0x4e315",
          "blockTimestamp": "0x66c64493",
          "transactionHash": "0x0d38e7e8fcf6688c2bab36fce03cee5832c54c84e2ad42b4e0da894ca9c123e8",
          "transactionIndex": "0x1",
          "logIndex": "0x2",
          "removed": false
        },
        {
          "address": "0x0e26ade1f5a99bd6b5d40f870a87bfe143db68b6",
          "topics": [
            "0x29ef6e5e7533f5e04f1729a119b0acf31837e10f8a66e61d22dedd180d0221e9"
          ],
          "data": "0x0000000000000000000000003a60acd97fea737ddd3e8fb2070601c19ac22699",
          "blockHash": "0x4342f357ee43cf772b0a23142f9d6dfe2e5dd710315e420aa579213a50fbf281",
          "blockNumber": "0x4e315",
          "blockTimestamp": "0x66c64493",
          "transactionHash": "0x0d38e7e8fcf6688c2bab36fce03cee5832c54c84e2ad42b4e0da894ca9c123e8",
          "transactionIndex": "0x1",
          "logIndex": "0x3",
          "removed": false
        }
      ],
      "logsBloom": "0x00000000800000000000000000000000000000000000000000000000000000000000000000000000000000000000000000000000000000000000000000000000000000000000000000000000000000080000000000000000000000000000000000000000000000000000000000000000000000000000000000000000000000000000000000000000000000000000000010000000000000000001000000000000080100000000000000000000000000000000000000000000000000000000000000000000000000000000080000000000000000000000000000000000000000000000000000000000000400000000000010000000000000000000000000000000",
      "type": "0x2",
      "transactionHash": "0x0d38e7e8fcf6688c2bab36fce03cee5832c54c84e2ad42b4e0da894ca9c123e8",
      "transactionIndex": "0x1",
      "blockHash": "0x4342f357ee43cf772b0a23142f9d6dfe2e5dd710315e420aa579213a50fbf281",
      "blockNumber": "0x4e315",
      "gasUsed": "0xfae1",
      "effectiveGasPrice": "0x8",
      "from": "0xc1612c97537c2cc62a11fc4516367ab6f62d4b23",
      "to": "0x0e26ade1f5a99bd6b5d40f870a87bfe143db68b6",
      "contractAddress": null
    },
    {
      "status": "0x1",
      "cumulativeGasUsed": "0xf1c9",
      "logs": [
        {
          "address": "0x0e26ade1f5a99bd6b5d40f870a87bfe143db68b6",
          "topics": [
            "0x84f12763861d318f97fe38a0e6f70b46f0566462d67561978f0f4dff814031df"
          ],
          "data": "0x000000000000000000000000f84548d35a90d8b107019478188a3791f3b8f6c10000000000000000000000000000000000000000000000000000000000000000ffffffffffffffffffffffffffffffffffffffffffffffffffffffffffffffff00000000000000000000000000000000000000000000000000000000000003e8",
          "blockHash": "0x1128145bd045a36a6cef793747ca7cbb696396524f93822bbc7a4f6a1b2b4656",
          "blockNumber": "0x4e316",
          "blockTimestamp": "0x66c6449d",
          "transactionHash": "0x116e7587197a4670b2627f4f52e5899261996746a8cb9a2103a54ee4d6976ff0",
          "transactionIndex": "0x0",
          "logIndex": "0x0",
          "removed": false
        },
        {
          "address": "0x0e26ade1f5a99bd6b5d40f870a87bfe143db68b6",
          "topics": [
            "0x29ef6e5e7533f5e04f1729a119b0acf31837e10f8a66e61d22dedd180d0221e9"
          ],
          "data": "0x000000000000000000000000f84548d35a90d8b107019478188a3791f3b8f6c1",
          "blockHash": "0x1128145bd045a36a6cef793747ca7cbb696396524f93822bbc7a4f6a1b2b4656",
          "blockNumber": "0x4e316",
          "blockTimestamp": "0x66c6449d",
          "transactionHash": "0x116e7587197a4670b2627f4f52e5899261996746a8cb9a2103a54ee4d6976ff0",
          "transactionIndex": "0x0",
          "logIndex": "0x1",
          "removed": false
        }
      ],
      "logsBloom": "0x00000000800000000000000000000000000000000000000000000000000000000000000000000000000000000000000000000000000000000000000000000000000000000000000000000000000000080000000000000000000000000000000000000000000000000000000000000000000000000000000000000000000000000000000000000000000000000000000010000000000000000001000000000000080100000000000000000000000000000000000000000000000000000000000000000000000000000000080000000000000000000000000000000000000000000000000000000000000400000000000010000000000000000000000000000000",
      "type": "0x2",
      "transactionHash": "0x116e7587197a4670b2627f4f52e5899261996746a8cb9a2103a54ee4d6976ff0",
      "transactionIndex": "0x0",
      "blockHash": "0x1128145bd045a36a6cef793747ca7cbb696396524f93822bbc7a4f6a1b2b4656",
      "blockNumber": "0x4e316",
      "gasUsed": "0xf1c9",
      "effectiveGasPrice": "0x8",
      "from": "0xc1612c97537c2cc62a11fc4516367ab6f62d4b23",
      "to": "0x0e26ade1f5a99bd6b5d40f870a87bfe143db68b6",
      "contractAddress": null
    },
    {
      "status": "0x1",
      "cumulativeGasUsed": "0xe8b1",
      "logs": [
        {
          "address": "0x0e26ade1f5a99bd6b5d40f870a87bfe143db68b6",
          "topics": [
            "0x84f12763861d318f97fe38a0e6f70b46f0566462d67561978f0f4dff814031df"
          ],
          "data": "0x0000000000000000000000005cc307482eaba4c03526c00b6d6f5e05949550d90000000000000000000000000000000000000000000000000000000000000000ffffffffffffffffffffffffffffffffffffffffffffffffffffffffffffffff00000000000000000000000000000000000000000000000000000000000003e8",
          "blockHash": "0x12b68a4a4873e8ba28a3a004f5e08a0332ed406a10c203191b23f8d8bb449096",
          "blockNumber": "0x4e317",
          "blockTimestamp": "0x66c644a7",
          "transactionHash": "0x2ce3e2e581f1bb07b29ca11c143512469f2f736d765f19f71de6c420705349b0",
          "transactionIndex": "0x0",
          "logIndex": "0x0",
          "removed": false
        },
        {
          "address": "0x0e26ade1f5a99bd6b5d40f870a87bfe143db68b6",
          "topics": [
            "0x29ef6e5e7533f5e04f1729a119b0acf31837e10f8a66e61d22dedd180d0221e9"
          ],
          "data": "0x0000000000000000000000005cc307482eaba4c03526c00b6d6f5e05949550d9",
          "blockHash": "0x12b68a4a4873e8ba28a3a004f5e08a0332ed406a10c203191b23f8d8bb449096",
          "blockNumber": "0x4e317",
          "blockTimestamp": "0x66c644a7",
          "transactionHash": "0x2ce3e2e581f1bb07b29ca11c143512469f2f736d765f19f71de6c420705349b0",
          "transactionIndex": "0x0",
          "logIndex": "0x1",
          "removed": false
        }
      ],
      "logsBloom": "0x00000000800000000000000000000000000000000000000000000000000000000000000000000000000000000000000000000000000000000000000000000000000000000000000000000000000000080000000000000000000000000000000000000000000000000000000000000000000000000000000000000000000000000000000000000000000000000000000010000000000000000001000000000000080100000000000000000000000000000000000000000000000000000000000000000000000000000000080000000000000000000000000000000000000000000000000000000000000400000000000010000000000000000000000000000000",
      "type": "0x2",
      "transactionHash": "0x2ce3e2e581f1bb07b29ca11c143512469f2f736d765f19f71de6c420705349b0",
      "transactionIndex": "0x0",
      "blockHash": "0x12b68a4a4873e8ba28a3a004f5e08a0332ed406a10c203191b23f8d8bb449096",
      "blockNumber": "0x4e317",
      "gasUsed": "0xe8b1",
      "effectiveGasPrice": "0x8",
      "from": "0xc1612c97537c2cc62a11fc4516367ab6f62d4b23",
      "to": "0x0e26ade1f5a99bd6b5d40f870a87bfe143db68b6",
      "contractAddress": null
    },
    {
      "status": "0x1",
      "cumulativeGasUsed": "0xd29f",
      "logs": [
        {
          "address": "0x0e26ade1f5a99bd6b5d40f870a87bfe143db68b6",
          "topics": [
            "0x84f12763861d318f97fe38a0e6f70b46f0566462d67561978f0f4dff814031df"
          ],
          "data": "0x0000000000000000000000007e27fc84da5e35097982fda7b2c93e8ce4fb58170000000000000000000000000000000000000000000000000000000000000000ffffffffffffffffffffffffffffffffffffffffffffffffffffffffffffffff00000000000000000000000000000000000000000000000000000000000003e8",
          "blockHash": "0xebedd4d8a3bb1839e20ba7c915e490fb77446b6716f63217149e71f79a7a0886",
          "blockNumber": "0x4e319",
          "blockTimestamp": "0x66c644b6",
          "transactionHash": "0x6c251e711581b5e23363c399ad94722b24e0551b1057ec543ea0d3e72c9bb12d",
          "transactionIndex": "0x0",
          "logIndex": "0x0",
          "removed": false
        },
        {
          "address": "0x0e26ade1f5a99bd6b5d40f870a87bfe143db68b6",
          "topics": [
            "0x29ef6e5e7533f5e04f1729a119b0acf31837e10f8a66e61d22dedd180d0221e9"
          ],
          "data": "0x0000000000000000000000007e27fc84da5e35097982fda7b2c93e8ce4fb5817",
          "blockHash": "0xebedd4d8a3bb1839e20ba7c915e490fb77446b6716f63217149e71f79a7a0886",
          "blockNumber": "0x4e319",
          "blockTimestamp": "0x66c644b6",
          "transactionHash": "0x6c251e711581b5e23363c399ad94722b24e0551b1057ec543ea0d3e72c9bb12d",
          "transactionIndex": "0x0",
          "logIndex": "0x1",
          "removed": false
        }
      ],
      "logsBloom": "0x00000000800000000000000000000000000000000000000000000000000000000000000000000000000000000000000000000000000000000000000000000000000000000000000000000000000000080000000000000000000000000000000000000000000000000000000000000000000000000000000000000000000000000000000000000000000000000000000010000000000000000001000000000000080100000000000000000000000000000000000000000000000000000000000000000000000000000000080000000000000000000000000000000000000000000000000000000000000400000000000010000000000000000000000000000000",
      "type": "0x2",
      "transactionHash": "0x6c251e711581b5e23363c399ad94722b24e0551b1057ec543ea0d3e72c9bb12d",
      "transactionIndex": "0x0",
      "blockHash": "0xebedd4d8a3bb1839e20ba7c915e490fb77446b6716f63217149e71f79a7a0886",
      "blockNumber": "0x4e319",
      "gasUsed": "0xd29f",
      "effectiveGasPrice": "0x8",
      "from": "0xc1612c97537c2cc62a11fc4516367ab6f62d4b23",
      "to": "0x0e26ade1f5a99bd6b5d40f870a87bfe143db68b6",
      "contractAddress": null
    },
    {
      "status": "0x1",
      "cumulativeGasUsed": "0x19c26",
      "logs": [
        {
          "address": "0x0e26ade1f5a99bd6b5d40f870a87bfe143db68b6",
          "topics": [
            "0x84f12763861d318f97fe38a0e6f70b46f0566462d67561978f0f4dff814031df"
          ],
          "data": "0x000000000000000000000000c8156af812714b8cedb540adec69fc104d99930b0000000000000000000000000000000000000000000000000000000000000000ffffffffffffffffffffffffffffffffffffffffffffffffffffffffffffffff00000000000000000000000000000000000000000000000000000000000003e8",
          "blockHash": "0xebedd4d8a3bb1839e20ba7c915e490fb77446b6716f63217149e71f79a7a0886",
          "blockNumber": "0x4e319",
          "blockTimestamp": "0x66c644b6",
          "transactionHash": "0x48983db7183b428c7bbb7ad41e8b4a890302666d7d651301ba8ff701172cd3f2",
          "transactionIndex": "0x1",
          "logIndex": "0x2",
          "removed": false
        },
        {
          "address": "0x0e26ade1f5a99bd6b5d40f870a87bfe143db68b6",
          "topics": [
            "0x29ef6e5e7533f5e04f1729a119b0acf31837e10f8a66e61d22dedd180d0221e9"
          ],
          "data": "0x000000000000000000000000c8156af812714b8cedb540adec69fc104d99930b",
          "blockHash": "0xebedd4d8a3bb1839e20ba7c915e490fb77446b6716f63217149e71f79a7a0886",
          "blockNumber": "0x4e319",
          "blockTimestamp": "0x66c644b6",
          "transactionHash": "0x48983db7183b428c7bbb7ad41e8b4a890302666d7d651301ba8ff701172cd3f2",
          "transactionIndex": "0x1",
          "logIndex": "0x3",
          "removed": false
        }
      ],
      "logsBloom": "0x00000000800000000000000000000000000000000000000000000000000000000000000000000000000000000000000000000000000000000000000000000000000000000000000000000000000000080000000000000000000000000000000000000000000000000000000000000000000000000000000000000000000000000000000000000000000000000000000010000000000000000001000000000000080100000000000000000000000000000000000000000000000000000000000000000000000000000000080000000000000000000000000000000000000000000000000000000000000400000000000010000000000000000000000000000000",
      "type": "0x2",
      "transactionHash": "0x48983db7183b428c7bbb7ad41e8b4a890302666d7d651301ba8ff701172cd3f2",
      "transactionIndex": "0x1",
      "blockHash": "0xebedd4d8a3bb1839e20ba7c915e490fb77446b6716f63217149e71f79a7a0886",
      "blockNumber": "0x4e319",
      "gasUsed": "0xc987",
      "effectiveGasPrice": "0x8",
      "from": "0xc1612c97537c2cc62a11fc4516367ab6f62d4b23",
      "to": "0x0e26ade1f5a99bd6b5d40f870a87bfe143db68b6",
      "contractAddress": null
    },
    {
      "status": "0x1",
      "cumulativeGasUsed": "0xc06f",
      "logs": [
        {
          "address": "0x0e26ade1f5a99bd6b5d40f870a87bfe143db68b6",
          "topics": [
            "0x84f12763861d318f97fe38a0e6f70b46f0566462d67561978f0f4dff814031df"
          ],
          "data": "0x000000000000000000000000989251ff79b744736a91c617dde3d3b5da2c09ef0000000000000000000000000000000000000000000000000000000000000000ffffffffffffffffffffffffffffffffffffffffffffffffffffffffffffffff00000000000000000000000000000000000000000000000000000000000003e8",
          "blockHash": "0xd28911b76a47641322c15f07e2d86f23dbc2d8a77cab6758119fcfca9a0273e1",
          "blockNumber": "0x4e31b",
          "blockTimestamp": "0x66c644c5",
          "transactionHash": "0xac876e40f306516e2d42ce0a7f4d6b2524a30f94772bcfc12f2ec4ca3be75d03",
          "transactionIndex": "0x0",
          "logIndex": "0x0",
          "removed": false
        },
        {
          "address": "0x0e26ade1f5a99bd6b5d40f870a87bfe143db68b6",
          "topics": [
            "0x29ef6e5e7533f5e04f1729a119b0acf31837e10f8a66e61d22dedd180d0221e9"
          ],
          "data": "0x000000000000000000000000989251ff79b744736a91c617dde3d3b5da2c09ef",
          "blockHash": "0xd28911b76a47641322c15f07e2d86f23dbc2d8a77cab6758119fcfca9a0273e1",
          "blockNumber": "0x4e31b",
          "blockTimestamp": "0x66c644c5",
          "transactionHash": "0xac876e40f306516e2d42ce0a7f4d6b2524a30f94772bcfc12f2ec4ca3be75d03",
          "transactionIndex": "0x0",
          "logIndex": "0x1",
          "removed": false
        }
      ],
      "logsBloom": "0x00000000800000000000000000000000000000000000000000000000000000000000000000000000000000000000000000000000000000000000000000000000000000000000000000000000000000080000000000000000000000000000000000000000000000000000000000000000000000000000000000000000000000000000000000000000000000000000000010000000000000000001000000000000080100000000000000000000000000000000000000000000000000000000000000000000000000000000080000000000000000000000000000000000000000000000000000000000000400000000000010000000000000000000000000000000",
      "type": "0x2",
      "transactionHash": "0xac876e40f306516e2d42ce0a7f4d6b2524a30f94772bcfc12f2ec4ca3be75d03",
      "transactionIndex": "0x0",
      "blockHash": "0xd28911b76a47641322c15f07e2d86f23dbc2d8a77cab6758119fcfca9a0273e1",
      "blockNumber": "0x4e31b",
      "gasUsed": "0xc06f",
      "effectiveGasPrice": "0x8",
      "from": "0xc1612c97537c2cc62a11fc4516367ab6f62d4b23",
      "to": "0x0e26ade1f5a99bd6b5d40f870a87bfe143db68b6",
      "contractAddress": null
    },
    {
      "status": "0x1",
      "cumulativeGasUsed": "0xb757",
      "logs": [
        {
          "address": "0x0e26ade1f5a99bd6b5d40f870a87bfe143db68b6",
          "topics": [
            "0x84f12763861d318f97fe38a0e6f70b46f0566462d67561978f0f4dff814031df"
          ],
          "data": "0x000000000000000000000000356ccc8a7cbe1eadf0282e6c23278b0e67fb3f910000000000000000000000000000000000000000000000000000000000000000ffffffffffffffffffffffffffffffffffffffffffffffffffffffffffffffff00000000000000000000000000000000000000000000000000000000000003e8",
          "blockHash": "0x15a26004ed78671e26c38a315a108cf3486e30ac59ab665851d421fefbee2e50",
          "blockNumber": "0x4e31d",
          "blockTimestamp": "0x66c644cf",
          "transactionHash": "0x7fda659988e5928039ebe60bf98a2dae238e6443b9bdb0778cb74eb617ed4d5d",
          "transactionIndex": "0x0",
          "logIndex": "0x0",
          "removed": false
        },
        {
          "address": "0x0e26ade1f5a99bd6b5d40f870a87bfe143db68b6",
          "topics": [
            "0x29ef6e5e7533f5e04f1729a119b0acf31837e10f8a66e61d22dedd180d0221e9"
          ],
          "data": "0x000000000000000000000000356ccc8a7cbe1eadf0282e6c23278b0e67fb3f91",
          "blockHash": "0x15a26004ed78671e26c38a315a108cf3486e30ac59ab665851d421fefbee2e50",
          "blockNumber": "0x4e31d",
          "blockTimestamp": "0x66c644cf",
          "transactionHash": "0x7fda659988e5928039ebe60bf98a2dae238e6443b9bdb0778cb74eb617ed4d5d",
          "transactionIndex": "0x0",
          "logIndex": "0x1",
          "removed": false
        }
      ],
      "logsBloom": "0x00000000800000000000000000000000000000000000000000000000000000000000000000000000000000000000000000000000000000000000000000000000000000000000000000000000000000080000000000000000000000000000000000000000000000000000000000000000000000000000000000000000000000000000000000000000000000000000000010000000000000000001000000000000080100000000000000000000000000000000000000000000000000000000000000000000000000000000080000000000000000000000000000000000000000000000000000000000000400000000000010000000000000000000000000000000",
      "type": "0x2",
      "transactionHash": "0x7fda659988e5928039ebe60bf98a2dae238e6443b9bdb0778cb74eb617ed4d5d",
      "transactionIndex": "0x0",
      "blockHash": "0x15a26004ed78671e26c38a315a108cf3486e30ac59ab665851d421fefbee2e50",
      "blockNumber": "0x4e31d",
      "gasUsed": "0xb757",
      "effectiveGasPrice": "0x8",
      "from": "0xc1612c97537c2cc62a11fc4516367ab6f62d4b23",
      "to": "0x0e26ade1f5a99bd6b5d40f870a87bfe143db68b6",
      "contractAddress": null
    },
    {
      "status": "0x1",
      "cumulativeGasUsed": "0xa968",
      "logs": [
        {
          "address": "0x0e26ade1f5a99bd6b5d40f870a87bfe143db68b6",
          "topics": [
            "0x84f12763861d318f97fe38a0e6f70b46f0566462d67561978f0f4dff814031df"
          ],
          "data": "0x0000000000000000000000005404f8b4f4625cff045a3076bc28c250a71e45070000000000000000000000000000000000000000000000000000000000000000ffffffffffffffffffffffffffffffffffffffffffffffffffffffffffffffff00000000000000000000000000000000000000000000000000000000000003e8",
          "blockHash": "0x2f17ef86cb61ac773fee77eaddb926bf09e957def5481779b25c6f18d2d67c6b",
          "blockNumber": "0x4e31f",
          "blockTimestamp": "0x66c644de",
          "transactionHash": "0xef13e82f745f1e2a9c8c0dff07d101584479ba5d6bd9a36c1a8fc82cc665de2e",
          "transactionIndex": "0x0",
          "logIndex": "0x0",
          "removed": false
        },
        {
          "address": "0x0e26ade1f5a99bd6b5d40f870a87bfe143db68b6",
          "topics": [
            "0x29ef6e5e7533f5e04f1729a119b0acf31837e10f8a66e61d22dedd180d0221e9"
          ],
          "data": "0x0000000000000000000000005404f8b4f4625cff045a3076bc28c250a71e4507",
          "blockHash": "0x2f17ef86cb61ac773fee77eaddb926bf09e957def5481779b25c6f18d2d67c6b",
          "blockNumber": "0x4e31f",
          "blockTimestamp": "0x66c644de",
          "transactionHash": "0xef13e82f745f1e2a9c8c0dff07d101584479ba5d6bd9a36c1a8fc82cc665de2e",
          "transactionIndex": "0x0",
          "logIndex": "0x1",
          "removed": false
        }
      ],
      "logsBloom": "0x00000000800000000000000000000000000000000000000000000000000000000000000000000000000000000000000000000000000000000000000000000000000000000000000000000000000000080000000000000000000000000000000000000000000000000000000000000000000000000000000000000000000000000000000000000000000000000000000010000000000000000001000000000000080100000000000000000000000000000000000000000000000000000000000000000000000000000000080000000000000000000000000000000000000000000000000000000000000400000000000010000000000000000000000000000000",
      "type": "0x2",
      "transactionHash": "0xef13e82f745f1e2a9c8c0dff07d101584479ba5d6bd9a36c1a8fc82cc665de2e",
      "transactionIndex": "0x0",
      "blockHash": "0x2f17ef86cb61ac773fee77eaddb926bf09e957def5481779b25c6f18d2d67c6b",
      "blockNumber": "0x4e31f",
      "gasUsed": "0xa968",
      "effectiveGasPrice": "0x8",
      "from": "0xc1612c97537c2cc62a11fc4516367ab6f62d4b23",
      "to": "0x0e26ade1f5a99bd6b5d40f870a87bfe143db68b6",
      "contractAddress": null
    }
  ],
  "libraries": [],
  "pending": [],
  "returns": {},
  "timestamp": 1724269798,
  "chain": 2017,
  "commit": "64359db"
}