{
  "transactions": [
    {
      "hash": "0xea6757b8afb0cb0aa6d3257cabcb9d4a4f2d7f55f16333bcfdcf88830be9ce61",
      "transactionType": "CALL",
      "contractName": null,
      "contractAddress": "0x53bfbc702caa071d76a322b74eb655d583a4be41",
      "function": "UpdateXYZ(address,bool,uint256,uint256)",
      "arguments": [
        "0x7c76C4F1F0ae16Fb6648C8a0aBF9F19ad6c059d9",
        "false",
        "115792089237316195423570985008687907853269984665640564039457584007913129639935",
        "1000"
      ],
      "transaction": {
        "from": "0xc1612c97537c2cc62a11fc4516367ab6f62d4b23",
        "to": "0x53bfbc702caa071d76a322b74eb655d583a4be41",
        "gas": "0x196cf",
        "value": "0x0",
        "input": "0xe9aea3960000000000000000000000007c76c4f1f0ae16fb6648c8a0abf9f19ad6c059d90000000000000000000000000000000000000000000000000000000000000000ffffffffffffffffffffffffffffffffffffffffffffffffffffffffffffffff00000000000000000000000000000000000000000000000000000000000003e8",
        "nonce": "0xda",
        "chainId": "0x7e1"
      },
      "additionalContracts": [],
      "isFixedGasLimit": false
    }
  ],
  "receipts": [
    {
      "status": "0x1",
      "cumulativeGasUsed": "0x11629",
      "logs": [
        {
          "address": "0x53bfbc702caa071d76a322b74eb655d583a4be41",
          "topics": [
            "0x84f12763861d318f97fe38a0e6f70b46f0566462d67561978f0f4dff814031df"
          ],
          "data": "0x0000000000000000000000007c76c4f1f0ae16fb6648c8a0abf9f19ad6c059d90000000000000000000000000000000000000000000000000000000000000000ffffffffffffffffffffffffffffffffffffffffffffffffffffffffffffffff00000000000000000000000000000000000000000000000000000000000003e8",
          "blockHash": "0x05164389c18cb6f38fbe6a9309ebb49196587256d9a5023314e220cef1f4e384",
          "blockNumber": "0x398a6",
          "blockTimestamp": "0x66bd3d27",
          "transactionHash": "0xea6757b8afb0cb0aa6d3257cabcb9d4a4f2d7f55f16333bcfdcf88830be9ce61",
          "transactionIndex": "0x0",
          "logIndex": "0x0",
          "removed": false
        },
        {
          "address": "0x53bfbc702caa071d76a322b74eb655d583a4be41",
          "topics": [
            "0x29ef6e5e7533f5e04f1729a119b0acf31837e10f8a66e61d22dedd180d0221e9"
          ],
          "data": "0x0000000000000000000000007c76c4f1f0ae16fb6648c8a0abf9f19ad6c059d9",
          "blockHash": "0x05164389c18cb6f38fbe6a9309ebb49196587256d9a5023314e220cef1f4e384",
          "blockNumber": "0x398a6",
          "blockTimestamp": "0x66bd3d27",
          "transactionHash": "0xea6757b8afb0cb0aa6d3257cabcb9d4a4f2d7f55f16333bcfdcf88830be9ce61",
          "transactionIndex": "0x0",
          "logIndex": "0x1",
          "removed": false
        }
      ],
      "logsBloom": "0x00000000800000000000000000000000000000000000000000000000000000000000000000000000000000000000000000000000000000000000000000000000000000000000000000000000000000080000000000000000000000000000000000000000000000000000000000000000000000000000000000000000000000000000000002000000000000000000000000000000000000000001000000000000080100000000000000000000000000000000000000000000000000000000000000000000000000000000000000000000000000000000000000000000000000000000000010000000000400000000000000000000000000000000000000400000",
      "type": "0x2",
      "transactionHash": "0xea6757b8afb0cb0aa6d3257cabcb9d4a4f2d7f55f16333bcfdcf88830be9ce61",
      "transactionIndex": "0x0",
      "blockHash": "0x05164389c18cb6f38fbe6a9309ebb49196587256d9a5023314e220cef1f4e384",
      "blockNumber": "0x398a6",
      "gasUsed": "0x11629",
      "effectiveGasPrice": "0x8",
      "from": "0xc1612c97537c2cc62a11fc4516367ab6f62d4b23",
      "to": "0x53bfbc702caa071d76a322b74eb655d583a4be41",
      "contractAddress": null
    }
  ],
  "libraries": [],
  "pending": [],
  "returns": {},
  "timestamp": 1723678013,
  "chain": 2017,
  "commit": "f3886fd"
}