{
  "transactions": [
    {
      "hash": "0xc81a3764024c2b92e4cdc67f324368d7e79c6910936481a49f89fe1f4bd3c059",
      "transactionType": "CALL",
      "contractName": null,
      "contractAddress": "0x25d45a942405834b963c84b66418514c81b2f8c7",
      "function": "grantRole(bytes32,address)",
      "arguments": [
        "0x9f2df0fed2c77648de5860a4cc508cd0818c85b8b8a1ab4ceeef8d981c8956a6",
        "0x0e26AdE1F5A99Bd6B5D40f870a87bFE143Db68B6"
      ],
      "transaction": {
        "from": "0xc1612c97537c2cc62a11fc4516367ab6f62d4b23",
        "to": "0x25d45a942405834b963c84b66418514c81b2f8c7",
        "gas": "0xb934",
        "value": "0x0",
        "input": "0x2f2ff15d9f2df0fed2c77648de5860a4cc508cd0818c85b8b8a1ab4ceeef8d981c8956a60000000000000000000000000e26ade1f5a99bd6b5d40f870a87bfe143db68b6",
        "nonce": "0x47",
        "chainId": "0x7e1"
      },
      "additionalContracts": [],
      "isFixedGasLimit": false
    },
    {
      "hash": "0xb853bd615f0c673c488ff3b7a2edcc76a0e64f1447569d93453fe603d091ea00",
      "transactionType": "CALL",
      "contractName": null,
      "contractAddress": "0x5fe291dd7b6a35502a51814df5e51a461b9c085f",
      "function": "grantRole(bytes32,address)",
      "arguments": [
        "0x9f2df0fed2c77648de5860a4cc508cd0818c85b8b8a1ab4ceeef8d981c8956a6",
        "0x0e26AdE1F5A99Bd6B5D40f870a87bFE143Db68B6"
      ],
      "transaction": {
        "from": "0xc1612c97537c2cc62a11fc4516367ab6f62d4b23",
        "to": "0x5fe291dd7b6a35502a51814df5e51a461b9c085f",
        "gas": "0xb934",
        "value": "0x0",
        "input": "0x2f2ff15d9f2df0fed2c77648de5860a4cc508cd0818c85b8b8a1ab4ceeef8d981c8956a60000000000000000000000000e26ade1f5a99bd6b5d40f870a87bfe143db68b6",
        "nonce": "0x48",
        "chainId": "0x7e1"
      },
      "additionalContracts": [],
      "isFixedGasLimit": false
    },
    {
      "hash": null,
      "transactionType": "CALL",
      "contractName": null,
      "contractAddress": "0x3a60acd97fea737ddd3e8fb2070601c19ac22699",
      "function": "grantRole(bytes32,address)",
      "arguments": [
        "0x9f2df0fed2c77648de5860a4cc508cd0818c85b8b8a1ab4ceeef8d981c8956a6",
        "0x0e26AdE1F5A99Bd6B5D40f870a87bFE143Db68B6"
      ],
      "transaction": {
        "from": "0xc1612c97537c2cc62a11fc4516367ab6f62d4b23",
        "to": "0x3a60acd97fea737ddd3e8fb2070601c19ac22699",
        "gas": "0x14322",
        "value": "0x0",
        "input": "0x2f2ff15d9f2df0fed2c77648de5860a4cc508cd0818c85b8b8a1ab4ceeef8d981c8956a60000000000000000000000000e26ade1f5a99bd6b5d40f870a87bfe143db68b6",
        "nonce": "0x49",
        "chainId": "0x7e1"
      },
      "additionalContracts": [],
      "isFixedGasLimit": false
    },
    {
      "hash": null,
      "transactionType": "CALL",
      "contractName": null,
      "contractAddress": "0x0e26ade1f5a99bd6b5d40f870a87bfe143db68b6",
      "function": "UpdateXYZ(address,bool,uint256,uint256)",
      "arguments": [
        "0x3A60aCD97fEA737ddD3e8FB2070601c19Ac22699",
        "false",
        "115792089237316195423570985008687907853269984665640564039457584007913129639935",
        "1000"
      ],
      "transaction": {
        "from": "0xc1612c97537c2cc62a11fc4516367ab6f62d4b23",
        "to": "0x0e26ade1f5a99bd6b5d40f870a87bfe143db68b6",
        "gas": "0x17cb8",
        "value": "0x0",
        "input": "0xe9aea3960000000000000000000000003a60acd97fea737ddd3e8fb2070601c19ac226990000000000000000000000000000000000000000000000000000000000000000ffffffffffffffffffffffffffffffffffffffffffffffffffffffffffffffff00000000000000000000000000000000000000000000000000000000000003e8",
        "nonce": "0x4a",
        "chainId": "0x7e1"
      },
      "additionalContracts": [],
      "isFixedGasLimit": false
    },
    {
      "hash": null,
      "transactionType": "CALL",
      "contractName": null,
      "contractAddress": "0x7c76c4f1f0ae16fb6648c8a0abf9f19ad6c059d9",
      "function": "grantRole(bytes32,address)",
      "arguments": [
        "0x9f2df0fed2c77648de5860a4cc508cd0818c85b8b8a1ab4ceeef8d981c8956a6",
        "0x0e26AdE1F5A99Bd6B5D40f870a87bFE143Db68B6"
      ],
      "transaction": {
        "from": "0xc1612c97537c2cc62a11fc4516367ab6f62d4b23",
        "to": "0x7c76c4f1f0ae16fb6648c8a0abf9f19ad6c059d9",
        "gas": "0x14322",
        "value": "0x0",
        "input": "0x2f2ff15d9f2df0fed2c77648de5860a4cc508cd0818c85b8b8a1ab4ceeef8d981c8956a60000000000000000000000000e26ade1f5a99bd6b5d40f870a87bfe143db68b6",
        "nonce": "0x4b",
        "chainId": "0x7e1"
      },
      "additionalContracts": [],
      "isFixedGasLimit": false
    },
    {
      "hash": null,
      "transactionType": "CALL",
      "contractName": null,
      "contractAddress": "0xf84548d35a90d8b107019478188a3791f3b8f6c1",
      "function": "grantRole(bytes32,address)",
      "arguments": [
        "0x9f2df0fed2c77648de5860a4cc508cd0818c85b8b8a1ab4ceeef8d981c8956a6",
        "0x0e26AdE1F5A99Bd6B5D40f870a87bFE143Db68B6"
      ],
      "transaction": {
        "from": "0xc1612c97537c2cc62a11fc4516367ab6f62d4b23",
        "to": "0xf84548d35a90d8b107019478188a3791f3b8f6c1",
        "gas": "0x14322",
        "value": "0x0",
        "input": "0x2f2ff15d9f2df0fed2c77648de5860a4cc508cd0818c85b8b8a1ab4ceeef8d981c8956a60000000000000000000000000e26ade1f5a99bd6b5d40f870a87bfe143db68b6",
        "nonce": "0x4c",
        "chainId": "0x7e1"
      },
      "additionalContracts": [],
      "isFixedGasLimit": false
    },
    {
      "hash": null,
      "transactionType": "CALL",
      "contractName": null,
      "contractAddress": "0x0e26ade1f5a99bd6b5d40f870a87bfe143db68b6",
      "function": "UpdateXYZ(address,bool,uint256,uint256)",
      "arguments": [
        "0xF84548d35A90d8B107019478188a3791f3b8f6C1",
        "false",
        "115792089237316195423570985008687907853269984665640564039457584007913129639935",
        "1000"
      ],
      "transaction": {
        "from": "0xc1612c97537c2cc62a11fc4516367ab6f62d4b23",
        "to": "0x0e26ade1f5a99bd6b5d40f870a87bfe143db68b6",
        "gas": "0x16f6c",
        "value": "0x0",
        "input": "0xe9aea396000000000000000000000000f84548d35a90d8b107019478188a3791f3b8f6c10000000000000000000000000000000000000000000000000000000000000000ffffffffffffffffffffffffffffffffffffffffffffffffffffffffffffffff00000000000000000000000000000000000000000000000000000000000003e8",
        "nonce": "0x4d",
        "chainId": "0x7e1"
      },
      "additionalContracts": [],
      "isFixedGasLimit": false
    },
    {
      "hash": null,
      "transactionType": "CALL",
      "contractName": null,
      "contractAddress": "0x5cc307482eaba4c03526c00b6d6f5e05949550d9",
      "function": "grantRole(bytes32,address)",
      "arguments": [
        "0x9f2df0fed2c77648de5860a4cc508cd0818c85b8b8a1ab4ceeef8d981c8956a6",
        "0x0e26AdE1F5A99Bd6B5D40f870a87bFE143Db68B6"
      ],
      "transaction": {
        "from": "0xc1612c97537c2cc62a11fc4516367ab6f62d4b23",
        "to": "0x5cc307482eaba4c03526c00b6d6f5e05949550d9",
        "gas": "0x14322",
        "value": "0x0",
        "input": "0x2f2ff15d9f2df0fed2c77648de5860a4cc508cd0818c85b8b8a1ab4ceeef8d981c8956a60000000000000000000000000e26ade1f5a99bd6b5d40f870a87bfe143db68b6",
        "nonce": "0x4e",
        "chainId": "0x7e1"
      },
      "additionalContracts": [],
      "isFixedGasLimit": false
    },
    {
      "hash": null,
      "transactionType": "CALL",
      "contractName": null,
      "contractAddress": "0x0e26ade1f5a99bd6b5d40f870a87bfe143db68b6",
      "function": "UpdateXYZ(address,bool,uint256,uint256)",
      "arguments": [
        "0x5Cc307482EabA4C03526C00B6D6f5e05949550d9",
        "false",
        "115792089237316195423570985008687907853269984665640564039457584007913129639935",
        "1000"
      ],
      "transaction": {
        "from": "0xc1612c97537c2cc62a11fc4516367ab6f62d4b23",
        "to": "0x0e26ade1f5a99bd6b5d40f870a87bfe143db68b6",
        "gas": "0x1621f",
        "value": "0x0",
        "input": "0xe9aea3960000000000000000000000005cc307482eaba4c03526c00b6d6f5e05949550d90000000000000000000000000000000000000000000000000000000000000000ffffffffffffffffffffffffffffffffffffffffffffffffffffffffffffffff00000000000000000000000000000000000000000000000000000000000003e8",
        "nonce": "0x4f",
        "chainId": "0x7e1"
      },
      "additionalContracts": [],
      "isFixedGasLimit": false
    },
    {
      "hash": null,
      "transactionType": "CALL",
      "contractName": null,
      "contractAddress": "0x7e27fc84da5e35097982fda7b2c93e8ce4fb5817",
      "function": "grantRole(bytes32,address)",
      "arguments": [
        "0x9f2df0fed2c77648de5860a4cc508cd0818c85b8b8a1ab4ceeef8d981c8956a6",
        "0x0e26AdE1F5A99Bd6B5D40f870a87bFE143Db68B6"
      ],
      "transaction": {
        "from": "0xc1612c97537c2cc62a11fc4516367ab6f62d4b23",
        "to": "0x7e27fc84da5e35097982fda7b2c93e8ce4fb5817",
        "gas": "0x14322",
        "value": "0x0",
        "input": "0x2f2ff15d9f2df0fed2c77648de5860a4cc508cd0818c85b8b8a1ab4ceeef8d981c8956a60000000000000000000000000e26ade1f5a99bd6b5d40f870a87bfe143db68b6",
        "nonce": "0x50",
        "chainId": "0x7e1"
      },
      "additionalContracts": [],
      "isFixedGasLimit": false
    },
    {
      "hash": null,
      "transactionType": "CALL",
      "contractName": null,
      "contractAddress": "0x0e26ade1f5a99bd6b5d40f870a87bfe143db68b6",
      "function": "UpdateXYZ(address,bool,uint256,uint256)",
      "arguments": [
        "0x7e27fC84da5e35097982fdA7b2C93E8cE4FB5817",
        "false",
        "115792089237316195423570985008687907853269984665640564039457584007913129639935",
        "1000"
      ],
      "transaction": {
        "from": "0xc1612c97537c2cc62a11fc4516367ab6f62d4b23",
        "to": "0x0e26ade1f5a99bd6b5d40f870a87bfe143db68b6",
        "gas": "0x141d8",
        "value": "0x0",
        "input": "0xe9aea3960000000000000000000000007e27fc84da5e35097982fda7b2c93e8ce4fb58170000000000000000000000000000000000000000000000000000000000000000ffffffffffffffffffffffffffffffffffffffffffffffffffffffffffffffff00000000000000000000000000000000000000000000000000000000000003e8",
        "nonce": "0x51",
        "chainId": "0x7e1"
      },
      "additionalContracts": [],
      "isFixedGasLimit": false
    },
    {
      "hash": null,
      "transactionType": "CALL",
      "contractName": null,
      "contractAddress": "0xc8156af812714b8cedb540adec69fc104d99930b",
      "function": "grantRole(bytes32,address)",
      "arguments": [
        "0x9f2df0fed2c77648de5860a4cc508cd0818c85b8b8a1ab4ceeef8d981c8956a6",
        "0x0e26AdE1F5A99Bd6B5D40f870a87bFE143Db68B6"
      ],
      "transaction": {
        "from": "0xc1612c97537c2cc62a11fc4516367ab6f62d4b23",
        "to": "0xc8156af812714b8cedb540adec69fc104d99930b",
        "gas": "0x14322",
        "value": "0x0",
        "input": "0x2f2ff15d9f2df0fed2c77648de5860a4cc508cd0818c85b8b8a1ab4ceeef8d981c8956a60000000000000000000000000e26ade1f5a99bd6b5d40f870a87bfe143db68b6",
        "nonce": "0x52",
        "chainId": "0x7e1"
      },
      "additionalContracts": [],
      "isFixedGasLimit": false
    },
    {
      "hash": null,
      "transactionType": "CALL",
      "contractName": null,
      "contractAddress": "0x0e26ade1f5a99bd6b5d40f870a87bfe143db68b6",
      "function": "UpdateXYZ(address,bool,uint256,uint256)",
      "arguments": [
        "0xC8156aF812714b8cedb540AdEc69FC104d99930B",
        "false",
        "115792089237316195423570985008687907853269984665640564039457584007913129639935",
        "1000"
      ],
      "transaction": {
        "from": "0xc1612c97537c2cc62a11fc4516367ab6f62d4b23",
        "to": "0x0e26ade1f5a99bd6b5d40f870a87bfe143db68b6",
        "gas": "0x1348c",
        "value": "0x0",
        "input": "0xe9aea396000000000000000000000000c8156af812714b8cedb540adec69fc104d99930b0000000000000000000000000000000000000000000000000000000000000000ffffffffffffffffffffffffffffffffffffffffffffffffffffffffffffffff00000000000000000000000000000000000000000000000000000000000003e8",
        "nonce": "0x53",
        "chainId": "0x7e1"
      },
      "additionalContracts": [],
      "isFixedGasLimit": false
    },
    {
      "hash": null,
      "transactionType": "CALL",
      "contractName": null,
      "contractAddress": "0x989251ff79b744736a91c617dde3d3b5da2c09ef",
      "function": "grantRole(bytes32,address)",
      "arguments": [
        "0x9f2df0fed2c77648de5860a4cc508cd0818c85b8b8a1ab4ceeef8d981c8956a6",
        "0x0e26AdE1F5A99Bd6B5D40f870a87bFE143Db68B6"
      ],
      "transaction": {
        "from": "0xc1612c97537c2cc62a11fc4516367ab6f62d4b23",
        "to": "0x989251ff79b744736a91c617dde3d3b5da2c09ef",
        "gas": "0x14322",
        "value": "0x0",
        "input": "0x2f2ff15d9f2df0fed2c77648de5860a4cc508cd0818c85b8b8a1ab4ceeef8d981c8956a60000000000000000000000000e26ade1f5a99bd6b5d40f870a87bfe143db68b6",
        "nonce": "0x54",
        "chainId": "0x7e1"
      },
      "additionalContracts": [],
      "isFixedGasLimit": false
    },
    {
      "hash": null,
      "transactionType": "CALL",
      "contractName": null,
      "contractAddress": "0x0e26ade1f5a99bd6b5d40f870a87bfe143db68b6",
      "function": "UpdateXYZ(address,bool,uint256,uint256)",
      "arguments": [
        "0x989251Ff79b744736a91c617DDE3D3b5Da2C09Ef",
        "false",
        "115792089237316195423570985008687907853269984665640564039457584007913129639935",
        "1000"
      ],
      "transaction": {
        "from": "0xc1612c97537c2cc62a11fc4516367ab6f62d4b23",
        "to": "0x0e26ade1f5a99bd6b5d40f870a87bfe143db68b6",
        "gas": "0x1273f",
        "value": "0x0",
        "input": "0xe9aea396000000000000000000000000989251ff79b744736a91c617dde3d3b5da2c09ef0000000000000000000000000000000000000000000000000000000000000000ffffffffffffffffffffffffffffffffffffffffffffffffffffffffffffffff00000000000000000000000000000000000000000000000000000000000003e8",
        "nonce": "0x55",
        "chainId": "0x7e1"
      },
      "additionalContracts": [],
      "isFixedGasLimit": false
    },
    {
      "hash": null,
      "transactionType": "CALL",
      "contractName": null,
      "contractAddress": "0x356ccc8a7cbe1eadf0282e6c23278b0e67fb3f91",
      "function": "grantRole(bytes32,address)",
      "arguments": [
        "0x9f2df0fed2c77648de5860a4cc508cd0818c85b8b8a1ab4ceeef8d981c8956a6",
        "0x0e26AdE1F5A99Bd6B5D40f870a87bFE143Db68B6"
      ],
      "transaction": {
        "from": "0xc1612c97537c2cc62a11fc4516367ab6f62d4b23",
        "to": "0x356ccc8a7cbe1eadf0282e6c23278b0e67fb3f91",
        "gas": "0x14322",
        "value": "0x0",
        "input": "0x2f2ff15d9f2df0fed2c77648de5860a4cc508cd0818c85b8b8a1ab4ceeef8d981c8956a60000000000000000000000000e26ade1f5a99bd6b5d40f870a87bfe143db68b6",
        "nonce": "0x56",
        "chainId": "0x7e1"
      },
      "additionalContracts": [],
      "isFixedGasLimit": false
    },
    {
      "hash": null,
      "transactionType": "CALL",
      "contractName": null,
      "contractAddress": "0x0e26ade1f5a99bd6b5d40f870a87bfe143db68b6",
      "function": "UpdateXYZ(address,bool,uint256,uint256)",
      "arguments": [
        "0x356Ccc8a7cBE1EADF0282E6C23278B0e67fB3f91",
        "false",
        "115792089237316195423570985008687907853269984665640564039457584007913129639935",
        "1000"
      ],
      "transaction": {
        "from": "0xc1612c97537c2cc62a11fc4516367ab6f62d4b23",
        "to": "0x0e26ade1f5a99bd6b5d40f870a87bfe143db68b6",
        "gas": "0x119f2",
        "value": "0x0",
        "input": "0xe9aea396000000000000000000000000356ccc8a7cbe1eadf0282e6c23278b0e67fb3f910000000000000000000000000000000000000000000000000000000000000000ffffffffffffffffffffffffffffffffffffffffffffffffffffffffffffffff00000000000000000000000000000000000000000000000000000000000003e8",
        "nonce": "0x57",
        "chainId": "0x7e1"
      },
      "additionalContracts": [],
      "isFixedGasLimit": false
    },
    {
      "hash": null,
      "transactionType": "CALL",
      "contractName": null,
      "contractAddress": "0x5404f8b4f4625cff045a3076bc28c250a71e4507",
      "function": "grantRole(bytes32,address)",
      "arguments": [
        "0x9f2df0fed2c77648de5860a4cc508cd0818c85b8b8a1ab4ceeef8d981c8956a6",
        "0x0e26AdE1F5A99Bd6B5D40f870a87bFE143Db68B6"
      ],
      "transaction": {
        "from": "0xc1612c97537c2cc62a11fc4516367ab6f62d4b23",
        "to": "0x5404f8b4f4625cff045a3076bc28c250a71e4507",
        "gas": "0x14322",
        "value": "0x0",
        "input": "0x2f2ff15d9f2df0fed2c77648de5860a4cc508cd0818c85b8b8a1ab4ceeef8d981c8956a60000000000000000000000000e26ade1f5a99bd6b5d40f870a87bfe143db68b6",
        "nonce": "0x58",
        "chainId": "0x7e1"
      },
      "additionalContracts": [],
      "isFixedGasLimit": false
    },
    {
      "hash": null,
      "transactionType": "CALL",
      "contractName": null,
      "contractAddress": "0x0e26ade1f5a99bd6b5d40f870a87bfe143db68b6",
      "function": "UpdateXYZ(address,bool,uint256,uint256)",
      "arguments": [
        "0x5404F8B4F4625CFf045A3076Bc28c250a71E4507",
        "false",
        "115792089237316195423570985008687907853269984665640564039457584007913129639935",
        "1000"
      ],
      "transaction": {
        "from": "0xc1612c97537c2cc62a11fc4516367ab6f62d4b23",
        "to": "0x0e26ade1f5a99bd6b5d40f870a87bfe143db68b6",
        "gas": "0x10ca5",
        "value": "0x0",
        "input": "0xe9aea3960000000000000000000000005404f8b4f4625cff045a3076bc28c250a71e45070000000000000000000000000000000000000000000000000000000000000000ffffffffffffffffffffffffffffffffffffffffffffffffffffffffffffffff00000000000000000000000000000000000000000000000000000000000003e8",
        "nonce": "0x59",
        "chainId": "0x7e1"
      },
      "additionalContracts": [],
      "isFixedGasLimit": false
    }
  ],
  "receipts": [],
  "libraries": [],
  "pending": [
    "0xc81a3764024c2b92e4cdc67f324368d7e79c6910936481a49f89fe1f4bd3c059",
    "0xb853bd615f0c673c488ff3b7a2edcc76a0e64f1447569d93453fe603d091ea00"
  ],
  "returns": {},
  "timestamp": 1727063347,
  "chain": 2017,
  "commit": "4ac8ee7"
}