{
  "transactions": [
    {
      "hash": "0x31621e1d78abd0f067fbfe8853eb20dfa70f947cdc282bb6c885cf7e23b47854",
      "transactionType": "CREATE2",
      "contractName": null,
      "contractAddress": "0x857721c881fc26e4664a9685d8650c0505997672",
      "function": null,
      "arguments": null,
      "transaction": {
        "from": "0xc1612c97537c2cc62a11fc4516367ab6f62d4b23",
        "to": "0x4e59b44847b379578588920ca78fbf26c0b4956c",
        "gas": "0x34f51b",
        "value": "0x0",
        "input": "0x537461626c65636f696e4d616e6167657200000000000000000000000000000060a0604052306080523480156012575f80fd5b506080516129d46100395f395f81816118580152818161188101526119c201526129d45ff3fe6080604052600436106101e6575f3560e01c806369e2fda411610108578063a217fddf1161009d578063df668eca1161006d578063df668eca14610583578063e63ab1e9146105a3578063e9aea396146105d6578063eb3839a7146105f5578063f874225414610614575f80fd5b8063a217fddf146104f5578063ad3cb1cc14610508578063c057bd6b14610545578063d547741f14610564575f80fd5b806391d14854116100d857806391d1485414610484578063924855fa146104a3578063956794b1146104b75780639ef84173146104d6575f80fd5b806369e2fda414610410578063817204a4146104315780638456cb59146104515780638e13c58e14610465575f80fd5b80633f4ba83a1161017e5780634f9c2c261161014e5780634f9c2c261461039b57806352d1902d146103ba578063543f8c58146103ce5780635c975abb146103ed575f80fd5b80633f4ba83a1461032257806340c66f781461033657806345c7c793146103555780634f1ef28614610388575f80fd5b8063248a9ca3116101b9578063248a9ca3146102a35780632f2ff15d146102d05780633598e3dc146102ef57806336568abe14610303575f80fd5b806301ffc9a7146101ea578063104430b61461021e5780631a0d6c2e1461023f5780631a95e05d14610260575b5f80fd5b3480156101f5575f80fd5b506102096102043660046121d0565b610634565b60405190151581526020015b60405180910390f35b348015610229575f80fd5b5061023d610238366004612252565b61066a565b005b34801561024a575f80fd5b5061025361090b565b6040516102159190612397565b34801561026b575f80fd5b5061020961027a366004612441565b6001600160a01b03165f9081525f80516020612908833981519152602052604090205460ff1690565b3480156102ae575f80fd5b506102c26102bd36600461245c565b610b8d565b604051908152602001610215565b3480156102db575f80fd5b5061023d6102ea366004612473565b610bad565b3480156102fa575f80fd5b5061023d610bcf565b34801561030e575f80fd5b5061023d61031d366004612473565b610be1565b34801561032d575f80fd5b5061023d610c19565b348015610341575f80fd5b5061023d6103503660046124a1565b610c4e565b348015610360575f80fd5b506102c27faecf5761d3ba769b4631978eb26cb84eae66bcaca9c3f0f4ecde3feb2f4cf14481565b61023d610396366004612535565b610ced565b3480156103a6575f80fd5b506102c26103b5366004612441565b610d0c565b3480156103c5575f80fd5b506102c2610d35565b3480156103d9575f80fd5b5061023d6103e836600461245c565b610d50565b3480156103f8575f80fd5b505f805160206129688339815191525460ff16610209565b34801561041b575f80fd5b50610424610d7c565b60405161021591906125c1565b34801561043c575f80fd5b505f805160206128e8833981519152546102c2565b34801561045c575f80fd5b5061023d610dfd565b348015610470575f80fd5b5061023d61047f366004612692565b610e2f565b34801561048f575f80fd5b5061020961049e366004612473565b611012565b3480156104ae575f80fd5b5061023d611048565b3480156104c2575f80fd5b506102c26104d1366004612441565b611058565b3480156104e1575f80fd5b5061023d6104f0366004612692565b611081565b348015610500575f80fd5b506102c25f81565b348015610513575f80fd5b50610538604051806040016040528060058152602001640352e302e360dc1b81525081565b60405161021591906126d7565b348015610550575f80fd5b5061023d61055f3660046126e9565b611253565b34801561056f575f80fd5b5061023d61057e366004612473565b61151c565b34801561058e575f80fd5b506102c25f8051602061298883398151915281565b3480156105ae575f80fd5b506102c27f65d7a28e3265b37a6474929f336521b332c1681b933f6cb9f3376673440d862a81565b3480156105e1575f80fd5b5061023d6105f036600461272a565b611538565b348015610600575f80fd5b5061023d61060f36600461276d565b611565565b34801561061f575f80fd5b506102c25f805160206129a883398151915281565b5f6001600160e01b03198216637965db0b60e01b148061066457506301ffc9a760e01b6001600160e01b03198316145b92915050565b7ff0c57e16840df040f15088dc2f81fe391c3923bec73e23a9662efc9c229c6a008054600160401b810460ff1615906001600160401b03165f811580156106ae5750825b90505f826001600160401b031660011480156106c95750303b155b9050811580156106d7575080155b156106f55760405163f92ee8a960e01b815260040160405180910390fd5b845467ffffffffffffffff19166001178555831561071f57845460ff60401b1916600160401b1785555b8a891461073f57604051637ca922bb60e01b815260040160405180910390fd5b610747611048565b61075e5f805160206129a883398151915233611612565b505f5b89811015610800576107f88d8d8381811061077e5761077e612799565b90506020020160208101906107939190612441565b8c8c848181106107a5576107a5612799565b6107bb92602060609092020190810191506127ad565b8d8d858181106107cd576107cd612799565b905060600201602001358e8e868181106107e9576107e9612799565b90506060020160400135611538565b600101610761565b506108185f805160206129a8833981519152336116b3565b506108235f8f611612565b5061083b5f805160206129a88339815191528e611612565b505f5b8781101561089f576108967faecf5761d3ba769b4631978eb26cb84eae66bcaca9c3f0f4ecde3feb2f4cf1448a8a8481811061087c5761087c612799565b90506020020160208101906108919190612441565b611612565b5060010161083e565b506108b5865f805160206128e883398151915255565b83156108fb57845460ff60401b19168555604051600181527fc7f505b2f371ae2175ee4913f4499e1f2633a7b5936321eed1cdaeb6115181d29060200160405180910390a15b5050505050505050505050505050565b60605f610916610d7c565b905080516001600160401b03811115610931576109316124cb565b60405190808252806020026020018201604052801561099457816020015b61098160405180608001604052805f6001600160a01b0316815260200160608152602001606081526020015f81525090565b81526020019060019003908161094f5790505b5091505f5b8151811015610b88575f8282815181106109b5576109b5612799565b60200260200101516001600160a01b03166306fdde036040518163ffffffff1660e01b81526004015f60405180830381865afa1580156109f7573d5f803e3d5ffd5b505050506040513d5f823e601f3d908101601f19168201604052610a1e91908101906127c8565b90505f838381518110610a3357610a33612799565b60200260200101516001600160a01b03166395d89b416040518163ffffffff1660e01b81526004015f60405180830381865afa158015610a75573d5f803e3d5ffd5b505050506040513d5f823e601f3d908101601f19168201604052610a9c91908101906127c8565b90505f848481518110610ab157610ab1612799565b60200260200101516001600160a01b031663313ce5676040518163ffffffff1660e01b8152600401602060405180830381865afa158015610af4573d5f803e3d5ffd5b505050506040513d601f19601f82011682018060405250810190610b189190612830565b90506040518060800160405280868681518110610b3757610b37612799565b60200260200101516001600160a01b0316815260200184815260200183815260200182815250868581518110610b6f57610b6f612799565b6020026020010181905250505050806001019050610999565b505090565b5f9081525f80516020612948833981519152602052604090206001015490565b610bb682610b8d565b610bbf8161172c565b610bc98383611612565b50505050565b610bd7611736565b610bdf61177f565b565b6001600160a01b0381163314610c0a5760405163334bd91960e11b815260040160405180910390fd5b610c1482826116b3565b505050565b7f65d7a28e3265b37a6474929f336521b332c1681b933f6cb9f3376673440d862a610c438161172c565b610c4b61178f565b50565b5f805160206129a8833981519152610c658161172c565b6001600160a01b038316610cd9576040515f90339084908381818185875af1925050503d805f8114610cb2576040519150601f19603f3d011682016040523d82523d5f602084013e610cb7565b606091505b5050905080610bc957604051633acddfc160e21b815260040160405180910390fd5b610c146001600160a01b03841633846117ee565b610cf561184d565b610cfe826118f1565b610d0882826118fb565b5050565b6001600160a01b03165f9081525f80516020612908833981519152602052604090206001015490565b5f610d3e6119b7565b505f8051602061292883398151915290565b5f805160206129a8833981519152610d678161172c565b610d08825f805160206128e883398151915255565b60605f7f77dc539bf9c224afa178d31bf07d5109c2b5c5e56656e49b25e507fec3a69f00805460408051602080840282018101909252828152929350839190830182828015610df257602002820191905f5260205f20905b81546001600160a01b03168152600190910190602001808311610dd4575b505050505091505090565b7f65d7a28e3265b37a6474929f336521b332c1681b933f6cb9f3376673440d862a610e278161172c565b610c4b611a00565b610e37611a48565b805181906001600160a01b03161580610e5b575060208101516001600160a01b0316155b80610e6857506040810151155b80610e7e575060608101516001600160a01b0316155b80610e8b57506080810151155b15610eb2576040516326401ebb60e01b8152600401610ea990612847565b60405180910390fd5b5f80516020612988833981519152610ec98161172c565b610ed68360600151610d0c565b836080015184606001516001600160a01b03166318160ddd6040518163ffffffff1660e01b8152600401602060405180830381865afa158015610f1b573d5f803e3d5ffd5b505050506040513d601f19601f82011682018060405250810190610f3f9190612830565b610f499190612877565b1115610f795760608301516040516318c0142960e11b81526001600160a01b039091166004820152602401610ea9565b610fa18585856040015186602001516001600160a01b0316611a78909392919063ffffffff16565b6060830151835160808501516040516308934a5f60e31b81526001600160a01b039283166004820152602481019190915291169063449a52f8906044015f604051808303815f87803b158015610ff5575f80fd5b505af1158015611007573d5f803e3d5ffd5b505050505050505050565b5f9182525f80516020612948833981519152602090815260408084206001600160a01b0393909316845291905290205460ff1690565b611050611736565b610bdf610bcf565b6001600160a01b03165f9081525f80516020612908833981519152602052604090206002015490565b611089611a48565b805181906001600160a01b031615806110ad575060208101516001600160a01b0316155b806110ba57506040810151155b806110d0575060608101516001600160a01b0316155b806110dd57506080810151155b156110fb576040516326401ebb60e01b8152600401610ea990612847565b5f805160206129888339815191526111128161172c565b61111f8360200151611058565b836040015184602001516001600160a01b03166318160ddd6040518163ffffffff1660e01b8152600401602060405180830381865afa158015611164573d5f803e3d5ffd5b505050506040513d601f19601f820116820180604052508101906111889190612830565b611192919061288a565b10156111c25760208301516040516318c0142960e11b81526001600160a01b039091166004820152602401610ea9565b6020830151604080850151905163079cc67960e41b81526001600160a01b03888116600483015260248201929092529116906379cc6790906044015f604051808303815f87803b158015611214575f80fd5b505af1158015611226573d5f803e3d5ffd5b505084516080860151606087015161124c94506001600160a01b03169250879190611a78565b5050505050565b61125b611a48565b805181906001600160a01b0316158061127f575060208101516001600160a01b0316155b8061128c57506040810151155b806112a2575060608101516001600160a01b0316155b806112af57506080810151155b156112cd576040516326401ebb60e01b8152600401610ea990612847565b5f805160206129888339815191526112e48161172c565b6112f18360200151611058565b836040015184602001516001600160a01b03166318160ddd6040518163ffffffff1660e01b8152600401602060405180830381865afa158015611336573d5f803e3d5ffd5b505050506040513d601f19601f8201168201806040525081019061135a9190612830565b611364919061288a565b10156113945760208301516040516318c0142960e11b81526001600160a01b039091166004820152602401610ea9565b6113a18360600151610d0c565b836080015184606001516001600160a01b03166318160ddd6040518163ffffffff1660e01b8152600401602060405180830381865afa1580156113e6573d5f803e3d5ffd5b505050506040513d601f19601f8201168201806040525081019061140a9190612830565b6114149190612877565b11156114445760608301516040516318c0142960e11b81526001600160a01b039091166004820152602401610ea9565b6020830151604080850151905163079cc67960e41b81526001600160a01b03878116600483015260248201929092529116906379cc6790906044015f604051808303815f87803b158015611496575f80fd5b505af11580156114a8573d5f803e3d5ffd5b505050506060830151835160808501516040516308934a5f60e31b81526001600160a01b039283166004820152602481019190915291169063449a52f8906044015f604051808303815f87803b158015611500575f80fd5b505af1158015611512573d5f803e3d5ffd5b5050505050505050565b61152582610b8d565b61152e8161172c565b610bc983836116b3565b5f805160206129a883398151915261154f8161172c565b61155b85858585611ab1565b61124c8585611bcf565b7faecf5761d3ba769b4631978eb26cb84eae66bcaca9c3f0f4ecde3feb2f4cf14461158f8161172c565b826001600160a01b031663449a52f8836115b45f805160206128e88339815191525490565b6040516001600160e01b031960e085901b1681526001600160a01b03909216600483015260248201526044015f604051808303815f87803b1580156115f7575f80fd5b505af1158015611609573d5f803e3d5ffd5b50505050505050565b5f5f8051602061294883398151915261162b8484611012565b6116aa575f848152602082815260408083206001600160a01b03871684529091529020805460ff191660011790556116603390565b6001600160a01b0316836001600160a01b0316857f2f8788117e7eff1d82e926ec794901d17c78024a50270940304540a733656f0d60405160405180910390a46001915050610664565b5f915050610664565b5f5f805160206129488339815191526116cc8484611012565b156116aa575f848152602082815260408083206001600160a01b0387168085529252808320805460ff1916905551339287917ff6391f5c32d9c69d2a47ea670b442974b53935d1edc7fd64eb21e047a839171b9190a46001915050610664565b610c4b8133611beb565b7ff0c57e16840df040f15088dc2f81fe391c3923bec73e23a9662efc9c229c6a0054600160401b900460ff16610bdf57604051631afcd79f60e31b815260040160405180910390fd5b611787611736565b610bdf611c24565b611797611c44565b5f80516020612968833981519152805460ff191681557f5db9ee0a495bf2e6ff9c91a7834c1ba4fdd244a5e8aa4e537bd38aeae4b073aa335b6040516001600160a01b03909116815260200160405180910390a150565b6040516001600160a01b03838116602483015260448201839052610c1491859182169063a9059cbb906064015b604051602081830303815290604052915060e01b6020820180516001600160e01b038381831617835250505050611c73565b306001600160a01b037f00000000000000000000000000000000000000000000000000000000000000001614806118d357507f00000000000000000000000000000000000000000000000000000000000000006001600160a01b03166118c75f80516020612928833981519152546001600160a01b031690565b6001600160a01b031614155b15610bdf5760405163703e46dd60e11b815260040160405180910390fd5b5f610d088161172c565b816001600160a01b03166352d1902d6040518163ffffffff1660e01b8152600401602060405180830381865afa925050508015611955575060408051601f3d908101601f1916820190925261195291810190612830565b60015b61197d57604051634c9c8ce360e01b81526001600160a01b0383166004820152602401610ea9565b5f8051602061292883398151915281146119ad57604051632a87526960e21b815260048101829052602401610ea9565b610c148383611cd4565b306001600160a01b037f00000000000000000000000000000000000000000000000000000000000000001614610bdf5760405163703e46dd60e11b815260040160405180910390fd5b611a08611a48565b5f80516020612968833981519152805460ff191660011781557f62e78cea01bee320cd4e420270b5ea74000d11b0c9f74754ebdbfc544b05a258336117d0565b5f805160206129688339815191525460ff1615610bdf5760405163d93c066560e01b815260040160405180910390fd5b6040516001600160a01b038481166024830152838116604483015260648201839052610bc99186918216906323b872dd9060840161181b565b5f805160206129a8833981519152611ac88161172c565b818311611b3d5760405162461bcd60e51b815260206004820152603d60248201527f537461626c65636f696e48616e646c65723a207570706572626f756e64206d7560448201527f73742062652067726561746572207468616e206c6f776572626f756e640000006064820152608401610ea9565b5f5f805160206129088339815191526001600160a01b0387165f8181526020838152604091829020805460ff19168a15159081178255600182018a905560029091018890558251938452908301528101869052606081018590529091507f84f12763861d318f97fe38a0e6f70b46f0566462d67561978f0f4dff814031df9060800160405180910390a1505050505050565b801515600103611be257610d0882611d29565b610d0882611dcb565b611bf58282611012565b610d085760405163e2517d3f60e01b81526001600160a01b038216600482015260248101839052604401610ea9565b611c2c611736565b5f80516020612968833981519152805460ff19169055565b5f805160206129688339815191525460ff16610bdf57604051638dfc202b60e01b815260040160405180910390fd5b5f611c876001600160a01b03841683611faa565b905080515f14158015611cab575080806020019051810190611ca9919061289d565b155b15610c1457604051635274afe760e01b81526001600160a01b0384166004820152602401610ea9565b611cdd82611fbe565b6040516001600160a01b038316907fbc7cd75a20ee27fd9adebab32041f755214dbc6bffa90cc0225b39da2e5c2d3b905f90a2805115611d2157610c148282612021565b610d08612093565b7f77dc539bf9c224afa178d31bf07d5109c2b5c5e56656e49b25e507fec3a69f0080546001810182555f8290527f7e20de35e2cca1b91743fd09589d05b1415d23ef62d96d86c8e1bc09ee225f0f0180546001600160a01b0384166001600160a01b0319909116811790915560408051918252517fc039c75cef0904723584eecbad08281b7298a16c9fadc7dbbb576359df79c1de9181900360200190a15050565b7f77dc539bf9c224afa178d31bf07d5109c2b5c5e56656e49b25e507fec3a69f008054604080516020808402820181019092528281525f929091849190830182828015611e3f57602002820191905f5260205f20905b81546001600160a01b03168152600190910190602001808311611e21575b505050505090505f5f1990505f5b8251811015611e9457846001600160a01b0316838281518110611e7257611e72612799565b60200260200101516001600160a01b031603611e8c578091505b600101611e4d565b505f198103611ec1576040516378f85f0760e11b81526001600160a01b0385166004820152602401610ea9565b5f60018351611ed0919061288a565b9050808214611f3357828181518110611eeb57611eeb612799565b6020026020010151845f018381548110611f0757611f07612799565b905f5260205f20015f6101000a8154816001600160a01b0302191690836001600160a01b031602179055505b8354849080611f4457611f446128b8565b5f8281526020908190205f19908301810180546001600160a01b03191690559091019091556040516001600160a01b03871681527f29ef6e5e7533f5e04f1729a119b0acf31837e10f8a66e61d22dedd180d0221e9910160405180910390a15050505050565b6060611fb783835f6120b2565b9392505050565b806001600160a01b03163b5f03611ff357604051634c9c8ce360e01b81526001600160a01b0382166004820152602401610ea9565b5f8051602061292883398151915280546001600160a01b0319166001600160a01b0392909216919091179055565b60605f80846001600160a01b03168460405161203d91906128cc565b5f60405180830381855af49150503d805f8114612075576040519150601f19603f3d011682016040523d82523d5f602084013e61207a565b606091505b509150915061208a85838361214b565b95945050505050565b3415610bdf5760405163b398979f60e01b815260040160405180910390fd5b6060814710156120d75760405163cd78605960e01b8152306004820152602401610ea9565b5f80856001600160a01b031684866040516120f291906128cc565b5f6040518083038185875af1925050503d805f811461212c576040519150601f19603f3d011682016040523d82523d5f602084013e612131565b606091505b509150915061214186838361214b565b9695505050505050565b6060826121605761215b826121a7565b611fb7565b815115801561217757506001600160a01b0384163b155b156121a057604051639996b31560e01b81526001600160a01b0385166004820152602401610ea9565b5080611fb7565b8051156121b75780518082602001fd5b604051630a12f52160e11b815260040160405180910390fd5b5f602082840312156121e0575f80fd5b81356001600160e01b031981168114611fb7575f80fd5b6001600160a01b0381168114610c4b575f80fd5b5f8083601f84011261221b575f80fd5b5081356001600160401b03811115612231575f80fd5b6020830191508360208260051b850101111561224b575f80fd5b9250929050565b5f805f805f805f805f60c08a8c03121561226a575f80fd5b8935612275816121f7565b985060208a0135612285816121f7565b975060408a01356001600160401b0381111561229f575f80fd5b6122ab8c828d0161220b565b90985096505060608a01356001600160401b038111156122c9575f80fd5b8a01601f81018c136122d9575f80fd5b80356001600160401b038111156122ee575f80fd5b8c6020606083028401011115612302575f80fd5b6020919091019550935060808a01356001600160401b03811115612324575f80fd5b6123308c828d0161220b565b9a9d999c50979a9699959894979660a00135949350505050565b5f5b8381101561236457818101518382015260200161234c565b50505f910152565b5f815180845261238381602086016020860161234a565b601f01601f19169290920160200192915050565b5f602082016020835280845180835260408501915060408160051b8601019250602086015f5b8281101561243557868503603f19018452815180516001600160a01b031686526020808201516080918801829052906123f89088018261236c565b905060408201518782036040890152612411828261236c565b606093840151989093019790975250945060209384019391909101906001016123bd565b50929695505050505050565b5f60208284031215612451575f80fd5b8135611fb7816121f7565b5f6020828403121561246c575f80fd5b5035919050565b5f8060408385031215612484575f80fd5b823591506020830135612496816121f7565b809150509250929050565b5f80604083850312156124b2575f80fd5b82356124bd816121f7565b946020939093013593505050565b634e487b7160e01b5f52604160045260245ffd5b604051601f8201601f191681016001600160401b0381118282101715612507576125076124cb565b604052919050565b5f6001600160401b03821115612527576125276124cb565b50601f01601f191660200190565b5f8060408385031215612546575f80fd5b8235612551816121f7565b915060208301356001600160401b0381111561256b575f80fd5b8301601f8101851361257b575f80fd5b803561258e6125898261250f565b6124df565b8181528660208385010111156125a2575f80fd5b816020840160208301375f602083830101528093505050509250929050565b602080825282518282018190525f918401906040840190835b818110156126015783516001600160a01b03168352602093840193909201916001016125da565b509095945050505050565b5f60a0828403121561261c575f80fd5b60405160a081016001600160401b038111828210171561263e5761263e6124cb565b604052905080823561264f816121f7565b8152602083013561265f816121f7565b602082015260408381013590820152606083013561267c816121f7565b6060820152608092830135920191909152919050565b5f805f60e084860312156126a4575f80fd5b83356126af816121f7565b925060208401356126bf816121f7565b91506126ce856040860161260c565b90509250925092565b602081525f611fb7602083018461236c565b5f8060c083850312156126fa575f80fd5b8235612705816121f7565b9150612714846020850161260c565b90509250929050565b8015158114610c4b575f80fd5b5f805f806080858703121561273d575f80fd5b8435612748816121f7565b935060208501356127588161271d565b93969395505050506040820135916060013590565b5f806040838503121561277e575f80fd5b8235612789816121f7565b91506020830135612496816121f7565b634e487b7160e01b5f52603260045260245ffd5b5f602082840312156127bd575f80fd5b8135611fb78161271d565b5f602082840312156127d8575f80fd5b81516001600160401b038111156127ed575f80fd5b8201601f810184136127fd575f80fd5b805161280b6125898261250f565b81815285602083850101111561281f575f80fd5b61208a82602083016020860161234a565b5f60208284031215612840575f80fd5b5051919050565b602080825260029082015261535360f01b604082015260600190565b634e487b7160e01b5f52601160045260245ffd5b8082018082111561066457610664612863565b8181038181111561066457610664612863565b5f602082840312156128ad575f80fd5b8151611fb78161271d565b634e487b7160e01b5f52603160045260245ffd5b5f82516128dd81846020870161234a565b919091019291505056fe77dc539bf9c224afa178d31bf07d5109c2b5c5e56656e49b25e507fec3a69f0138361881985b0f585e6124dca158a3af102bffba0feb9c42b0b40825f41a3300360894a13ba1a3210667c828492db98dca3e2076cc3735a920a3ca505d382bbc02dd7bc7dec4dceedda775e58dd541e08a116c6c53815c0bd028192f7b626800cd5ed15c6e187e77e9aee88184c21f4f2182ab5827cb3b7e07fbedcd63f03300724f6a44d576143e18c60911798b2b15551ca96bd8f7cb7524b8fa36253a26d8339759585899103d2ace64958e37e18ccb0504652c81d4a1b8aa80fe2126ab95a164736f6c634300081a000a",
        "nonce": "0x3c",
        "chainId": "0x7e1"
      },
      "additionalContracts": [],
      "isFixedGasLimit": false
    },
    {
      "hash": "0x3ebb77d88c93775ca678a96751d9e9c6ec8f27165f498922d3b6e3716d7f09a8",
      "transactionType": "CREATE2",
      "contractName": "ERC1967Proxy",
      "contractAddress": "0x0e26ade1f5a99bd6b5d40f870a87bfe143db68b6",
      "function": null,
      "arguments": [
        "0x857721c881fc26E4664a9685D8650c0505997672",
        "0x104430b6000000000000000000000000c1612c97537c2cc62a11fc4516367ab6f62d4b23000000000000000000000000c1612c97537c2cc62a11fc4516367ab6f62d4b2300000000000000000000000000000000000000000000000000000000000000c0000000000000000000000000000000000000000000000000000000000000022000000000000000000000000000000000000000000000000000000000000006000000000000000000000000000000000000000000000000000000000005f5e100000000000000000000000000000000000000000000000000000000000000000a00000000000000000000000025d45a942405834b963c84b66418514c81b2f8c70000000000000000000000005fe291dd7b6a35502a51814df5e51a461b9c085f0000000000000000000000003a60acd97fea737ddd3e8fb2070601c19ac22699000000000000000000000000f84548d35a90d8b107019478188a3791f3b8f6c10000000000000000000000005cc307482eaba4c03526c00b6d6f5e05949550d90000000000000000000000007e27fc84da5e35097982fda7b2c93e8ce4fb5817000000000000000000000000c8156af812714b8cedb540adec69fc104d99930b000000000000000000000000989251ff79b744736a91c617dde3d3b5da2c09ef000000000000000000000000356ccc8a7cbe1eadf0282e6c23278b0e67fb3f910000000000000000000000005404f8b4f4625cff045a3076bc28c250a71e4507000000000000000000000000000000000000000000000000000000000000000a0000000000000000000000000000000000000000000000000000000000000001ffffffffffffffffffffffffffffffffffffffffffffffffffffffffffffffff00000000000000000000000000000000000000000000000000000000000003e80000000000000000000000000000000000000000000000000000000000000001ffffffffffffffffffffffffffffffffffffffffffffffffffffffffffffffff00000000000000000000000000000000000000000000000000000000000003e80000000000000000000000000000000000000000000000000000000000000001ffffffffffffffffffffffffffffffffffffffffffffffffffffffffffffffff00000000000000000000000000000000000000000000000000000000000003e80000000000000000000000000000000000000000000000000000000000000001ffffffffffffffffffffffffffffffffffffffffffffffffffffffffffffffff00000000000000000000000000000000000000000000000000000000000003e80000000000000000000000000000000000000000000000000000000000000001ffffffffffffffffffffffffffffffffffffffffffffffffffffffffffffffff00000000000000000000000000000000000000000000000000000000000003e80000000000000000000000000000000000000000000000000000000000000001ffffffffffffffffffffffffffffffffffffffffffffffffffffffffffffffff00000000000000000000000000000000000000000000000000000000000003e80000000000000000000000000000000000000000000000000000000000000001ffffffffffffffffffffffffffffffffffffffffffffffffffffffffffffffff00000000000000000000000000000000000000000000000000000000000003e80000000000000000000000000000000000000000000000000000000000000001ffffffffffffffffffffffffffffffffffffffffffffffffffffffffffffffff00000000000000000000000000000000000000000000000000000000000003e80000000000000000000000000000000000000000000000000000000000000001ffffffffffffffffffffffffffffffffffffffffffffffffffffffffffffffff00000000000000000000000000000000000000000000000000000000000003e80000000000000000000000000000000000000000000000000000000000000001ffffffffffffffffffffffffffffffffffffffffffffffffffffffffffffffff00000000000000000000000000000000000000000000000000000000000003e80000000000000000000000000000000000000000000000000000000000000004000000000000000000000000e626ce81714cb7777b1bf8ad2323963fb3398ad5000000000000000000000000b3fabbd1d2edde4d9ced3ce352859ce1bebf7907000000000000000000000000a3478861957661b2d8974d9309646a71271d98b9000000000000000000000000e69151677e5aec0b4fc0a94bfcaf20f6f0f975eb"
      ],
      "transaction": {
        "from": "0xc1612c97537c2cc62a11fc4516367ab6f62d4b23",
        "to": "0x4e59b44847b379578588920ca78fbf26c0b4956c",
        "gas": "0x1d38d7",
        "value": "0x0",
        "input": "0x537461626c65636f696e4d616e6167657200000000000000000000000000000060806040526040516103cd3803806103cd8339810160408190526100229161025e565b61002c8282610033565b5050610347565b61003c82610091565b6040516001600160a01b038316907fbc7cd75a20ee27fd9adebab32041f755214dbc6bffa90cc0225b39da2e5c2d3b905f90a280511561008557610080828261010c565b505050565b61008d61017f565b5050565b806001600160a01b03163b5f036100cb57604051634c9c8ce360e01b81526001600160a01b03821660048201526024015b60405180910390fd5b7f360894a13ba1a3210667c828492db98dca3e2076cc3735a920a3ca505d382bbc80546001600160a01b0319166001600160a01b0392909216919091179055565b60605f80846001600160a01b031684604051610128919061032c565b5f60405180830381855af49150503d805f8114610160576040519150601f19603f3d011682016040523d82523d5f602084013e610165565b606091505b5090925090506101768583836101a0565b95945050505050565b341561019e5760405163b398979f60e01b815260040160405180910390fd5b565b6060826101b5576101b0826101ff565b6101f8565b81511580156101cc57506001600160a01b0384163b155b156101f557604051639996b31560e01b81526001600160a01b03851660048201526024016100c2565b50805b9392505050565b80511561020f5780518082602001fd5b604051630a12f52160e11b815260040160405180910390fd5b634e487b7160e01b5f52604160045260245ffd5b5f5b8381101561025657818101518382015260200161023e565b50505f910152565b5f806040838503121561026f575f80fd5b82516001600160a01b0381168114610285575f80fd5b60208401519092506001600160401b038111156102a0575f80fd5b8301601f810185136102b0575f80fd5b80516001600160401b038111156102c9576102c9610228565b604051601f8201601f19908116603f011681016001600160401b03811182821017156102f7576102f7610228565b60405281815282820160200187101561030e575f80fd5b61031f82602083016020860161023c565b8093505050509250929050565b5f825161033d81846020870161023c565b9190910192915050565b607a806103535f395ff3fe6080604052600a600c565b005b60186014601a565b6050565b565b5f604b7f360894a13ba1a3210667c828492db98dca3e2076cc3735a920a3ca505d382bbc546001600160a01b031690565b905090565b365f80375f80365f845af43d5f803e8080156069573d5ff35b3d5ffdfea164736f6c634300081a000a000000000000000000000000857721c881fc26e4664a9685d8650c0505997672000000000000000000000000000000000000000000000000000000000000004000000000000000000000000000000000000000000000000000000000000006a4104430b6000000000000000000000000c1612c97537c2cc62a11fc4516367ab6f62d4b23000000000000000000000000c1612c97537c2cc62a11fc4516367ab6f62d4b2300000000000000000000000000000000000000000000000000000000000000c0000000000000000000000000000000000000000000000000000000000000022000000000000000000000000000000000000000000000000000000000000006000000000000000000000000000000000000000000000000000000000005f5e100000000000000000000000000000000000000000000000000000000000000000a00000000000000000000000025d45a942405834b963c84b66418514c81b2f8c70000000000000000000000005fe291dd7b6a35502a51814df5e51a461b9c085f0000000000000000000000003a60acd97fea737ddd3e8fb2070601c19ac22699000000000000000000000000f84548d35a90d8b107019478188a3791f3b8f6c10000000000000000000000005cc307482eaba4c03526c00b6d6f5e05949550d90000000000000000000000007e27fc84da5e35097982fda7b2c93e8ce4fb5817000000000000000000000000c8156af812714b8cedb540adec69fc104d99930b000000000000000000000000989251ff79b744736a91c617dde3d3b5da2c09ef000000000000000000000000356ccc8a7cbe1eadf0282e6c23278b0e67fb3f910000000000000000000000005404f8b4f4625cff045a3076bc28c250a71e4507000000000000000000000000000000000000000000000000000000000000000a0000000000000000000000000000000000000000000000000000000000000001ffffffffffffffffffffffffffffffffffffffffffffffffffffffffffffffff00000000000000000000000000000000000000000000000000000000000003e80000000000000000000000000000000000000000000000000000000000000001ffffffffffffffffffffffffffffffffffffffffffffffffffffffffffffffff00000000000000000000000000000000000000000000000000000000000003e80000000000000000000000000000000000000000000000000000000000000001ffffffffffffffffffffffffffffffffffffffffffffffffffffffffffffffff00000000000000000000000000000000000000000000000000000000000003e80000000000000000000000000000000000000000000000000000000000000001ffffffffffffffffffffffffffffffffffffffffffffffffffffffffffffffff00000000000000000000000000000000000000000000000000000000000003e80000000000000000000000000000000000000000000000000000000000000001ffffffffffffffffffffffffffffffffffffffffffffffffffffffffffffffff00000000000000000000000000000000000000000000000000000000000003e80000000000000000000000000000000000000000000000000000000000000001ffffffffffffffffffffffffffffffffffffffffffffffffffffffffffffffff00000000000000000000000000000000000000000000000000000000000003e80000000000000000000000000000000000000000000000000000000000000001ffffffffffffffffffffffffffffffffffffffffffffffffffffffffffffffff00000000000000000000000000000000000000000000000000000000000003e80000000000000000000000000000000000000000000000000000000000000001ffffffffffffffffffffffffffffffffffffffffffffffffffffffffffffffff00000000000000000000000000000000000000000000000000000000000003e80000000000000000000000000000000000000000000000000000000000000001ffffffffffffffffffffffffffffffffffffffffffffffffffffffffffffffff00000000000000000000000000000000000000000000000000000000000003e80000000000000000000000000000000000000000000000000000000000000001ffffffffffffffffffffffffffffffffffffffffffffffffffffffffffffffff00000000000000000000000000000000000000000000000000000000000003e80000000000000000000000000000000000000000000000000000000000000004000000000000000000000000e626ce81714cb7777b1bf8ad2323963fb3398ad5000000000000000000000000b3fabbd1d2edde4d9ced3ce352859ce1bebf7907000000000000000000000000a3478861957661b2d8974d9309646a71271d98b9000000000000000000000000e69151677e5aec0b4fc0a94bfcaf20f6f0f975eb00000000000000000000000000000000000000000000000000000000",
        "nonce": "0x3d",
        "chainId": "0x7e1"
      },
      "additionalContracts": [],
      "isFixedGasLimit": false
    },
    {
      "hash": "0x2b280166f8618dcb14459a30c0a4d9e396c11c90701f999bba14dd0d545006c5",
      "transactionType": "CREATE2",
      "contractName": "StablecoinManager",
      "contractAddress": "0x2745c660f10c77cf6c9668b4578f1c6956b70207",
      "function": null,
      "arguments": null,
      "transaction": {
        "from": "0xc1612c97537c2cc62a11fc4516367ab6f62d4b23",
        "to": "0x4e59b44847b379578588920ca78fbf26c0b4956c",
        "gas": "0x3e02f1",
        "value": "0x0",
        "input": "0x537461626c65636f696e4d616e6167657200000000000000000000000000000060a0604052306080523480156012575f80fd5b506080516131246100395f395f8181611cba01528181611ce30152611e2401526131245ff3fe60806040526004361061022b575f3560e01c8063817204a411610129578063ad3cb1cc116100a8578063df668eca1161006d578063df668eca14610696578063e63ab1e9146106b6578063e9aea396146106e9578063eb3839a714610708578063f874225414610727575f80fd5b8063ad3cb1cc146105dd578063b4fc13351461061a578063c057bd6b14610639578063c5b059e714610658578063d547741f14610677575f80fd5b8063956794b1116100ee578063956794b11461054e578063959042a21461056d5780639ef841731461058c578063a0eba21a146105ab578063a217fddf146105ca575f80fd5b8063817204a4146104c85780638456cb59146104e85780638e13c58e146104fc57806391d148541461051b578063924855fa1461053a575f80fd5b80633f4ba83a116101b557806352d1902d1161017a57806352d1902d14610431578063543f8c58146104455780635c975abb1461046457806369e2fda4146104875780637ad73baf146104a8575f80fd5b80633f4ba83a1461039957806340c66f78146103ad57806345c7c793146103cc5780634f1ef286146103ff5780634f9c2c2614610412575f80fd5b806320b2cf9f116101fb57806320b2cf9f146102ef578063248a9ca31461031a5780632f2ff15d146103475780633598e3dc1461036657806336568abe1461037a575f80fd5b806301ffc9a71461023657806316ada6b11461026a5780631a0d6c2e1461028b5780631a95e05d146102ac575f80fd5b3661023257005b5f80fd5b348015610241575f80fd5b50610255610250366004612968565b610747565b60405190151581526020015b60405180910390f35b348015610275575f80fd5b5061028961028436600461298f565b61077d565b005b348015610296575f80fd5b5061029f6109d9565b6040516102619190612a13565b3480156102b7575f80fd5b506102556102c6366004612ad1565b6001600160a01b03165f9081525f80516020612fd8833981519152602052604090205460ff1690565b3480156102fa575f80fd5b506103025f81565b6040516001600160a01b039091168152602001610261565b348015610325575f80fd5b50610339610334366004612aec565b610c5b565b604051908152602001610261565b348015610352575f80fd5b50610289610361366004612b03565b610c7b565b348015610371575f80fd5b50610289610c9d565b348015610385575f80fd5b50610289610394366004612b03565b610caf565b3480156103a4575f80fd5b50610289610ce7565b3480156103b8575f80fd5b506102896103c7366004612b31565b610d1c565b3480156103d7575f80fd5b506103397faecf5761d3ba769b4631978eb26cb84eae66bcaca9c3f0f4ecde3feb2f4cf14481565b61028961040d366004612bc5565b610dbb565b34801561041d575f80fd5b5061033961042c366004612ad1565b610dda565b34801561043c575f80fd5b50610339610e03565b348015610450575f80fd5b5061028961045f366004612aec565b610e1e565b34801561046f575f80fd5b505f805160206130788339815191525460ff16610255565b348015610492575f80fd5b5061049b610e66565b6040516102619190612c51565b3480156104b3575f80fd5b505f805160206130d883398151915254610339565b3480156104d3575f80fd5b505f80516020612ff883398151915254610339565b3480156104f3575f80fd5b50610289610fd4565b348015610507575f80fd5b50610289610516366004612d22565b611006565b348015610526575f80fd5b50610255610535366004612b03565b6111e0565b348015610545575f80fd5b50610289611216565b348015610559575f80fd5b50610339610568366004612ad1565b611226565b348015610578575f80fd5b50610289610587366004612aec565b61124f565b348015610597575f80fd5b506102896105a6366004612d22565b611292565b3480156105b6575f80fd5b506102896105c5366004612aec565b611464565b3480156105d5575f80fd5b506103395f81565b3480156105e8575f80fd5b5061060d604051806040016040528060058152602001640352e302e360dc1b81525081565b6040516102619190612d67565b348015610625575f80fd5b50610255610634366004612ad1565b6114a3565b348015610644575f80fd5b50610289610653366004612d79565b611566565b348015610663575f80fd5b50610339610672366004612dad565b61182f565b348015610682575f80fd5b50610289610691366004612b03565b611879565b3480156106a1575f80fd5b506103395f805160206130b883398151915281565b3480156106c1575f80fd5b506103397f65d7a28e3265b37a6474929f336521b332c1681b933f6cb9f3376673440d862a81565b3480156106f4575f80fd5b50610289610703366004612de6565b611895565b348015610713575f80fd5b50610289610722366004612dad565b6118fc565b348015610732575f80fd5b506103395f805160206130f883398151915281565b5f6001600160e01b03198216637965db0b60e01b148061077757506301ffc9a760e01b6001600160e01b03198316145b92915050565b5f805160206130988339815191528054600160401b810460ff1615906001600160401b03165f811580156107ae5750825b90505f826001600160401b031660011480156107c95750303b155b9050811580156107d7575080155b156107f55760405163f92ee8a960e01b815260040160405180910390fd5b845467ffffffffffffffff19166001178555831561081f57845460ff60401b1916600160401b1785555b610827611216565b6108398660c001358760e00135611930565b6108636127107f331c20f00e5afe412d6bf194b51e8f2d981ce2eedc3a9ed8e5a5801a2017e90255565b6108725f60015f196001611895565b5f5b6108816040880188612e29565b90508110156108d8576108d061089a6040890189612e29565b838181106108aa576108aa612e75565b90506020020160208101906108bf9190612ad1565b600189606001358a60800135611895565b600101610874565b506108ef5f6108ea6020890189612ad1565b611a33565b506109115f805160206130f88339815191526108ea6040890160208a01612ad1565b505f5b61092160a0880188612e29565b9050811015610989576109807faecf5761d3ba769b4631978eb26cb84eae66bcaca9c3f0f4ecde3feb2f4cf14461095b60a08a018a612e29565b8481811061096b5761096b612e75565b90506020020160208101906108ea9190612ad1565b50600101610914565b5083156109d157845460ff60401b19168555604051600181527fc7f505b2f371ae2175ee4913f4499e1f2633a7b5936321eed1cdaeb6115181d2906020015b60405180910390a15b505050505050565b60605f6109e4610e66565b905080516001600160401b038111156109ff576109ff612b5b565b604051908082528060200260200182016040528015610a6257816020015b610a4f60405180608001604052805f6001600160a01b0316815260200160608152602001606081526020015f81525090565b815260200190600190039081610a1d5790505b5091505f5b8151811015610c56575f828281518110610a8357610a83612e75565b60200260200101516001600160a01b03166306fdde036040518163ffffffff1660e01b81526004015f60405180830381865afa158015610ac5573d5f803e3d5ffd5b505050506040513d5f823e601f3d908101601f19168201604052610aec9190810190612e89565b90505f838381518110610b0157610b01612e75565b60200260200101516001600160a01b03166395d89b416040518163ffffffff1660e01b81526004015f60405180830381865afa158015610b43573d5f803e3d5ffd5b505050506040513d5f823e601f3d908101601f19168201604052610b6a9190810190612e89565b90505f848481518110610b7f57610b7f612e75565b60200260200101516001600160a01b031663313ce5676040518163ffffffff1660e01b8152600401602060405180830381865afa158015610bc2573d5f803e3d5ffd5b505050506040513d601f19601f82011682018060405250810190610be69190612ef1565b90506040518060800160405280868681518110610c0557610c05612e75565b60200260200101516001600160a01b0316815260200184815260200183815260200182815250868581518110610c3d57610c3d612e75565b6020026020010181905250505050806001019050610a67565b505090565b5f9081525f80516020613058833981519152602052604090206001015490565b610c8482610c5b565b610c8d81611ad4565b610c978383611a33565b50505050565b610ca5611b32565b610cad611b68565b565b6001600160a01b0381163314610cd85760405163334bd91960e11b815260040160405180910390fd5b610ce28282611b78565b505050565b7f65d7a28e3265b37a6474929f336521b332c1681b933f6cb9f3376673440d862a610d1181611ad4565b610d19611bf1565b50565b5f805160206130f8833981519152610d3381611ad4565b6001600160a01b038316610da7576040515f90339084908381818185875af1925050503d805f8114610d80576040519150601f19603f3d011682016040523d82523d5f602084013e610d85565b606091505b5050905080610c9757604051633acddfc160e21b815260040160405180910390fd5b610ce26001600160a01b0384163384611c50565b610dc3611caf565b610dcc82611d53565b610dd68282611d5d565b5050565b6001600160a01b03165f9081525f80516020612fd8833981519152602052604090206001015490565b5f610e0c611e19565b505f8051602061301883398151915290565b5f805160206130f8833981519152610e3581611ad4565b815f03610e5d5760405163e5f9b6ad60e01b8152600481018390526024015b60405180910390fd5b610dd682611e62565b5f80516020613038833981519152805460408051602080840282018101909252828152606093925f92849190830182828015610ec957602002820191905f5260205f20905b81546001600160a01b03168152600190910190602001808311610eab575b5050505050905080515f03610eed575050604080515f815260208101909152919050565b5f80610ef883611eab565b9150915081610f0a5750909392505050565b5f60018451610f199190612f1c565b9050806001600160401b03811115610f3357610f33612b5b565b604051908082528060200260200182016040528015610f5c578160200160208202803683370190505b5095505f805b8551811015610fca57808414610fc257858181518110610f8457610f84612e75565b6020026020010151888381518110610f9e57610f9e612e75565b6001600160a01b0390921660209283029190910190910152610fbf82612f2f565b91505b600101610f62565b5050505050505090565b7f65d7a28e3265b37a6474929f336521b332c1681b933f6cb9f3376673440d862a610ffe81611ad4565b610d19611f0d565b61100e611f55565b805181906001600160a01b03161580611032575060208101516001600160a01b0316155b8061103f57506040810151155b80611055575060608101516001600160a01b0316155b8061106257506080810151155b15611080576040516326401ebb60e01b8152600401610e5490612f47565b5f805160206130b883398151915261109781611ad4565b6110a48360600151610dda565b836080015184606001516001600160a01b03166318160ddd6040518163ffffffff1660e01b8152600401602060405180830381865afa1580156110e9573d5f803e3d5ffd5b505050506040513d601f19601f8201168201806040525081019061110d9190612ef1565b6111179190612f63565b11156111475760608301516040516318c0142960e11b81526001600160a01b039091166004820152602401610e54565b61116f8585856040015186602001516001600160a01b0316611f85909392919063ffffffff16565b6060830151835160808501516040516308934a5f60e31b81526001600160a01b039283166004820152602481019190915291169063449a52f8906044015f604051808303815f87803b1580156111c3575f80fd5b505af11580156111d5573d5f803e3d5ffd5b505050505050505050565b5f9182525f80516020613058833981519152602090815260408084206001600160a01b0393909316845291905290205460ff1690565b61121e611b32565b610cad610c9d565b6001600160a01b03165f9081525f80516020612fd8833981519152602052604090206002015490565b5f805160206130f883398151915261126681611ad4565b815f036112895760405163e5f9b6ad60e01b815260048101839052602401610e54565b610dd682611fbe565b61129a611f55565b805181906001600160a01b031615806112be575060208101516001600160a01b0316155b806112cb57506040810151155b806112e1575060608101516001600160a01b0316155b806112ee57506080810151155b1561130c576040516326401ebb60e01b8152600401610e5490612f47565b5f805160206130b883398151915261132381611ad4565b6113308360200151611226565b836040015184602001516001600160a01b03166318160ddd6040518163ffffffff1660e01b8152600401602060405180830381865afa158015611375573d5f803e3d5ffd5b505050506040513d601f19601f820116820180604052508101906113999190612ef1565b6113a39190612f1c565b10156113d35760208301516040516318c0142960e11b81526001600160a01b039091166004820152602401610e54565b6020830151604080850151905163079cc67960e41b81526001600160a01b03888116600483015260248201929092529116906379cc6790906044015f604051808303815f87803b158015611425575f80fd5b505af1158015611437573d5f803e3d5ffd5b505084516080860151606087015161145d94506001600160a01b03169250879190611f85565b5050505050565b5f805160206130f883398151915261147b81611ad4565b610dd6827f331c20f00e5afe412d6bf194b51e8f2d981ce2eedc3a9ed8e5a5801a2017e90255565b5f805160206130388339815191528054604080516020808402820181019092528281525f9392849284919083018282801561150557602002820191905f5260205f20905b81546001600160a01b031681526001909101906020018083116114e7575b505050505090505f5b815181101561155c57846001600160a01b031682828151811061153357611533612e75565b60200260200101516001600160a01b03160361155457506001949350505050565b60010161150e565b505f949350505050565b61156e611f55565b805181906001600160a01b03161580611592575060208101516001600160a01b0316155b8061159f57506040810151155b806115b5575060608101516001600160a01b0316155b806115c257506080810151155b156115e0576040516326401ebb60e01b8152600401610e5490612f47565b5f805160206130b88339815191526115f781611ad4565b6116048360200151611226565b836040015184602001516001600160a01b03166318160ddd6040518163ffffffff1660e01b8152600401602060405180830381865afa158015611649573d5f803e3d5ffd5b505050506040513d601f19601f8201168201806040525081019061166d9190612ef1565b6116779190612f1c565b10156116a75760208301516040516318c0142960e11b81526001600160a01b039091166004820152602401610e54565b6116b48360600151610dda565b836080015184606001516001600160a01b03166318160ddd6040518163ffffffff1660e01b8152600401602060405180830381865afa1580156116f9573d5f803e3d5ffd5b505050506040513d601f19601f8201168201806040525081019061171d9190612ef1565b6117279190612f63565b11156117575760608301516040516318c0142960e11b81526001600160a01b039091166004820152602401610e54565b6020830151604080850151905163079cc67960e41b81526001600160a01b03878116600483015260248201929092529116906379cc6790906044015f604051808303815f87803b1580156117a9575f80fd5b505af11580156117bb573d5f803e3d5ffd5b505050506060830151835160808501516040516308934a5f60e31b81526001600160a01b039283166004820152602481019190915291169063449a52f8906044015f604051808303815f87803b158015611813575f80fd5b505af1158015611825573d5f803e3d5ffd5b5050505050505050565b6001600160a01b039081165f9081527f331c20f00e5afe412d6bf194b51e8f2d981ce2eedc3a9ed8e5a5801a2017e903602090815260408083209490931682529290925290205490565b61188282610c5b565b61188b81611ad4565b610c978383611b78565b5f805160206130f88339815191526118ac81611ad4565b8380156118bd57506118bd856114a3565b156118e65760405163017e790360e31b81526001600160a01b0386166004820152602401610e54565b6118f0858561200e565b61145d8585858561202a565b7faecf5761d3ba769b4631978eb26cb84eae66bcaca9c3f0f4ecde3feb2f4cf14461192681611ad4565b610ce2838361213b565b5f805160206130988339815191528054600160401b810460ff1615906001600160401b03165f811580156119615750825b90505f826001600160401b0316600114801561197c5750303b155b90508115801561198a575080155b156119a85760405163f92ee8a960e01b815260040160405180910390fd5b845467ffffffffffffffff1916600117855583156119d257845460ff60401b1916600160401b1785555b6119db87611e62565b6119e486611fbe565b8315611a2a57845460ff60401b19168555604051600181527fc7f505b2f371ae2175ee4913f4499e1f2633a7b5936321eed1cdaeb6115181d29060200160405180910390a15b50505050505050565b5f5f80516020613058833981519152611a4c84846111e0565b611acb575f848152602082815260408083206001600160a01b03871684529091529020805460ff19166001179055611a813390565b6001600160a01b0316836001600160a01b0316857f2f8788117e7eff1d82e926ec794901d17c78024a50270940304540a733656f0d60405160405180910390a46001915050610777565b5f915050610777565b335f611ae083836111e0565b80611b0057505f8051602061309883398151915254600160401b900460ff165b905080610ce25760405163e2517d3f60e01b81526001600160a01b038316600482015260248101849052604401610e54565b5f8051602061309883398151915254600160401b900460ff16610cad57604051631afcd79f60e31b815260040160405180910390fd5b611b70611b32565b610cad612195565b5f5f80516020613058833981519152611b9184846111e0565b15611acb575f848152602082815260408083206001600160a01b0387168085529252808320805460ff1916905551339287917ff6391f5c32d9c69d2a47ea670b442974b53935d1edc7fd64eb21e047a839171b9190a46001915050610777565b611bf96121b5565b5f80516020613078833981519152805460ff191681557f5db9ee0a495bf2e6ff9c91a7834c1ba4fdd244a5e8aa4e537bd38aeae4b073aa335b6040516001600160a01b03909116815260200160405180910390a150565b6040516001600160a01b03838116602483015260448201839052610ce291859182169063a9059cbb906064015b604051602081830303815290604052915060e01b6020820180516001600160e01b0383818316178352505050506121e4565b306001600160a01b037f0000000000000000000000000000000000000000000000000000000000000000161480611d3557507f00000000000000000000000000000000000000000000000000000000000000006001600160a01b0316611d295f80516020613018833981519152546001600160a01b031690565b6001600160a01b031614155b15610cad5760405163703e46dd60e11b815260040160405180910390fd5b5f610dd681611ad4565b816001600160a01b03166352d1902d6040518163ffffffff1660e01b8152600401602060405180830381865afa925050508015611db7575060408051601f3d908101601f19168201909252611db491810190612ef1565b60015b611ddf57604051634c9c8ce360e01b81526001600160a01b0383166004820152602401610e54565b5f805160206130188339815191528114611e0f57604051632a87526960e21b815260048101829052602401610e54565b610ce28383612245565b306001600160a01b037f00000000000000000000000000000000000000000000000000000000000000001614610cad5760405163703e46dd60e11b815260040160405180910390fd5b5f80516020612ff88339815191528181556040518281527f33f3faee0788ab897d8f674abe1dde6d93ba901e4a1502161294734ba178e3c7906020015b60405180910390a15050565b5f805f5b8351811015611efe575f6001600160a01b0316848281518110611ed457611ed4612e75565b60200260200101516001600160a01b031603611ef65760019250809150611efe565b600101611eaf565b5081611f0857505f195b915091565b611f15611f55565b5f80516020613078833981519152805460ff191660011781557f62e78cea01bee320cd4e420270b5ea74000d11b0c9f74754ebdbfc544b05a25833611c32565b5f805160206130788339815191525460ff1615610cad5760405163d93c066560e01b815260040160405180910390fd5b6040516001600160a01b038481166024830152838116604483015260648201839052610c979186918216906323b872dd90608401611c7d565b5f805160206130d88339815191528190556040518181525f80516020612ff8833981519152907fbf420dc53ff33cecece09463750eae7694a8fe807007924887a27dd11a0df04890602001611e9f565b80151560010361202157610dd68261229a565b610dd682612322565b5f805160206130f883398151915261204181611ad4565b8183116120b65760405162461bcd60e51b815260206004820152603d60248201527f537461626c65636f696e48616e646c65723a207570706572626f756e64206d7560448201527f73742062652067726561746572207468616e206c6f776572626f756e640000006064820152608401610e54565b6001600160a01b0385165f8181525f80516020612fd88339815191526020818152604092839020805460ff1916891515908117825560018201899055600290910187905583519485529084015290820185905260608201849052907f84f12763861d318f97fe38a0e6f70b46f0566462d67561978f0f4dff814031df906080016109c8565b61214582826124ee565b6001600160a01b038082165f9081527f331c20f00e5afe412d6bf194b51e8f2d981ce2eedc3a9ed8e5a5801a2017e90360209081526040808320938616835292905220429055610dd68282612569565b61219d611b32565b5f80516020613078833981519152805460ff19169055565b5f805160206130788339815191525460ff16610cad57604051638dfc202b60e01b815260040160405180910390fd5b5f6121f86001600160a01b038416836126c6565b905080515f1415801561221c57508080602001905181019061221a9190612f76565b155b15610ce257604051635274afe760e01b81526001600160a01b0384166004820152602401610e54565b61224e826126da565b6040516001600160a01b038316907fbc7cd75a20ee27fd9adebab32041f755214dbc6bffa90cc0225b39da2e5c2d3b905f90a280511561229257610ce2828261273d565b610dd66127af565b5f8051602061303883398151915280546001810182555f8290527f7e20de35e2cca1b91743fd09589d05b1415d23ef62d96d86c8e1bc09ee225f0f0180546001600160a01b0319166001600160a01b0384169081179091556040519081527fc039c75cef0904723584eecbad08281b7298a16c9fadc7dbbb576359df79c1de90602001611e9f565b5f805160206130388339815191528054604080516020808402820181019092528281525f92909184919083018282801561238357602002820191905f5260205f20905b81546001600160a01b03168152600190910190602001808311612365575b505050505090505f5f1990505f5b82518110156123d857846001600160a01b03168382815181106123b6576123b6612e75565b60200260200101516001600160a01b0316036123d0578091505b600101612391565b505f19810361240557604051635ab8d72960e11b81526001600160a01b0385166004820152602401610e54565b5f600183516124149190612f1c565b90508082146124775782818151811061242f5761242f612e75565b6020026020010151845f01838154811061244b5761244b612e75565b905f5260205f20015f6101000a8154816001600160a01b0302191690836001600160a01b031602179055505b835484908061248857612488612f91565b5f8281526020908190205f19908301810180546001600160a01b03191690559091019091556040516001600160a01b03871681527f29ef6e5e7533f5e04f1729a119b0acf31837e10f8a66e61d22dedd180d0221e9910160405180910390a15050505050565b6124f7826114a3565b61251f57604051635ab8d72960e11b81526001600160a01b0383166004820152602401610e54565b5f61252a838361182f565b90506125398162015180612f63565b421015610ce25761254d8162015180612f63565b60405163737aab0d60e01b8152600401610e5491815260200190565b5f6001600160a01b03831661260557505f805160206130d8833981519152546040515f906001600160a01b0384169083908381818185875af1925050503d805f81146125d0576040519150601f19603f3d011682016040523d82523d5f602084013e6125d5565b606091505b50509050806125f757604051633acddfc160e21b815260040160405180910390fd5b6125ff6127ce565b50612676565b5f80516020612ff8833981519152546040516308934a5f60e31b81526001600160a01b038481166004830152602482018390529192509084169063449a52f8906044015f604051808303815f87803b15801561265f575f80fd5b505af1158015612671573d5f803e3d5ffd5b505050505b604080516001600160a01b038086168252841660208201529081018290527fdfc93ac43234c3993e5d23f2a1a4c52b2ac70f67cf1f534bd7ceb92328bf949a9060600160405180910390a1505050565b60606126d383835f61284a565b9392505050565b806001600160a01b03163b5f0361270f57604051634c9c8ce360e01b81526001600160a01b0382166004820152602401610e54565b5f8051602061301883398151915280546001600160a01b0319166001600160a01b0392909216919091179055565b60605f80846001600160a01b0316846040516127599190612fa5565b5f60405180830381855af49150503d805f8114612791576040519150601f19603f3d011682016040523d82523d5f602084013e612796565b606091505b50915091506127a68583836128e3565b95945050505050565b3415610cad5760405163b398979f60e01b815260040160405180910390fd5b5f6127f77f331c20f00e5afe412d6bf194b51e8f2d981ce2eedc3a9ed8e5a5801a2017e9025490565b90508061280f5f805160206130d88339815191525490565b6128199190612fc0565b4711610d19576040517f5591ba669ef796bed7d2409e80ed620b93401c29229618b279b31b41d64a1600905f90a150565b60608147101561286f5760405163cd78605960e01b8152306004820152602401610e54565b5f80856001600160a01b0316848660405161288a9190612fa5565b5f6040518083038185875af1925050503d805f81146128c4576040519150601f19603f3d011682016040523d82523d5f602084013e6128c9565b606091505b50915091506128d98683836128e3565b9695505050505050565b6060826128f8576128f38261293f565b6126d3565b815115801561290f57506001600160a01b0384163b155b1561293857604051639996b31560e01b81526001600160a01b0385166004820152602401610e54565b50806126d3565b80511561294f5780518082602001fd5b604051630a12f52160e11b815260040160405180910390fd5b5f60208284031215612978575f80fd5b81356001600160e01b0319811681146126d3575f80fd5b5f6020828403121561299f575f80fd5b81356001600160401b038111156129b4575f80fd5b820161010081850312156126d3575f80fd5b5f5b838110156129e05781810151838201526020016129c8565b50505f910152565b5f81518084526129ff8160208601602086016129c6565b601f01601f19169290920160200192915050565b5f602082016020835280845180835260408501915060408160051b8601019250602086015f5b82811015612ab157868503603f19018452815180516001600160a01b03168652602080820151608091880182905290612a74908801826129e8565b905060408201518782036040890152612a8d82826129e8565b60609384015198909301979097525094506020938401939190910190600101612a39565b50929695505050505050565b6001600160a01b0381168114610d19575f80fd5b5f60208284031215612ae1575f80fd5b81356126d381612abd565b5f60208284031215612afc575f80fd5b5035919050565b5f8060408385031215612b14575f80fd5b823591506020830135612b2681612abd565b809150509250929050565b5f8060408385031215612b42575f80fd5b8235612b4d81612abd565b946020939093013593505050565b634e487b7160e01b5f52604160045260245ffd5b604051601f8201601f191681016001600160401b0381118282101715612b9757612b97612b5b565b604052919050565b5f6001600160401b03821115612bb757612bb7612b5b565b50601f01601f191660200190565b5f8060408385031215612bd6575f80fd5b8235612be181612abd565b915060208301356001600160401b03811115612bfb575f80fd5b8301601f81018513612c0b575f80fd5b8035612c1e612c1982612b9f565b612b6f565b818152866020838501011115612c32575f80fd5b816020840160208301375f602083830101528093505050509250929050565b602080825282518282018190525f918401906040840190835b81811015612c915783516001600160a01b0316835260209384019390920191600101612c6a565b509095945050505050565b5f60a08284031215612cac575f80fd5b60405160a081016001600160401b0381118282101715612cce57612cce612b5b565b6040529050808235612cdf81612abd565b81526020830135612cef81612abd565b6020820152604083810135908201526060830135612d0c81612abd565b6060820152608092830135920191909152919050565b5f805f60e08486031215612d34575f80fd5b8335612d3f81612abd565b92506020840135612d4f81612abd565b9150612d5e8560408601612c9c565b90509250925092565b602081525f6126d360208301846129e8565b5f8060c08385031215612d8a575f80fd5b8235612d9581612abd565b9150612da48460208501612c9c565b90509250929050565b5f8060408385031215612dbe575f80fd5b8235612dc981612abd565b91506020830135612b2681612abd565b8015158114610d19575f80fd5b5f805f8060808587031215612df9575f80fd5b8435612e0481612abd565b93506020850135612e1481612dd9565b93969395505050506040820135916060013590565b5f808335601e19843603018112612e3e575f80fd5b8301803591506001600160401b03821115612e57575f80fd5b6020019150600581901b3603821315612e6e575f80fd5b9250929050565b634e487b7160e01b5f52603260045260245ffd5b5f60208284031215612e99575f80fd5b81516001600160401b03811115612eae575f80fd5b8201601f81018413612ebe575f80fd5b8051612ecc612c1982612b9f565b818152856020838501011115612ee0575f80fd5b6127a68260208301602086016129c6565b5f60208284031215612f01575f80fd5b5051919050565b634e487b7160e01b5f52601160045260245ffd5b8181038181111561077757610777612f08565b5f60018201612f4057612f40612f08565b5060010190565b602080825260029082015261535360f01b604082015260600190565b8082018082111561077757610777612f08565b5f60208284031215612f86575f80fd5b81516126d381612dd9565b634e487b7160e01b5f52603160045260245ffd5b5f8251612fb68184602087016129c6565b9190910192915050565b808202811582820484141761077757610777612f0856fe38361881985b0f585e6124dca158a3af102bffba0feb9c42b0b40825f41a3300331c20f00e5afe412d6bf194b51e8f2d981ce2eedc3a9ed8e5a5801a2017e900360894a13ba1a3210667c828492db98dca3e2076cc3735a920a3ca505d382bbc77dc539bf9c224afa178d31bf07d5109c2b5c5e56656e49b25e507fec3a69f0002dd7bc7dec4dceedda775e58dd541e08a116c6c53815c0bd028192f7b626800cd5ed15c6e187e77e9aee88184c21f4f2182ab5827cb3b7e07fbedcd63f03300f0c57e16840df040f15088dc2f81fe391c3923bec73e23a9662efc9c229c6a00724f6a44d576143e18c60911798b2b15551ca96bd8f7cb7524b8fa36253a26d8331c20f00e5afe412d6bf194b51e8f2d981ce2eedc3a9ed8e5a5801a2017e901339759585899103d2ace64958e37e18ccb0504652c81d4a1b8aa80fe2126ab95a164736f6c634300081a000a",
        "nonce": "0x3e",
        "chainId": "0x7e1"
      },
      "additionalContracts": [],
      "isFixedGasLimit": false
    },
    {
      "hash": "0xc84dbb5ceaa065a0165b6c79a94cc47ad5733344e3e7521ff83dfa1333cef562",
      "transactionType": "CALL",
      "contractName": "ERC1967Proxy",
      "contractAddress": "0x0e26ade1f5a99bd6b5d40f870a87bfe143db68b6",
      "function": null,
      "arguments": null,
      "transaction": {
        "from": "0xc1612c97537c2cc62a11fc4516367ab6f62d4b23",
        "to": "0x0e26ade1f5a99bd6b5d40f870a87bfe143db68b6",
        "gas": "0x17473",
        "value": "0x0",
        "input": "0x4f1ef2860000000000000000000000002745c660f10c77cf6c9668b4578f1c6956b7020700000000000000000000000000000000000000000000000000000000000000400000000000000000000000000000000000000000000000000000000000000024959042a20000000000000000000000000000000000000000000000000de0b6b3a764000000000000000000000000000000000000000000000000000000000000",
        "nonce": "0x3f",
        "chainId": "0x7e1"
      },
      "additionalContracts": [],
      "isFixedGasLimit": false
    },
    {
      "hash": "0x057f008d7c1937944f7c0bc5e87c6152d4f98215a109b5a19a3a113df0a5f402",
      "transactionType": "CALL",
      "contractName": "ERC1967Proxy",
      "contractAddress": "0x0e26ade1f5a99bd6b5d40f870a87bfe143db68b6",
      "function": null,
      "arguments": null,
      "transaction": {
        "from": "0xc1612c97537c2cc62a11fc4516367ab6f62d4b23",
        "to": "0x0e26ade1f5a99bd6b5d40f870a87bfe143db68b6",
        "gas": "0x1191a",
        "value": "0x0",
        "input": "0x543f8c580000000000000000000000000000000000000000000000000000000005f5e100",
        "nonce": "0x40",
        "chainId": "0x7e1"
      },
      "additionalContracts": [],
      "isFixedGasLimit": false
    },
    {
      "hash": "0xf62e9069d26321c951f12282c441c99f08220871b555ef5f0dfd39fb56868c54",
      "transactionType": "CALL",
      "contractName": "ERC1967Proxy",
      "contractAddress": "0x0e26ade1f5a99bd6b5d40f870a87bfe143db68b6",
      "function": null,
      "arguments": null,
      "transaction": {
        "from": "0xc1612c97537c2cc62a11fc4516367ab6f62d4b23",
        "to": "0x0e26ade1f5a99bd6b5d40f870a87bfe143db68b6",
        "gas": "0x11328",
        "value": "0x0",
        "input": "0xa0eba21a0000000000000000000000000000000000000000000000000000000000002710",
        "nonce": "0x41",
        "chainId": "0x7e1"
      },
      "additionalContracts": [],
      "isFixedGasLimit": false
    },
    {
      "hash": "0x462ec037608e5b262863a3f0ba908b8d2c59ee9e4f53911f24aae46f2453692b",
      "transactionType": "CALL",
      "contractName": "ERC1967Proxy",
      "contractAddress": "0x0e26ade1f5a99bd6b5d40f870a87bfe143db68b6",
      "function": null,
      "arguments": null,
      "transaction": {
        "from": "0xc1612c97537c2cc62a11fc4516367ab6f62d4b23",
        "to": "0x0e26ade1f5a99bd6b5d40f870a87bfe143db68b6",
        "gas": "0x2ec44",
        "value": "0x0",
        "input": "0xe9aea39600000000000000000000000000000000000000000000000000000000000000000000000000000000000000000000000000000000000000000000000000000001ffffffffffffffffffffffffffffffffffffffffffffffffffffffffffffffff00000000000000000000000000000000000000000000000000000000000003e8",
        "nonce": "0x42",
        "chainId": "0x7e1"
      },
      "additionalContracts": [],
      "isFixedGasLimit": false
    },
    {
      "hash": "0xa1fc7fd9c6ccad0d8b15c10f3f8724e2896efeeff8a2b0bfa3f3e81897bb721e",
      "transactionType": "CALL",
      "contractName": null,
      "contractAddress": "0x25d45a942405834b963c84b66418514c81b2f8c7",
      "function": "grantRole(bytes32,address)",
      "arguments": [
        "0x9f2df0fed2c77648de5860a4cc508cd0818c85b8b8a1ab4ceeef8d981c8956a6",
        "0x0e26AdE1F5A99Bd6B5D40f870a87bFE143Db68B6"
      ],
      "transaction": {
        "from": "0xc1612c97537c2cc62a11fc4516367ab6f62d4b23",
        "to": "0x25d45a942405834b963c84b66418514c81b2f8c7",
        "gas": "0x14322",
        "value": "0x0",
        "input": "0x2f2ff15d9f2df0fed2c77648de5860a4cc508cd0818c85b8b8a1ab4ceeef8d981c8956a60000000000000000000000000e26ade1f5a99bd6b5d40f870a87bfe143db68b6",
        "nonce": "0x43",
        "chainId": "0x7e1"
      },
      "additionalContracts": [],
      "isFixedGasLimit": false
    },
    {
      "hash": "0x3523898b7c764ac0e60fa207b030f30acbd6df9024802f2e9751e9604ccc0e2a",
      "transactionType": "CALL",
      "contractName": "ERC1967Proxy",
      "contractAddress": "0x0e26ade1f5a99bd6b5d40f870a87bfe143db68b6",
      "function": null,
      "arguments": null,
      "transaction": {
        "from": "0xc1612c97537c2cc62a11fc4516367ab6f62d4b23",
        "to": "0x0e26ade1f5a99bd6b5d40f870a87bfe143db68b6",
        "gas": "0x18753",
        "value": "0x0",
        "input": "0xe9aea39600000000000000000000000025d45a942405834b963c84b66418514c81b2f8c70000000000000000000000000000000000000000000000000000000000000000ffffffffffffffffffffffffffffffffffffffffffffffffffffffffffffffff00000000000000000000000000000000000000000000000000000000000003e8",
        "nonce": "0x44",
        "chainId": "0x7e1"
      },
      "additionalContracts": [],
      "isFixedGasLimit": false
    },
    {
      "hash": "0x3a0bd24b760d4974bb2e0f49b73d8797f20d23765746caa1d348185fa1cbc642",
      "transactionType": "CALL",
      "contractName": null,
      "contractAddress": "0x5fe291dd7b6a35502a51814df5e51a461b9c085f",
      "function": "grantRole(bytes32,address)",
      "arguments": [
        "0x9f2df0fed2c77648de5860a4cc508cd0818c85b8b8a1ab4ceeef8d981c8956a6",
        "0x0e26AdE1F5A99Bd6B5D40f870a87bFE143Db68B6"
      ],
      "transaction": {
        "from": "0xc1612c97537c2cc62a11fc4516367ab6f62d4b23",
        "to": "0x5fe291dd7b6a35502a51814df5e51a461b9c085f",
        "gas": "0x14322",
        "value": "0x0",
        "input": "0x2f2ff15d9f2df0fed2c77648de5860a4cc508cd0818c85b8b8a1ab4ceeef8d981c8956a60000000000000000000000000e26ade1f5a99bd6b5d40f870a87bfe143db68b6",
        "nonce": "0x45",
        "chainId": "0x7e1"
      },
      "additionalContracts": [],
      "isFixedGasLimit": false
    },
    {
      "hash": "0xdeff46424a286e54080420401e47b16c935b1b12443bdf592a831f4e23d67b4b",
      "transactionType": "CALL",
      "contractName": "ERC1967Proxy",
      "contractAddress": "0x0e26ade1f5a99bd6b5d40f870a87bfe143db68b6",
      "function": null,
      "arguments": null,
      "transaction": {
        "from": "0xc1612c97537c2cc62a11fc4516367ab6f62d4b23",
        "to": "0x0e26ade1f5a99bd6b5d40f870a87bfe143db68b6",
        "gas": "0x18a05",
        "value": "0x0",
        "input": "0xe9aea3960000000000000000000000005fe291dd7b6a35502a51814df5e51a461b9c085f0000000000000000000000000000000000000000000000000000000000000000ffffffffffffffffffffffffffffffffffffffffffffffffffffffffffffffff00000000000000000000000000000000000000000000000000000000000003e8",
        "nonce": "0x46",
        "chainId": "0x7e1"
      },
      "additionalContracts": [],
      "isFixedGasLimit": false
    },
    {
      "hash": "0xa2a905a9e9517b6e7a9909198d43d94a2c86eacdbc147aa28b754e5dff2d23e2",
      "transactionType": "CALL",
      "contractName": null,
      "contractAddress": "0x3a60acd97fea737ddd3e8fb2070601c19ac22699",
      "function": "grantRole(bytes32,address)",
      "arguments": [
        "0x9f2df0fed2c77648de5860a4cc508cd0818c85b8b8a1ab4ceeef8d981c8956a6",
        "0x0e26AdE1F5A99Bd6B5D40f870a87bFE143Db68B6"
      ],
      "transaction": {
        "from": "0xc1612c97537c2cc62a11fc4516367ab6f62d4b23",
        "to": "0x3a60acd97fea737ddd3e8fb2070601c19ac22699",
        "gas": "0x14322",
        "value": "0x0",
        "input": "0x2f2ff15d9f2df0fed2c77648de5860a4cc508cd0818c85b8b8a1ab4ceeef8d981c8956a60000000000000000000000000e26ade1f5a99bd6b5d40f870a87bfe143db68b6",
        "nonce": "0x47",
        "chainId": "0x7e1"
      },
      "additionalContracts": [],
      "isFixedGasLimit": false
    },
    {
      "hash": "0xa9242de7c69ba9465ca6e73a89cad39f937e4a6e7e8cef4cfbd6d35fe9baa6c4",
      "transactionType": "CALL",
      "contractName": "ERC1967Proxy",
      "contractAddress": "0x0e26ade1f5a99bd6b5d40f870a87bfe143db68b6",
      "function": null,
      "arguments": null,
      "transaction": {
        "from": "0xc1612c97537c2cc62a11fc4516367ab6f62d4b23",
        "to": "0x0e26ade1f5a99bd6b5d40f870a87bfe143db68b6",
        "gas": "0x17cb8",
        "value": "0x0",
        "input": "0xe9aea3960000000000000000000000003a60acd97fea737ddd3e8fb2070601c19ac226990000000000000000000000000000000000000000000000000000000000000000ffffffffffffffffffffffffffffffffffffffffffffffffffffffffffffffff00000000000000000000000000000000000000000000000000000000000003e8",
        "nonce": "0x48",
        "chainId": "0x7e1"
      },
      "additionalContracts": [],
      "isFixedGasLimit": false
    },
    {
      "hash": "0x42920ddd46b7c840b3ed8c56b4eb8561123e66ad27f5b9a848e061dc3e161cb8",
      "transactionType": "CALL",
      "contractName": null,
      "contractAddress": "0x7c76c4f1f0ae16fb6648c8a0abf9f19ad6c059d9",
      "function": "grantRole(bytes32,address)",
      "arguments": [
        "0x9f2df0fed2c77648de5860a4cc508cd0818c85b8b8a1ab4ceeef8d981c8956a6",
        "0x0e26AdE1F5A99Bd6B5D40f870a87bFE143Db68B6"
      ],
      "transaction": {
        "from": "0xc1612c97537c2cc62a11fc4516367ab6f62d4b23",
        "to": "0x7c76c4f1f0ae16fb6648c8a0abf9f19ad6c059d9",
        "gas": "0x14322",
        "value": "0x0",
        "input": "0x2f2ff15d9f2df0fed2c77648de5860a4cc508cd0818c85b8b8a1ab4ceeef8d981c8956a60000000000000000000000000e26ade1f5a99bd6b5d40f870a87bfe143db68b6",
        "nonce": "0x49",
        "chainId": "0x7e1"
      },
      "additionalContracts": [],
      "isFixedGasLimit": false
    },
    {
      "hash": "0x091d98492243800b1a4f5bcea60ce88353122f96fb56f19c304dee057798b4e8",
      "transactionType": "CALL",
      "contractName": null,
      "contractAddress": "0xf84548d35a90d8b107019478188a3791f3b8f6c1",
      "function": "grantRole(bytes32,address)",
      "arguments": [
        "0x9f2df0fed2c77648de5860a4cc508cd0818c85b8b8a1ab4ceeef8d981c8956a6",
        "0x0e26AdE1F5A99Bd6B5D40f870a87bFE143Db68B6"
      ],
      "transaction": {
        "from": "0xc1612c97537c2cc62a11fc4516367ab6f62d4b23",
        "to": "0xf84548d35a90d8b107019478188a3791f3b8f6c1",
        "gas": "0x14322",
        "value": "0x0",
        "input": "0x2f2ff15d9f2df0fed2c77648de5860a4cc508cd0818c85b8b8a1ab4ceeef8d981c8956a60000000000000000000000000e26ade1f5a99bd6b5d40f870a87bfe143db68b6",
        "nonce": "0x4a",
        "chainId": "0x7e1"
      },
      "additionalContracts": [],
      "isFixedGasLimit": false
    },
    {
      "hash": "0x08835db235cc338055f57e7e1f903295906984a4e51dbbc981477bb16656a929",
      "transactionType": "CALL",
      "contractName": "ERC1967Proxy",
      "contractAddress": "0x0e26ade1f5a99bd6b5d40f870a87bfe143db68b6",
      "function": null,
      "arguments": null,
      "transaction": {
        "from": "0xc1612c97537c2cc62a11fc4516367ab6f62d4b23",
        "to": "0x0e26ade1f5a99bd6b5d40f870a87bfe143db68b6",
        "gas": "0x16f6c",
        "value": "0x0",
        "input": "0xe9aea396000000000000000000000000f84548d35a90d8b107019478188a3791f3b8f6c10000000000000000000000000000000000000000000000000000000000000000ffffffffffffffffffffffffffffffffffffffffffffffffffffffffffffffff00000000000000000000000000000000000000000000000000000000000003e8",
        "nonce": "0x4b",
        "chainId": "0x7e1"
      },
      "additionalContracts": [],
      "isFixedGasLimit": false
    },
    {
      "hash": "0x5411d81ca94c6ef2f828f074f2f54b8947461b1b1b3a2dcf91c62bbdd9434eb4",
      "transactionType": "CALL",
      "contractName": null,
      "contractAddress": "0x5cc307482eaba4c03526c00b6d6f5e05949550d9",
      "function": "grantRole(bytes32,address)",
      "arguments": [
        "0x9f2df0fed2c77648de5860a4cc508cd0818c85b8b8a1ab4ceeef8d981c8956a6",
        "0x0e26AdE1F5A99Bd6B5D40f870a87bFE143Db68B6"
      ],
      "transaction": {
        "from": "0xc1612c97537c2cc62a11fc4516367ab6f62d4b23",
        "to": "0x5cc307482eaba4c03526c00b6d6f5e05949550d9",
        "gas": "0x14322",
        "value": "0x0",
        "input": "0x2f2ff15d9f2df0fed2c77648de5860a4cc508cd0818c85b8b8a1ab4ceeef8d981c8956a60000000000000000000000000e26ade1f5a99bd6b5d40f870a87bfe143db68b6",
        "nonce": "0x4c",
        "chainId": "0x7e1"
      },
      "additionalContracts": [],
      "isFixedGasLimit": false
    },
    {
      "hash": "0x019b4ccb3d94db2da5f64bcee33c6f0aa7de6a03d3736f425cc2679af6521422",
      "transactionType": "CALL",
      "contractName": "ERC1967Proxy",
      "contractAddress": "0x0e26ade1f5a99bd6b5d40f870a87bfe143db68b6",
      "function": null,
      "arguments": null,
      "transaction": {
        "from": "0xc1612c97537c2cc62a11fc4516367ab6f62d4b23",
        "to": "0x0e26ade1f5a99bd6b5d40f870a87bfe143db68b6",
        "gas": "0x1621f",
        "value": "0x0",
        "input": "0xe9aea3960000000000000000000000005cc307482eaba4c03526c00b6d6f5e05949550d90000000000000000000000000000000000000000000000000000000000000000ffffffffffffffffffffffffffffffffffffffffffffffffffffffffffffffff00000000000000000000000000000000000000000000000000000000000003e8",
        "nonce": "0x4d",
        "chainId": "0x7e1"
      },
      "additionalContracts": [],
      "isFixedGasLimit": false
    },
    {
      "hash": "0x7fedb7e8212601a38f19149bf19ae5520b991e6c2e2bd6a9d84f1955fe3e14b5",
      "transactionType": "CALL",
      "contractName": null,
      "contractAddress": "0x7e27fc84da5e35097982fda7b2c93e8ce4fb5817",
      "function": "grantRole(bytes32,address)",
      "arguments": [
        "0x9f2df0fed2c77648de5860a4cc508cd0818c85b8b8a1ab4ceeef8d981c8956a6",
        "0x0e26AdE1F5A99Bd6B5D40f870a87bFE143Db68B6"
      ],
      "transaction": {
        "from": "0xc1612c97537c2cc62a11fc4516367ab6f62d4b23",
        "to": "0x7e27fc84da5e35097982fda7b2c93e8ce4fb5817",
        "gas": "0x14322",
        "value": "0x0",
        "input": "0x2f2ff15d9f2df0fed2c77648de5860a4cc508cd0818c85b8b8a1ab4ceeef8d981c8956a60000000000000000000000000e26ade1f5a99bd6b5d40f870a87bfe143db68b6",
        "nonce": "0x4e",
        "chainId": "0x7e1"
      },
      "additionalContracts": [],
      "isFixedGasLimit": false
    },
    {
      "hash": "0x756373484dfb7429cb6337e3d7d51a66f8447604e409feab42a5adc3e3546064",
      "transactionType": "CALL",
      "contractName": "ERC1967Proxy",
      "contractAddress": "0x0e26ade1f5a99bd6b5d40f870a87bfe143db68b6",
      "function": null,
      "arguments": null,
      "transaction": {
        "from": "0xc1612c97537c2cc62a11fc4516367ab6f62d4b23",
        "to": "0x0e26ade1f5a99bd6b5d40f870a87bfe143db68b6",
        "gas": "0x141d8",
        "value": "0x0",
        "input": "0xe9aea3960000000000000000000000007e27fc84da5e35097982fda7b2c93e8ce4fb58170000000000000000000000000000000000000000000000000000000000000000ffffffffffffffffffffffffffffffffffffffffffffffffffffffffffffffff00000000000000000000000000000000000000000000000000000000000003e8",
        "nonce": "0x4f",
        "chainId": "0x7e1"
      },
      "additionalContracts": [],
      "isFixedGasLimit": false
    },
    {
      "hash": "0xbd2aa820630678ceac0fdf47daf5dc28fc076351184f722812e2de25186d4be3",
      "transactionType": "CALL",
      "contractName": null,
      "contractAddress": "0xc8156af812714b8cedb540adec69fc104d99930b",
      "function": "grantRole(bytes32,address)",
      "arguments": [
        "0x9f2df0fed2c77648de5860a4cc508cd0818c85b8b8a1ab4ceeef8d981c8956a6",
        "0x0e26AdE1F5A99Bd6B5D40f870a87bFE143Db68B6"
      ],
      "transaction": {
        "from": "0xc1612c97537c2cc62a11fc4516367ab6f62d4b23",
        "to": "0xc8156af812714b8cedb540adec69fc104d99930b",
        "gas": "0x14322",
        "value": "0x0",
        "input": "0x2f2ff15d9f2df0fed2c77648de5860a4cc508cd0818c85b8b8a1ab4ceeef8d981c8956a60000000000000000000000000e26ade1f5a99bd6b5d40f870a87bfe143db68b6",
        "nonce": "0x50",
        "chainId": "0x7e1"
      },
      "additionalContracts": [],
      "isFixedGasLimit": false
    },
    {
      "hash": "0xb364eb29aa29e804b24e3fd719590881a7c88cf7897cbd117c910475eeb5264a",
      "transactionType": "CALL",
      "contractName": "ERC1967Proxy",
      "contractAddress": "0x0e26ade1f5a99bd6b5d40f870a87bfe143db68b6",
      "function": null,
      "arguments": null,
      "transaction": {
        "from": "0xc1612c97537c2cc62a11fc4516367ab6f62d4b23",
        "to": "0x0e26ade1f5a99bd6b5d40f870a87bfe143db68b6",
        "gas": "0x1348c",
        "value": "0x0",
        "input": "0xe9aea396000000000000000000000000c8156af812714b8cedb540adec69fc104d99930b0000000000000000000000000000000000000000000000000000000000000000ffffffffffffffffffffffffffffffffffffffffffffffffffffffffffffffff00000000000000000000000000000000000000000000000000000000000003e8",
        "nonce": "0x51",
        "chainId": "0x7e1"
      },
      "additionalContracts": [],
      "isFixedGasLimit": false
    },
    {
      "hash": "0x21a1821feaaf0d387e37b3bccf183f0f1bd53ae6004a570c3df007e4497e6b58",
      "transactionType": "CALL",
      "contractName": null,
      "contractAddress": "0x989251ff79b744736a91c617dde3d3b5da2c09ef",
      "function": "grantRole(bytes32,address)",
      "arguments": [
        "0x9f2df0fed2c77648de5860a4cc508cd0818c85b8b8a1ab4ceeef8d981c8956a6",
        "0x0e26AdE1F5A99Bd6B5D40f870a87bFE143Db68B6"
      ],
      "transaction": {
        "from": "0xc1612c97537c2cc62a11fc4516367ab6f62d4b23",
        "to": "0x989251ff79b744736a91c617dde3d3b5da2c09ef",
        "gas": "0x14322",
        "value": "0x0",
        "input": "0x2f2ff15d9f2df0fed2c77648de5860a4cc508cd0818c85b8b8a1ab4ceeef8d981c8956a60000000000000000000000000e26ade1f5a99bd6b5d40f870a87bfe143db68b6",
        "nonce": "0x52",
        "chainId": "0x7e1"
      },
      "additionalContracts": [],
      "isFixedGasLimit": false
    },
    {
      "hash": "0x51073b6abd92d44cdaedd4cfe578e38d170bf521517731baa93942ebcfe80974",
      "transactionType": "CALL",
      "contractName": "ERC1967Proxy",
      "contractAddress": "0x0e26ade1f5a99bd6b5d40f870a87bfe143db68b6",
      "function": null,
      "arguments": null,
      "transaction": {
        "from": "0xc1612c97537c2cc62a11fc4516367ab6f62d4b23",
        "to": "0x0e26ade1f5a99bd6b5d40f870a87bfe143db68b6",
        "gas": "0x1273f",
        "value": "0x0",
        "input": "0xe9aea396000000000000000000000000989251ff79b744736a91c617dde3d3b5da2c09ef0000000000000000000000000000000000000000000000000000000000000000ffffffffffffffffffffffffffffffffffffffffffffffffffffffffffffffff00000000000000000000000000000000000000000000000000000000000003e8",
        "nonce": "0x53",
        "chainId": "0x7e1"
      },
      "additionalContracts": [],
      "isFixedGasLimit": false
    },
    {
      "hash": "0xcbebc957f41452eff98a8a2194794452c0c6f7afaa8815cbfd6ae834af428e3e",
      "transactionType": "CALL",
      "contractName": null,
      "contractAddress": "0x356ccc8a7cbe1eadf0282e6c23278b0e67fb3f91",
      "function": "grantRole(bytes32,address)",
      "arguments": [
        "0x9f2df0fed2c77648de5860a4cc508cd0818c85b8b8a1ab4ceeef8d981c8956a6",
        "0x0e26AdE1F5A99Bd6B5D40f870a87bFE143Db68B6"
      ],
      "transaction": {
        "from": "0xc1612c97537c2cc62a11fc4516367ab6f62d4b23",
        "to": "0x356ccc8a7cbe1eadf0282e6c23278b0e67fb3f91",
        "gas": "0x14322",
        "value": "0x0",
        "input": "0x2f2ff15d9f2df0fed2c77648de5860a4cc508cd0818c85b8b8a1ab4ceeef8d981c8956a60000000000000000000000000e26ade1f5a99bd6b5d40f870a87bfe143db68b6",
        "nonce": "0x54",
        "chainId": "0x7e1"
      },
      "additionalContracts": [],
      "isFixedGasLimit": false
    },
    {
      "hash": "0xd02678bc92d69f8df02ea98c436b59477a9f9aeb9a08e2cf9a5d211482b4b73d",
      "transactionType": "CALL",
      "contractName": "ERC1967Proxy",
      "contractAddress": "0x0e26ade1f5a99bd6b5d40f870a87bfe143db68b6",
      "function": null,
      "arguments": null,
      "transaction": {
        "from": "0xc1612c97537c2cc62a11fc4516367ab6f62d4b23",
        "to": "0x0e26ade1f5a99bd6b5d40f870a87bfe143db68b6",
        "gas": "0x119f2",
        "value": "0x0",
        "input": "0xe9aea396000000000000000000000000356ccc8a7cbe1eadf0282e6c23278b0e67fb3f910000000000000000000000000000000000000000000000000000000000000000ffffffffffffffffffffffffffffffffffffffffffffffffffffffffffffffff00000000000000000000000000000000000000000000000000000000000003e8",
        "nonce": "0x55",
        "chainId": "0x7e1"
      },
      "additionalContracts": [],
      "isFixedGasLimit": false
    },
    {
      "hash": "0xadeed142b2074e628c7b1393e79196301ff43d1574c6c71d931be514cac6c419",
      "transactionType": "CALL",
      "contractName": null,
      "contractAddress": "0x5404f8b4f4625cff045a3076bc28c250a71e4507",
      "function": "grantRole(bytes32,address)",
      "arguments": [
        "0x9f2df0fed2c77648de5860a4cc508cd0818c85b8b8a1ab4ceeef8d981c8956a6",
        "0x0e26AdE1F5A99Bd6B5D40f870a87bFE143Db68B6"
      ],
      "transaction": {
        "from": "0xc1612c97537c2cc62a11fc4516367ab6f62d4b23",
        "to": "0x5404f8b4f4625cff045a3076bc28c250a71e4507",
        "gas": "0x14322",
        "value": "0x0",
        "input": "0x2f2ff15d9f2df0fed2c77648de5860a4cc508cd0818c85b8b8a1ab4ceeef8d981c8956a60000000000000000000000000e26ade1f5a99bd6b5d40f870a87bfe143db68b6",
        "nonce": "0x56",
        "chainId": "0x7e1"
      },
      "additionalContracts": [],
      "isFixedGasLimit": false
    },
    {
      "hash": "0x10eb73fbae71953d94a9ed461184d568735d1a5a8a0702b4d5bf49717ceb510c",
      "transactionType": "CALL",
      "contractName": "ERC1967Proxy",
      "contractAddress": "0x0e26ade1f5a99bd6b5d40f870a87bfe143db68b6",
      "function": null,
      "arguments": null,
      "transaction": {
        "from": "0xc1612c97537c2cc62a11fc4516367ab6f62d4b23",
        "to": "0x0e26ade1f5a99bd6b5d40f870a87bfe143db68b6",
        "gas": "0x10ca5",
        "value": "0x0",
        "input": "0xe9aea3960000000000000000000000005404f8b4f4625cff045a3076bc28c250a71e45070000000000000000000000000000000000000000000000000000000000000000ffffffffffffffffffffffffffffffffffffffffffffffffffffffffffffffff00000000000000000000000000000000000000000000000000000000000003e8",
        "nonce": "0x57",
        "chainId": "0x7e1"
      },
      "additionalContracts": [],
      "isFixedGasLimit": false
    }
  ],
  "receipts": [
    {
      "status": "0x1",
      "cumulativeGasUsed": "0x2435d1",
      "logs": [],
      "logsBloom": "0x00000000000000000000000000000000000000000000000000000000000000000000000000000000000000000000000000000000000000000000000000000000000000000000000000000000000000000000000000000000000000000000000000000000000000000000000000000000000000000000000000000000000000000000000000000000000000000000000000000000000000000000000000000000000000000000000000000000000000000000000000000000000000000000000000000000000000000000000000000000000000000000000000000000000000000000000000000000000000000000000000000000000000000000000000000000",
      "type": "0x2",
      "transactionHash": "0x31621e1d78abd0f067fbfe8853eb20dfa70f947cdc282bb6c885cf7e23b47854",
      "transactionIndex": "0x0",
      "blockHash": "0x813b96ce8a9b8fbda2d4b66ade236a4cb22369babc964c806c8579db3aa6ff74",
      "blockNumber": "0x3e9c",
      "gasUsed": "0x2435d1",
      "effectiveGasPrice": "0x8",
      "from": "0xc1612c97537c2cc62a11fc4516367ab6f62d4b23",
      "to": "0x4e59b44847b379578588920ca78fbf26c0b4956c",
      "contractAddress": null
    },
    {
      "status": "0x1",
      "cumulativeGasUsed": "0x13fb1b",
      "logs": [
        {
          "address": "0x0e26ade1f5a99bd6b5d40f870a87bfe143db68b6",
          "topics": [
            "0xbc7cd75a20ee27fd9adebab32041f755214dbc6bffa90cc0225b39da2e5c2d3b",
            "0x000000000000000000000000857721c881fc26e4664a9685d8650c0505997672"
          ],
          "data": "0x",
          "blockHash": "0xee270504d60b9278f13f21e7262e06e53fd6ef1fda813d1ede796af3e25bf12c",
          "blockNumber": "0x3e9e",
          "blockTimestamp": "0x66f0dff3",
          "transactionHash": "0x3ebb77d88c93775ca678a96751d9e9c6ec8f27165f498922d3b6e3716d7f09a8",
          "transactionIndex": "0x0",
          "logIndex": "0x0",
          "removed": false
        },
        {
          "address": "0x0e26ade1f5a99bd6b5d40f870a87bfe143db68b6",
          "topics": [
            "0x2f8788117e7eff1d82e926ec794901d17c78024a50270940304540a733656f0d",
            "0x339759585899103d2ace64958e37e18ccb0504652c81d4a1b8aa80fe2126ab95",
            "0x0000000000000000000000004e59b44847b379578588920ca78fbf26c0b4956c",
            "0x0000000000000000000000004e59b44847b379578588920ca78fbf26c0b4956c"
          ],
          "data": "0x",
          "blockHash": "0xee270504d60b9278f13f21e7262e06e53fd6ef1fda813d1ede796af3e25bf12c",
          "blockNumber": "0x3e9e",
          "blockTimestamp": "0x66f0dff3",
          "transactionHash": "0x3ebb77d88c93775ca678a96751d9e9c6ec8f27165f498922d3b6e3716d7f09a8",
          "transactionIndex": "0x0",
          "logIndex": "0x1",
          "removed": false
        },
        {
          "address": "0x0e26ade1f5a99bd6b5d40f870a87bfe143db68b6",
          "topics": [
            "0x84f12763861d318f97fe38a0e6f70b46f0566462d67561978f0f4dff814031df"
          ],
          "data": "0x00000000000000000000000025d45a942405834b963c84b66418514c81b2f8c70000000000000000000000000000000000000000000000000000000000000001ffffffffffffffffffffffffffffffffffffffffffffffffffffffffffffffff00000000000000000000000000000000000000000000000000000000000003e8",
          "blockHash": "0xee270504d60b9278f13f21e7262e06e53fd6ef1fda813d1ede796af3e25bf12c",
          "blockNumber": "0x3e9e",
          "blockTimestamp": "0x66f0dff3",
          "transactionHash": "0x3ebb77d88c93775ca678a96751d9e9c6ec8f27165f498922d3b6e3716d7f09a8",
          "transactionIndex": "0x0",
          "logIndex": "0x2",
          "removed": false
        },
        {
          "address": "0x0e26ade1f5a99bd6b5d40f870a87bfe143db68b6",
          "topics": [
            "0xc039c75cef0904723584eecbad08281b7298a16c9fadc7dbbb576359df79c1de"
          ],
          "data": "0x00000000000000000000000025d45a942405834b963c84b66418514c81b2f8c7",
          "blockHash": "0xee270504d60b9278f13f21e7262e06e53fd6ef1fda813d1ede796af3e25bf12c",
          "blockNumber": "0x3e9e",
          "blockTimestamp": "0x66f0dff3",
          "transactionHash": "0x3ebb77d88c93775ca678a96751d9e9c6ec8f27165f498922d3b6e3716d7f09a8",
          "transactionIndex": "0x0",
          "logIndex": "0x3",
          "removed": false
        },
        {
          "address": "0x0e26ade1f5a99bd6b5d40f870a87bfe143db68b6",
          "topics": [
            "0x84f12763861d318f97fe38a0e6f70b46f0566462d67561978f0f4dff814031df"
          ],
          "data": "0x0000000000000000000000005fe291dd7b6a35502a51814df5e51a461b9c085f0000000000000000000000000000000000000000000000000000000000000001ffffffffffffffffffffffffffffffffffffffffffffffffffffffffffffffff00000000000000000000000000000000000000000000000000000000000003e8",
          "blockHash": "0xee270504d60b9278f13f21e7262e06e53fd6ef1fda813d1ede796af3e25bf12c",
          "blockNumber": "0x3e9e",
          "blockTimestamp": "0x66f0dff3",
          "transactionHash": "0x3ebb77d88c93775ca678a96751d9e9c6ec8f27165f498922d3b6e3716d7f09a8",
          "transactionIndex": "0x0",
          "logIndex": "0x4",
          "removed": false
        },
        {
          "address": "0x0e26ade1f5a99bd6b5d40f870a87bfe143db68b6",
          "topics": [
            "0xc039c75cef0904723584eecbad08281b7298a16c9fadc7dbbb576359df79c1de"
          ],
          "data": "0x0000000000000000000000005fe291dd7b6a35502a51814df5e51a461b9c085f",
          "blockHash": "0xee270504d60b9278f13f21e7262e06e53fd6ef1fda813d1ede796af3e25bf12c",
          "blockNumber": "0x3e9e",
          "blockTimestamp": "0x66f0dff3",
          "transactionHash": "0x3ebb77d88c93775ca678a96751d9e9c6ec8f27165f498922d3b6e3716d7f09a8",
          "transactionIndex": "0x0",
          "logIndex": "0x5",
          "removed": false
        },
        {
          "address": "0x0e26ade1f5a99bd6b5d40f870a87bfe143db68b6",
          "topics": [
            "0x84f12763861d318f97fe38a0e6f70b46f0566462d67561978f0f4dff814031df"
          ],
          "data": "0x0000000000000000000000003a60acd97fea737ddd3e8fb2070601c19ac226990000000000000000000000000000000000000000000000000000000000000001ffffffffffffffffffffffffffffffffffffffffffffffffffffffffffffffff00000000000000000000000000000000000000000000000000000000000003e8",
          "blockHash": "0xee270504d60b9278f13f21e7262e06e53fd6ef1fda813d1ede796af3e25bf12c",
          "blockNumber": "0x3e9e",
          "blockTimestamp": "0x66f0dff3",
          "transactionHash": "0x3ebb77d88c93775ca678a96751d9e9c6ec8f27165f498922d3b6e3716d7f09a8",
          "transactionIndex": "0x0",
          "logIndex": "0x6",
          "removed": false
        },
        {
          "address": "0x0e26ade1f5a99bd6b5d40f870a87bfe143db68b6",
          "topics": [
            "0xc039c75cef0904723584eecbad08281b7298a16c9fadc7dbbb576359df79c1de"
          ],
          "data": "0x0000000000000000000000003a60acd97fea737ddd3e8fb2070601c19ac22699",
          "blockHash": "0xee270504d60b9278f13f21e7262e06e53fd6ef1fda813d1ede796af3e25bf12c",
          "blockNumber": "0x3e9e",
          "blockTimestamp": "0x66f0dff3",
          "transactionHash": "0x3ebb77d88c93775ca678a96751d9e9c6ec8f27165f498922d3b6e3716d7f09a8",
          "transactionIndex": "0x0",
          "logIndex": "0x7",
          "removed": false
        },
        {
          "address": "0x0e26ade1f5a99bd6b5d40f870a87bfe143db68b6",
          "topics": [
            "0x84f12763861d318f97fe38a0e6f70b46f0566462d67561978f0f4dff814031df"
          ],
          "data": "0x000000000000000000000000f84548d35a90d8b107019478188a3791f3b8f6c10000000000000000000000000000000000000000000000000000000000000001ffffffffffffffffffffffffffffffffffffffffffffffffffffffffffffffff00000000000000000000000000000000000000000000000000000000000003e8",
          "blockHash": "0xee270504d60b9278f13f21e7262e06e53fd6ef1fda813d1ede796af3e25bf12c",
          "blockNumber": "0x3e9e",
          "blockTimestamp": "0x66f0dff3",
          "transactionHash": "0x3ebb77d88c93775ca678a96751d9e9c6ec8f27165f498922d3b6e3716d7f09a8",
          "transactionIndex": "0x0",
          "logIndex": "0x8",
          "removed": false
        },
        {
          "address": "0x0e26ade1f5a99bd6b5d40f870a87bfe143db68b6",
          "topics": [
            "0xc039c75cef0904723584eecbad08281b7298a16c9fadc7dbbb576359df79c1de"
          ],
          "data": "0x000000000000000000000000f84548d35a90d8b107019478188a3791f3b8f6c1",
          "blockHash": "0xee270504d60b9278f13f21e7262e06e53fd6ef1fda813d1ede796af3e25bf12c",
          "blockNumber": "0x3e9e",
          "blockTimestamp": "0x66f0dff3",
          "transactionHash": "0x3ebb77d88c93775ca678a96751d9e9c6ec8f27165f498922d3b6e3716d7f09a8",
          "transactionIndex": "0x0",
          "logIndex": "0x9",
          "removed": false
        },
        {
          "address": "0x0e26ade1f5a99bd6b5d40f870a87bfe143db68b6",
          "topics": [
            "0x84f12763861d318f97fe38a0e6f70b46f0566462d67561978f0f4dff814031df"
          ],
          "data": "0x0000000000000000000000005cc307482eaba4c03526c00b6d6f5e05949550d90000000000000000000000000000000000000000000000000000000000000001ffffffffffffffffffffffffffffffffffffffffffffffffffffffffffffffff00000000000000000000000000000000000000000000000000000000000003e8",
          "blockHash": "0xee270504d60b9278f13f21e7262e06e53fd6ef1fda813d1ede796af3e25bf12c",
          "blockNumber": "0x3e9e",
          "blockTimestamp": "0x66f0dff3",
          "transactionHash": "0x3ebb77d88c93775ca678a96751d9e9c6ec8f27165f498922d3b6e3716d7f09a8",
          "transactionIndex": "0x0",
          "logIndex": "0xa",
          "removed": false
        },
        {
          "address": "0x0e26ade1f5a99bd6b5d40f870a87bfe143db68b6",
          "topics": [
            "0xc039c75cef0904723584eecbad08281b7298a16c9fadc7dbbb576359df79c1de"
          ],
          "data": "0x0000000000000000000000005cc307482eaba4c03526c00b6d6f5e05949550d9",
          "blockHash": "0xee270504d60b9278f13f21e7262e06e53fd6ef1fda813d1ede796af3e25bf12c",
          "blockNumber": "0x3e9e",
          "blockTimestamp": "0x66f0dff3",
          "transactionHash": "0x3ebb77d88c93775ca678a96751d9e9c6ec8f27165f498922d3b6e3716d7f09a8",
          "transactionIndex": "0x0",
          "logIndex": "0xb",
          "removed": false
        },
        {
          "address": "0x0e26ade1f5a99bd6b5d40f870a87bfe143db68b6",
          "topics": [
            "0x84f12763861d318f97fe38a0e6f70b46f0566462d67561978f0f4dff814031df"
          ],
          "data": "0x0000000000000000000000007e27fc84da5e35097982fda7b2c93e8ce4fb58170000000000000000000000000000000000000000000000000000000000000001ffffffffffffffffffffffffffffffffffffffffffffffffffffffffffffffff00000000000000000000000000000000000000000000000000000000000003e8",
          "blockHash": "0xee270504d60b9278f13f21e7262e06e53fd6ef1fda813d1ede796af3e25bf12c",
          "blockNumber": "0x3e9e",
          "blockTimestamp": "0x66f0dff3",
          "transactionHash": "0x3ebb77d88c93775ca678a96751d9e9c6ec8f27165f498922d3b6e3716d7f09a8",
          "transactionIndex": "0x0",
          "logIndex": "0xc",
          "removed": false
        },
        {
          "address": "0x0e26ade1f5a99bd6b5d40f870a87bfe143db68b6",
          "topics": [
            "0xc039c75cef0904723584eecbad08281b7298a16c9fadc7dbbb576359df79c1de"
          ],
          "data": "0x0000000000000000000000007e27fc84da5e35097982fda7b2c93e8ce4fb5817",
          "blockHash": "0xee270504d60b9278f13f21e7262e06e53fd6ef1fda813d1ede796af3e25bf12c",
          "blockNumber": "0x3e9e",
          "blockTimestamp": "0x66f0dff3",
          "transactionHash": "0x3ebb77d88c93775ca678a96751d9e9c6ec8f27165f498922d3b6e3716d7f09a8",
          "transactionIndex": "0x0",
          "logIndex": "0xd",
          "removed": false
        },
        {
          "address": "0x0e26ade1f5a99bd6b5d40f870a87bfe143db68b6",
          "topics": [
            "0x84f12763861d318f97fe38a0e6f70b46f0566462d67561978f0f4dff814031df"
          ],
          "data": "0x000000000000000000000000c8156af812714b8cedb540adec69fc104d99930b0000000000000000000000000000000000000000000000000000000000000001ffffffffffffffffffffffffffffffffffffffffffffffffffffffffffffffff00000000000000000000000000000000000000000000000000000000000003e8",
          "blockHash": "0xee270504d60b9278f13f21e7262e06e53fd6ef1fda813d1ede796af3e25bf12c",
          "blockNumber": "0x3e9e",
          "blockTimestamp": "0x66f0dff3",
          "transactionHash": "0x3ebb77d88c93775ca678a96751d9e9c6ec8f27165f498922d3b6e3716d7f09a8",
          "transactionIndex": "0x0",
          "logIndex": "0xe",
          "removed": false
        },
        {
          "address": "0x0e26ade1f5a99bd6b5d40f870a87bfe143db68b6",
          "topics": [
            "0xc039c75cef0904723584eecbad08281b7298a16c9fadc7dbbb576359df79c1de"
          ],
          "data": "0x000000000000000000000000c8156af812714b8cedb540adec69fc104d99930b",
          "blockHash": "0xee270504d60b9278f13f21e7262e06e53fd6ef1fda813d1ede796af3e25bf12c",
          "blockNumber": "0x3e9e",
          "blockTimestamp": "0x66f0dff3",
          "transactionHash": "0x3ebb77d88c93775ca678a96751d9e9c6ec8f27165f498922d3b6e3716d7f09a8",
          "transactionIndex": "0x0",
          "logIndex": "0xf",
          "removed": false
        },
        {
          "address": "0x0e26ade1f5a99bd6b5d40f870a87bfe143db68b6",
          "topics": [
            "0x84f12763861d318f97fe38a0e6f70b46f0566462d67561978f0f4dff814031df"
          ],
          "data": "0x000000000000000000000000989251ff79b744736a91c617dde3d3b5da2c09ef0000000000000000000000000000000000000000000000000000000000000001ffffffffffffffffffffffffffffffffffffffffffffffffffffffffffffffff00000000000000000000000000000000000000000000000000000000000003e8",
          "blockHash": "0xee270504d60b9278f13f21e7262e06e53fd6ef1fda813d1ede796af3e25bf12c",
          "blockNumber": "0x3e9e",
          "blockTimestamp": "0x66f0dff3",
          "transactionHash": "0x3ebb77d88c93775ca678a96751d9e9c6ec8f27165f498922d3b6e3716d7f09a8",
          "transactionIndex": "0x0",
          "logIndex": "0x10",
          "removed": false
        },
        {
          "address": "0x0e26ade1f5a99bd6b5d40f870a87bfe143db68b6",
          "topics": [
            "0xc039c75cef0904723584eecbad08281b7298a16c9fadc7dbbb576359df79c1de"
          ],
          "data": "0x000000000000000000000000989251ff79b744736a91c617dde3d3b5da2c09ef",
          "blockHash": "0xee270504d60b9278f13f21e7262e06e53fd6ef1fda813d1ede796af3e25bf12c",
          "blockNumber": "0x3e9e",
          "blockTimestamp": "0x66f0dff3",
          "transactionHash": "0x3ebb77d88c93775ca678a96751d9e9c6ec8f27165f498922d3b6e3716d7f09a8",
          "transactionIndex": "0x0",
          "logIndex": "0x11",
          "removed": false
        },
        {
          "address": "0x0e26ade1f5a99bd6b5d40f870a87bfe143db68b6",
          "topics": [
            "0x84f12763861d318f97fe38a0e6f70b46f0566462d67561978f0f4dff814031df"
          ],
          "data": "0x000000000000000000000000356ccc8a7cbe1eadf0282e6c23278b0e67fb3f910000000000000000000000000000000000000000000000000000000000000001ffffffffffffffffffffffffffffffffffffffffffffffffffffffffffffffff00000000000000000000000000000000000000000000000000000000000003e8",
          "blockHash": "0xee270504d60b9278f13f21e7262e06e53fd6ef1fda813d1ede796af3e25bf12c",
          "blockNumber": "0x3e9e",
          "blockTimestamp": "0x66f0dff3",
          "transactionHash": "0x3ebb77d88c93775ca678a96751d9e9c6ec8f27165f498922d3b6e3716d7f09a8",
          "transactionIndex": "0x0",
          "logIndex": "0x12",
          "removed": false
        },
        {
          "address": "0x0e26ade1f5a99bd6b5d40f870a87bfe143db68b6",
          "topics": [
            "0xc039c75cef0904723584eecbad08281b7298a16c9fadc7dbbb576359df79c1de"
          ],
          "data": "0x000000000000000000000000356ccc8a7cbe1eadf0282e6c23278b0e67fb3f91",
          "blockHash": "0xee270504d60b9278f13f21e7262e06e53fd6ef1fda813d1ede796af3e25bf12c",
          "blockNumber": "0x3e9e",
          "blockTimestamp": "0x66f0dff3",
          "transactionHash": "0x3ebb77d88c93775ca678a96751d9e9c6ec8f27165f498922d3b6e3716d7f09a8",
          "transactionIndex": "0x0",
          "logIndex": "0x13",
          "removed": false
        },
        {
          "address": "0x0e26ade1f5a99bd6b5d40f870a87bfe143db68b6",
          "topics": [
            "0x84f12763861d318f97fe38a0e6f70b46f0566462d67561978f0f4dff814031df"
          ],
          "data": "0x0000000000000000000000005404f8b4f4625cff045a3076bc28c250a71e45070000000000000000000000000000000000000000000000000000000000000001ffffffffffffffffffffffffffffffffffffffffffffffffffffffffffffffff00000000000000000000000000000000000000000000000000000000000003e8",
          "blockHash": "0xee270504d60b9278f13f21e7262e06e53fd6ef1fda813d1ede796af3e25bf12c",
          "blockNumber": "0x3e9e",
          "blockTimestamp": "0x66f0dff3",
          "transactionHash": "0x3ebb77d88c93775ca678a96751d9e9c6ec8f27165f498922d3b6e3716d7f09a8",
          "transactionIndex": "0x0",
          "logIndex": "0x14",
          "removed": false
        },
        {
          "address": "0x0e26ade1f5a99bd6b5d40f870a87bfe143db68b6",
          "topics": [
            "0xc039c75cef0904723584eecbad08281b7298a16c9fadc7dbbb576359df79c1de"
          ],
          "data": "0x0000000000000000000000005404f8b4f4625cff045a3076bc28c250a71e4507",
          "blockHash": "0xee270504d60b9278f13f21e7262e06e53fd6ef1fda813d1ede796af3e25bf12c",
          "blockNumber": "0x3e9e",
          "blockTimestamp": "0x66f0dff3",
          "transactionHash": "0x3ebb77d88c93775ca678a96751d9e9c6ec8f27165f498922d3b6e3716d7f09a8",
          "transactionIndex": "0x0",
          "logIndex": "0x15",
          "removed": false
        },
        {
          "address": "0x0e26ade1f5a99bd6b5d40f870a87bfe143db68b6",
          "topics": [
            "0xf6391f5c32d9c69d2a47ea670b442974b53935d1edc7fd64eb21e047a839171b",
            "0x339759585899103d2ace64958e37e18ccb0504652c81d4a1b8aa80fe2126ab95",
            "0x0000000000000000000000004e59b44847b379578588920ca78fbf26c0b4956c",
            "0x0000000000000000000000004e59b44847b379578588920ca78fbf26c0b4956c"
          ],
          "data": "0x",
          "blockHash": "0xee270504d60b9278f13f21e7262e06e53fd6ef1fda813d1ede796af3e25bf12c",
          "blockNumber": "0x3e9e",
          "blockTimestamp": "0x66f0dff3",
          "transactionHash": "0x3ebb77d88c93775ca678a96751d9e9c6ec8f27165f498922d3b6e3716d7f09a8",
          "transactionIndex": "0x0",
          "logIndex": "0x16",
          "removed": false
        },
        {
          "address": "0x0e26ade1f5a99bd6b5d40f870a87bfe143db68b6",
          "topics": [
            "0x2f8788117e7eff1d82e926ec794901d17c78024a50270940304540a733656f0d",
            "0x0000000000000000000000000000000000000000000000000000000000000000",
            "0x000000000000000000000000c1612c97537c2cc62a11fc4516367ab6f62d4b23",
            "0x0000000000000000000000004e59b44847b379578588920ca78fbf26c0b4956c"
          ],
          "data": "0x",
          "blockHash": "0xee270504d60b9278f13f21e7262e06e53fd6ef1fda813d1ede796af3e25bf12c",
          "blockNumber": "0x3e9e",
          "blockTimestamp": "0x66f0dff3",
          "transactionHash": "0x3ebb77d88c93775ca678a96751d9e9c6ec8f27165f498922d3b6e3716d7f09a8",
          "transactionIndex": "0x0",
          "logIndex": "0x17",
          "removed": false
        },
        {
          "address": "0x0e26ade1f5a99bd6b5d40f870a87bfe143db68b6",
          "topics": [
            "0x2f8788117e7eff1d82e926ec794901d17c78024a50270940304540a733656f0d",
            "0x339759585899103d2ace64958e37e18ccb0504652c81d4a1b8aa80fe2126ab95",
            "0x000000000000000000000000c1612c97537c2cc62a11fc4516367ab6f62d4b23",
            "0x0000000000000000000000004e59b44847b379578588920ca78fbf26c0b4956c"
          ],
          "data": "0x",
          "blockHash": "0xee270504d60b9278f13f21e7262e06e53fd6ef1fda813d1ede796af3e25bf12c",
          "blockNumber": "0x3e9e",
          "blockTimestamp": "0x66f0dff3",
          "transactionHash": "0x3ebb77d88c93775ca678a96751d9e9c6ec8f27165f498922d3b6e3716d7f09a8",
          "transactionIndex": "0x0",
          "logIndex": "0x18",
          "removed": false
        },
        {
          "address": "0x0e26ade1f5a99bd6b5d40f870a87bfe143db68b6",
          "topics": [
            "0x2f8788117e7eff1d82e926ec794901d17c78024a50270940304540a733656f0d",
            "0xaecf5761d3ba769b4631978eb26cb84eae66bcaca9c3f0f4ecde3feb2f4cf144",
            "0x000000000000000000000000e626ce81714cb7777b1bf8ad2323963fb3398ad5",
            "0x0000000000000000000000004e59b44847b379578588920ca78fbf26c0b4956c"
          ],
          "data": "0x",
          "blockHash": "0xee270504d60b9278f13f21e7262e06e53fd6ef1fda813d1ede796af3e25bf12c",
          "blockNumber": "0x3e9e",
          "blockTimestamp": "0x66f0dff3",
          "transactionHash": "0x3ebb77d88c93775ca678a96751d9e9c6ec8f27165f498922d3b6e3716d7f09a8",
          "transactionIndex": "0x0",
          "logIndex": "0x19",
          "removed": false
        },
        {
          "address": "0x0e26ade1f5a99bd6b5d40f870a87bfe143db68b6",
          "topics": [
            "0x2f8788117e7eff1d82e926ec794901d17c78024a50270940304540a733656f0d",
            "0xaecf5761d3ba769b4631978eb26cb84eae66bcaca9c3f0f4ecde3feb2f4cf144",
            "0x000000000000000000000000b3fabbd1d2edde4d9ced3ce352859ce1bebf7907",
            "0x0000000000000000000000004e59b44847b379578588920ca78fbf26c0b4956c"
          ],
          "data": "0x",
          "blockHash": "0xee270504d60b9278f13f21e7262e06e53fd6ef1fda813d1ede796af3e25bf12c",
          "blockNumber": "0x3e9e",
          "blockTimestamp": "0x66f0dff3",
          "transactionHash": "0x3ebb77d88c93775ca678a96751d9e9c6ec8f27165f498922d3b6e3716d7f09a8",
          "transactionIndex": "0x0",
          "logIndex": "0x1a",
          "removed": false
        },
        {
          "address": "0x0e26ade1f5a99bd6b5d40f870a87bfe143db68b6",
          "topics": [
            "0x2f8788117e7eff1d82e926ec794901d17c78024a50270940304540a733656f0d",
            "0xaecf5761d3ba769b4631978eb26cb84eae66bcaca9c3f0f4ecde3feb2f4cf144",
            "0x000000000000000000000000a3478861957661b2d8974d9309646a71271d98b9",
            "0x0000000000000000000000004e59b44847b379578588920ca78fbf26c0b4956c"
          ],
          "data": "0x",
          "blockHash": "0xee270504d60b9278f13f21e7262e06e53fd6ef1fda813d1ede796af3e25bf12c",
          "blockNumber": "0x3e9e",
          "blockTimestamp": "0x66f0dff3",
          "transactionHash": "0x3ebb77d88c93775ca678a96751d9e9c6ec8f27165f498922d3b6e3716d7f09a8",
          "transactionIndex": "0x0",
          "logIndex": "0x1b",
          "removed": false
        },
        {
          "address": "0x0e26ade1f5a99bd6b5d40f870a87bfe143db68b6",
          "topics": [
            "0x2f8788117e7eff1d82e926ec794901d17c78024a50270940304540a733656f0d",
            "0xaecf5761d3ba769b4631978eb26cb84eae66bcaca9c3f0f4ecde3feb2f4cf144",
            "0x000000000000000000000000e69151677e5aec0b4fc0a94bfcaf20f6f0f975eb",
            "0x0000000000000000000000004e59b44847b379578588920ca78fbf26c0b4956c"
          ],
          "data": "0x",
          "blockHash": "0xee270504d60b9278f13f21e7262e06e53fd6ef1fda813d1ede796af3e25bf12c",
          "blockNumber": "0x3e9e",
          "blockTimestamp": "0x66f0dff3",
          "transactionHash": "0x3ebb77d88c93775ca678a96751d9e9c6ec8f27165f498922d3b6e3716d7f09a8",
          "transactionIndex": "0x0",
          "logIndex": "0x1c",
          "removed": false
        },
        {
          "address": "0x0e26ade1f5a99bd6b5d40f870a87bfe143db68b6",
          "topics": [
            "0xc7f505b2f371ae2175ee4913f4499e1f2633a7b5936321eed1cdaeb6115181d2"
          ],
          "data": "0x0000000000000000000000000000000000000000000000000000000000000001",
          "blockHash": "0xee270504d60b9278f13f21e7262e06e53fd6ef1fda813d1ede796af3e25bf12c",
          "blockNumber": "0x3e9e",
          "blockTimestamp": "0x66f0dff3",
          "transactionHash": "0x3ebb77d88c93775ca678a96751d9e9c6ec8f27165f498922d3b6e3716d7f09a8",
          "transactionIndex": "0x0",
          "logIndex": "0x1d",
          "removed": false
        }
      ],
      "logsBloom": "0x00000004000000100100000000000000400000000010400000000000080000000002000000002000000040000000004000200000000000000000000028000002000400000020000108000000000002000000400000000000000000200000000240000000020000000000000000000800000000000000000000000000000000000000000040000000000800000000000010000000001080000000000000040000080100000401000000000000000000000800020000000000001000000000000000010020000000000000080000000000000000000004000100008000000020000000002000000000000400000000000090000000000000000000001000000000",
      "type": "0x2",
      "transactionHash": "0x3ebb77d88c93775ca678a96751d9e9c6ec8f27165f498922d3b6e3716d7f09a8",
      "transactionIndex": "0x0",
      "blockHash": "0xee270504d60b9278f13f21e7262e06e53fd6ef1fda813d1ede796af3e25bf12c",
      "blockNumber": "0x3e9e",
      "gasUsed": "0x13fb1b",
      "effectiveGasPrice": "0x8",
      "from": "0xc1612c97537c2cc62a11fc4516367ab6f62d4b23",
      "to": "0x4e59b44847b379578588920ca78fbf26c0b4956c",
      "contractAddress": null
    },
    {
      "status": "0x1",
      "cumulativeGasUsed": "0x3e61c5",
      "logs": [],
      "logsBloom": "0x00000000000000000000000000000000000000000000000000000000000000000000000000000000000000000000000000000000000000000000000000000000000000000000000000000000000000000000000000000000000000000000000000000000000000000000000000000000000000000000000000000000000000000000000000000000000000000000000000000000000000000000000000000000000000000000000000000000000000000000000000000000000000000000000000000000000000000000000000000000000000000000000000000000000000000000000000000000000000000000000000000000000000000000000000000000",
      "type": "0x2",
      "transactionHash": "0x2b280166f8618dcb14459a30c0a4d9e396c11c90701f999bba14dd0d545006c5",
      "transactionIndex": "0x1",
      "blockHash": "0xee270504d60b9278f13f21e7262e06e53fd6ef1fda813d1ede796af3e25bf12c",
      "blockNumber": "0x3e9e",
      "gasUsed": "0x2a66aa",
      "effectiveGasPrice": "0x8",
      "from": "0xc1612c97537c2cc62a11fc4516367ab6f62d4b23",
      "to": "0x4e59b44847b379578588920ca78fbf26c0b4956c",
      "contractAddress": null
    },
    {
      "status": "0x1",
      "cumulativeGasUsed": "0x3f6070",
      "logs": [
        {
          "address": "0x0e26ade1f5a99bd6b5d40f870a87bfe143db68b6",
          "topics": [
            "0xbc7cd75a20ee27fd9adebab32041f755214dbc6bffa90cc0225b39da2e5c2d3b",
            "0x0000000000000000000000002745c660f10c77cf6c9668b4578f1c6956b70207"
          ],
          "data": "0x",
          "blockHash": "0xee270504d60b9278f13f21e7262e06e53fd6ef1fda813d1ede796af3e25bf12c",
          "blockNumber": "0x3e9e",
          "blockTimestamp": "0x66f0dff3",
          "transactionHash": "0xc84dbb5ceaa065a0165b6c79a94cc47ad5733344e3e7521ff83dfa1333cef562",
          "transactionIndex": "0x2",
          "logIndex": "0x1e",
          "removed": false
        },
        {
          "address": "0x0e26ade1f5a99bd6b5d40f870a87bfe143db68b6",
          "topics": [
            "0xbf420dc53ff33cecece09463750eae7694a8fe807007924887a27dd11a0df048"
          ],
          "data": "0x0000000000000000000000000000000000000000000000000de0b6b3a7640000",
          "blockHash": "0xee270504d60b9278f13f21e7262e06e53fd6ef1fda813d1ede796af3e25bf12c",
          "blockNumber": "0x3e9e",
          "blockTimestamp": "0x66f0dff3",
          "transactionHash": "0xc84dbb5ceaa065a0165b6c79a94cc47ad5733344e3e7521ff83dfa1333cef562",
          "transactionIndex": "0x2",
          "logIndex": "0x1f",
          "removed": false
        }
      ],
      "logsBloom": "0x00000000000000000000000000000000400000000000000000000000010000000000000000000000000000000000000000000000000000000000000000000000000000000002000000000000000002000000000000000000000000000000000000000000000000004000000000000000000000000000008000000000000000000000000000000000000000000000000010000000000001000000000000000000000000000000000000000000800000000000000000000000000000000000000000000020000000000000080000000000000000000000000000000000000000000000000000000000000000000000000010000000000000000000000000000000",
      "type": "0x2",
      "transactionHash": "0xc84dbb5ceaa065a0165b6c79a94cc47ad5733344e3e7521ff83dfa1333cef562",
      "transactionIndex": "0x2",
      "blockHash": "0xee270504d60b9278f13f21e7262e06e53fd6ef1fda813d1ede796af3e25bf12c",
      "blockNumber": "0x3e9e",
      "gasUsed": "0xfeab",
      "effectiveGasPrice": "0x8",
      "from": "0xc1612c97537c2cc62a11fc4516367ab6f62d4b23",
      "to": "0x0e26ade1f5a99bd6b5d40f870a87bfe143db68b6",
      "contractAddress": null
    },
    {
      "status": "0x1",
      "cumulativeGasUsed": "0x402bf4",
      "logs": [
        {
          "address": "0x0e26ade1f5a99bd6b5d40f870a87bfe143db68b6",
          "topics": [
            "0x33f3faee0788ab897d8f674abe1dde6d93ba901e4a1502161294734ba178e3c7"
          ],
          "data": "0x0000000000000000000000000000000000000000000000000000000005f5e100",
          "blockHash": "0xee270504d60b9278f13f21e7262e06e53fd6ef1fda813d1ede796af3e25bf12c",
          "blockNumber": "0x3e9e",
          "blockTimestamp": "0x66f0dff3",
          "transactionHash": "0x057f008d7c1937944f7c0bc5e87c6152d4f98215a109b5a19a3a113df0a5f402",
          "transactionIndex": "0x3",
          "logIndex": "0x20",
          "removed": false
        }
      ],
      "logsBloom": "0x00000000000004000000000000000000000000000000000000000000000000000000000000000000000000000000000000000000000000000000000000000000000000000000000000000000000000000000000000000000000000000000000000000000000000000000000000000000000000000000002000000000000000000000000000000000000000000000000010200000000000000000000000000000000000000000000000000000000000000000000000000000000000000000000000000000000000000000080000000000000000000000000000000000000000000000000000000000000000000000000010000000000000000000000000000000",
      "type": "0x2",
      "transactionHash": "0x057f008d7c1937944f7c0bc5e87c6152d4f98215a109b5a19a3a113df0a5f402",
      "transactionIndex": "0x3",
      "blockHash": "0xee270504d60b9278f13f21e7262e06e53fd6ef1fda813d1ede796af3e25bf12c",
      "blockNumber": "0x3e9e",
      "gasUsed": "0xcb84",
      "effectiveGasPrice": "0x8",
      "from": "0xc1612c97537c2cc62a11fc4516367ab6f62d4b23",
      "to": "0x0e26ade1f5a99bd6b5d40f870a87bfe143db68b6",
      "contractAddress": null
    },
    {
      "status": "0x1",
      "cumulativeGasUsed": "0x40f32a",
      "logs": [],
      "logsBloom": "0x00000000000000000000000000000000000000000000000000000000000000000000000000000000000000000000000000000000000000000000000000000000000000000000000000000000000000000000000000000000000000000000000000000000000000000000000000000000000000000000000000000000000000000000000000000000000000000000000000000000000000000000000000000000000000000000000000000000000000000000000000000000000000000000000000000000000000000000000000000000000000000000000000000000000000000000000000000000000000000000000000000000000000000000000000000000",
      "type": "0x2",
      "transactionHash": "0xf62e9069d26321c951f12282c441c99f08220871b555ef5f0dfd39fb56868c54",
      "transactionIndex": "0x4",
      "blockHash": "0xee270504d60b9278f13f21e7262e06e53fd6ef1fda813d1ede796af3e25bf12c",
      "blockNumber": "0x3e9e",
      "gasUsed": "0xc736",
      "effectiveGasPrice": "0x8",
      "from": "0xc1612c97537c2cc62a11fc4516367ab6f62d4b23",
      "to": "0x0e26ade1f5a99bd6b5d40f870a87bfe143db68b6",
      "contractAddress": null
    },
    {
      "status": "0x1",
      "cumulativeGasUsed": "0x42f2cd",
      "logs": [
        {
          "address": "0x0e26ade1f5a99bd6b5d40f870a87bfe143db68b6",
          "topics": [
            "0xc039c75cef0904723584eecbad08281b7298a16c9fadc7dbbb576359df79c1de"
          ],
          "data": "0x0000000000000000000000000000000000000000000000000000000000000000",
          "blockHash": "0xee270504d60b9278f13f21e7262e06e53fd6ef1fda813d1ede796af3e25bf12c",
          "blockNumber": "0x3e9e",
          "blockTimestamp": "0x66f0dff3",
          "transactionHash": "0x462ec037608e5b262863a3f0ba908b8d2c59ee9e4f53911f24aae46f2453692b",
          "transactionIndex": "0x5",
          "logIndex": "0x21",
          "removed": false
        },
        {
          "address": "0x0e26ade1f5a99bd6b5d40f870a87bfe143db68b6",
          "topics": [
            "0x84f12763861d318f97fe38a0e6f70b46f0566462d67561978f0f4dff814031df"
          ],
          "data": "0x00000000000000000000000000000000000000000000000000000000000000000000000000000000000000000000000000000000000000000000000000000001ffffffffffffffffffffffffffffffffffffffffffffffffffffffffffffffff00000000000000000000000000000000000000000000000000000000000003e8",
          "blockHash": "0xee270504d60b9278f13f21e7262e06e53fd6ef1fda813d1ede796af3e25bf12c",
          "blockNumber": "0x3e9e",
          "blockTimestamp": "0x66f0dff3",
          "transactionHash": "0x462ec037608e5b262863a3f0ba908b8d2c59ee9e4f53911f24aae46f2453692b",
          "transactionIndex": "0x5",
          "logIndex": "0x22",
          "removed": false
        }
      ],
      "logsBloom": "0x00000000000000000000000000000000000000000010000000000000000000000000000000000000000000000000000000000000000000000000000028000000000000000000000000000000000000000000000000000000000000000000000000000000000000000000000000000000000000000000000000000000000000000000000000000000000000000000000010000000000000000000000000000000080100000000000000000000000000000000000000000000000000000000000000000000000000000000080000000000000000000000000000000000000000000000000000000000000400000000000010000000000000000000000000000000",
      "type": "0x2",
      "transactionHash": "0x462ec037608e5b262863a3f0ba908b8d2c59ee9e4f53911f24aae46f2453692b",
      "transactionIndex": "0x5",
      "blockHash": "0xee270504d60b9278f13f21e7262e06e53fd6ef1fda813d1ede796af3e25bf12c",
      "blockNumber": "0x3e9e",
      "gasUsed": "0x1ffa3",
      "effectiveGasPrice": "0x8",
      "from": "0xc1612c97537c2cc62a11fc4516367ab6f62d4b23",
      "to": "0x0e26ade1f5a99bd6b5d40f870a87bfe143db68b6",
      "contractAddress": null
    },
    {
      "status": "0x1",
      "cumulativeGasUsed": "0x43cfc0",
      "logs": [
        {
          "address": "0x25d45a942405834b963c84b66418514c81b2f8c7",
          "topics": [
            "0x2f8788117e7eff1d82e926ec794901d17c78024a50270940304540a733656f0d",
            "0x9f2df0fed2c77648de5860a4cc508cd0818c85b8b8a1ab4ceeef8d981c8956a6",
            "0x0000000000000000000000000e26ade1f5a99bd6b5d40f870a87bfe143db68b6",
            "0x000000000000000000000000c1612c97537c2cc62a11fc4516367ab6f62d4b23"
          ],
          "data": "0x",
          "blockHash": "0xee270504d60b9278f13f21e7262e06e53fd6ef1fda813d1ede796af3e25bf12c",
          "blockNumber": "0x3e9e",
          "blockTimestamp": "0x66f0dff3",
          "transactionHash": "0xa1fc7fd9c6ccad0d8b15c10f3f8724e2896efeeff8a2b0bfa3f3e81897bb721e",
          "transactionIndex": "0x6",
          "logIndex": "0x23",
          "removed": false
        }
      ],
      "logsBloom": "0x20000004000000000000000000000200000000000000000000000000000000008000000000000000000000000000004000000000000000000000000000000000000000000000000000000000000000000000000000000000000000200000000001000000000000000000000000000000000000000040000000000000001000000000000000000000000000000000000000000000000000000000000000000000000000000400000000000000000000000000000000000000001000000000000000000000000000000000000000000000001000000020000100000000000000000000000000000000000000000000000000000000000000000000000000000000",
      "type": "0x2",
      "transactionHash": "0xa1fc7fd9c6ccad0d8b15c10f3f8724e2896efeeff8a2b0bfa3f3e81897bb721e",
      "transactionIndex": "0x6",
      "blockHash": "0xee270504d60b9278f13f21e7262e06e53fd6ef1fda813d1ede796af3e25bf12c",
      "blockNumber": "0x3e9e",
      "gasUsed": "0xdcf3",
      "effectiveGasPrice": "0x8",
      "from": "0xc1612c97537c2cc62a11fc4516367ab6f62d4b23",
      "to": "0x25d45a942405834b963c84b66418514c81b2f8c7",
      "contractAddress": null
    },
    {
      "status": "0x1",
      "cumulativeGasUsed": "0x44db53",
      "logs": [
        {
          "address": "0x0e26ade1f5a99bd6b5d40f870a87bfe143db68b6",
          "topics": [
            "0x29ef6e5e7533f5e04f1729a119b0acf31837e10f8a66e61d22dedd180d0221e9"
          ],
          "data": "0x00000000000000000000000025d45a942405834b963c84b66418514c81b2f8c7",
          "blockHash": "0xee270504d60b9278f13f21e7262e06e53fd6ef1fda813d1ede796af3e25bf12c",
          "blockNumber": "0x3e9e",
          "blockTimestamp": "0x66f0dff3",
          "transactionHash": "0x3523898b7c764ac0e60fa207b030f30acbd6df9024802f2e9751e9604ccc0e2a",
          "transactionIndex": "0x7",
          "logIndex": "0x24",
          "removed": false
        },
        {
          "address": "0x0e26ade1f5a99bd6b5d40f870a87bfe143db68b6",
          "topics": [
            "0x84f12763861d318f97fe38a0e6f70b46f0566462d67561978f0f4dff814031df"
          ],
          "data": "0x00000000000000000000000025d45a942405834b963c84b66418514c81b2f8c70000000000000000000000000000000000000000000000000000000000000000ffffffffffffffffffffffffffffffffffffffffffffffffffffffffffffffff00000000000000000000000000000000000000000000000000000000000003e8",
          "blockHash": "0xee270504d60b9278f13f21e7262e06e53fd6ef1fda813d1ede796af3e25bf12c",
          "blockNumber": "0x3e9e",
          "blockTimestamp": "0x66f0dff3",
          "transactionHash": "0x3523898b7c764ac0e60fa207b030f30acbd6df9024802f2e9751e9604ccc0e2a",
          "transactionIndex": "0x7",
          "logIndex": "0x25",
          "removed": false
        }
      ],
      "logsBloom": "0x00000000800000000000000000000000000000000000000000000000000000000000000000000000000000000000000000000000000000000000000000000000000000000000000000000000000000080000000000000000000000000000000000000000000000000000000000000000000000000000000000000000000000000000000000000000000000000000000010000000000000000001000000000000080100000000000000000000000000000000000000000000000000000000000000000000000000000000080000000000000000000000000000000000000000000000000000000000000400000000000010000000000000000000000000000000",
      "type": "0x2",
      "transactionHash": "0x3523898b7c764ac0e60fa207b030f30acbd6df9024802f2e9751e9604ccc0e2a",
      "transactionIndex": "0x7",
      "blockHash": "0xee270504d60b9278f13f21e7262e06e53fd6ef1fda813d1ede796af3e25bf12c",
      "blockNumber": "0x3e9e",
      "gasUsed": "0x10b93",
      "effectiveGasPrice": "0x8",
      "from": "0xc1612c97537c2cc62a11fc4516367ab6f62d4b23",
      "to": "0x0e26ade1f5a99bd6b5d40f870a87bfe143db68b6",
      "contractAddress": null
    },
    {
      "status": "0x1",
      "cumulativeGasUsed": "0x45b846",
      "logs": [
        {
          "address": "0x5fe291dd7b6a35502a51814df5e51a461b9c085f",
          "topics": [
            "0x2f8788117e7eff1d82e926ec794901d17c78024a50270940304540a733656f0d",
            "0x9f2df0fed2c77648de5860a4cc508cd0818c85b8b8a1ab4ceeef8d981c8956a6",
            "0x0000000000000000000000000e26ade1f5a99bd6b5d40f870a87bfe143db68b6",
            "0x000000000000000000000000c1612c97537c2cc62a11fc4516367ab6f62d4b23"
          ],
          "data": "0x",
          "blockHash": "0xee270504d60b9278f13f21e7262e06e53fd6ef1fda813d1ede796af3e25bf12c",
          "blockNumber": "0x3e9e",
          "blockTimestamp": "0x66f0dff3",
          "transactionHash": "0x3a0bd24b760d4974bb2e0f49b73d8797f20d23765746caa1d348185fa1cbc642",
          "transactionIndex": "0x8",
          "logIndex": "0x26",
          "removed": false
        }
      ],
      "logsBloom": "0x20000004000000000000000000000200000000000000000020000000000000000000000000000000000000000000004000000000000000000000000000000000000000000000000000000000000000000000000000000000000000200000000000000001000000000000000000000000000000000000000000000000001000000000000000000000000000000000000000000000000000000000000000000000000000000400000000000000000040000000000000000000001000000000000000000000000000000000000000000000001000000020000100000000000000000000000000000000000000000000000000000000000000000000000000000000",
      "type": "0x2",
      "transactionHash": "0x3a0bd24b760d4974bb2e0f49b73d8797f20d23765746caa1d348185fa1cbc642",
      "transactionIndex": "0x8",
      "blockHash": "0xee270504d60b9278f13f21e7262e06e53fd6ef1fda813d1ede796af3e25bf12c",
      "blockNumber": "0x3e9e",
      "gasUsed": "0xdcf3",
      "effectiveGasPrice": "0x8",
      "from": "0xc1612c97537c2cc62a11fc4516367ab6f62d4b23",
      "to": "0x5fe291dd7b6a35502a51814df5e51a461b9c085f",
      "contractAddress": null
    },
    {
      "status": "0x1",
      "cumulativeGasUsed": "0x46c5b1",
      "logs": [
        {
          "address": "0x0e26ade1f5a99bd6b5d40f870a87bfe143db68b6",
          "topics": [
            "0x29ef6e5e7533f5e04f1729a119b0acf31837e10f8a66e61d22dedd180d0221e9"
          ],
          "data": "0x0000000000000000000000005fe291dd7b6a35502a51814df5e51a461b9c085f",
          "blockHash": "0xee270504d60b9278f13f21e7262e06e53fd6ef1fda813d1ede796af3e25bf12c",
          "blockNumber": "0x3e9e",
          "blockTimestamp": "0x66f0dff3",
          "transactionHash": "0xdeff46424a286e54080420401e47b16c935b1b12443bdf592a831f4e23d67b4b",
          "transactionIndex": "0x9",
          "logIndex": "0x27",
          "removed": false
        },
        {
          "address": "0x0e26ade1f5a99bd6b5d40f870a87bfe143db68b6",
          "topics": [
            "0x84f12763861d318f97fe38a0e6f70b46f0566462d67561978f0f4dff814031df"
          ],
          "data": "0x0000000000000000000000005fe291dd7b6a35502a51814df5e51a461b9c085f0000000000000000000000000000000000000000000000000000000000000000ffffffffffffffffffffffffffffffffffffffffffffffffffffffffffffffff00000000000000000000000000000000000000000000000000000000000003e8",
          "blockHash": "0xee270504d60b9278f13f21e7262e06e53fd6ef1fda813d1ede796af3e25bf12c",
          "blockNumber": "0x3e9e",
          "blockTimestamp": "0x66f0dff3",
          "transactionHash": "0xdeff46424a286e54080420401e47b16c935b1b12443bdf592a831f4e23d67b4b",
          "transactionIndex": "0x9",
          "logIndex": "0x28",
          "removed": false
        }
      ],
      "logsBloom": "0x00000000800000000000000000000000000000000000000000000000000000000000000000000000000000000000000000000000000000000000000000000000000000000000000000000000000000080000000000000000000000000000000000000000000000000000000000000000000000000000000000000000000000000000000000000000000000000000000010000000000000000001000000000000080100000000000000000000000000000000000000000000000000000000000000000000000000000000080000000000000000000000000000000000000000000000000000000000000400000000000010000000000000000000000000000000",
      "type": "0x2",
      "transactionHash": "0xdeff46424a286e54080420401e47b16c935b1b12443bdf592a831f4e23d67b4b",
      "transactionIndex": "0x9",
      "blockHash": "0xee270504d60b9278f13f21e7262e06e53fd6ef1fda813d1ede796af3e25bf12c",
      "blockNumber": "0x3e9e",
      "gasUsed": "0x10d6b",
      "effectiveGasPrice": "0x8",
      "from": "0xc1612c97537c2cc62a11fc4516367ab6f62d4b23",
      "to": "0x0e26ade1f5a99bd6b5d40f870a87bfe143db68b6",
      "contractAddress": null
    }
  ],
  "libraries": [],
  "pending": [],
  "returns": {},
  "timestamp": 1727062243,
  "chain": 2017,
  "commit": "4ac8ee7"
}