{
  "transactions": [
    {
      "hash": "0xb844e1c1ec193d1d5d8e581e25e4503d5d6c9e6d56632b16c78550ab80f2be11",
      "transactionType": "CALL",
      "contractName": null,
      "contractAddress": "0x3da87b1c3743bd2da60df2ef1bc6f26ef9da6086",
      "function": null,
      "arguments": null,
      "transaction": {
        "from": "0xc1612c97537c2cc62a11fc4516367ab6f62d4b23",
        "to": "0x3da87b1c3743bd2da60df2ef1bc6f26ef9da6086",
        "gas": "0x714d",
        "value": "0xde0b6b3a7640000",
        "input": "0x",
        "nonce": "0x5c",
        "chainId": "0x7e1"
      },
      "additionalContracts": [],
      "isFixedGasLimit": false
    },
    {
      "hash": "0xceb1db8dadbccc344bc2334083fb2047825dcc82e792cd15b464ef3fd7e60bb2",
      "transactionType": "CALL",
      "contractName": null,
      "contractAddress": "0x5c78ebbcfdc8fd432c6d7581f6f8e6b82079f24a",
      "function": "deposit()",
      "arguments": [],
      "transaction": {
        "from": "0xc1612c97537c2cc62a11fc4516367ab6f62d4b23",
        "to": "0x5c78ebbcfdc8fd432c6d7581f6f8e6b82079f24a",
        "gas": "0x16ba7",
        "value": "0x21e19e0c9bab2400000",
        "input": "0xd0e30db0",
        "nonce": "0x5d",
        "chainId": "0x7e1"
      },
      "additionalContracts": [],
      "isFixedGasLimit": false
    },
    {
      "hash": "0xe0bda17a10d12a4c8cfe772ff9ad13f133f5eee5ce4f5161a5985b7d869a60df",
      "transactionType": "CALL",
      "contractName": null,
      "contractAddress": "0x5c78ebbcfdc8fd432c6d7581f6f8e6b82079f24a",
      "function": "transfer(address,uint256)",
      "arguments": [
        "0x3da87b1c3743BD2dA60DF2ef1BC6F26Ef9Da6086",
        "10000000000000000000000"
      ],
      "transaction": {
        "from": "0xc1612c97537c2cc62a11fc4516367ab6f62d4b23",
        "to": "0x5c78ebbcfdc8fd432c6d7581f6f8e6b82079f24a",
        "gas": "0xfa29",
        "value": "0x0",
        "input": "0xa9059cbb0000000000000000000000003da87b1c3743bd2da60df2ef1bc6f26ef9da608600000000000000000000000000000000000000000000021e19e0c9bab2400000",
        "nonce": "0x5e",
        "chainId": "0x7e1"
      },
      "additionalContracts": [],
      "isFixedGasLimit": false
    },
    {
      "hash": "0x73b2391726cd57b01a0c81b853425e58e148b5f476c5d12e56e3364bb2ba1ee4",
      "transactionType": "CALL",
      "contractName": null,
      "contractAddress": "0x25d45a942405834b963c84b66418514c81b2f8c7",
      "function": "mint(uint256)",
      "arguments": [
        "10000000000"
      ],
      "transaction": {
        "from": "0xc1612c97537c2cc62a11fc4516367ab6f62d4b23",
        "to": "0x25d45a942405834b963c84b66418514c81b2f8c7",
        "gas": "0x1aeec",
        "value": "0x0",
        "input": "0xa0712d6800000000000000000000000000000000000000000000000000000002540be400",
        "nonce": "0x5f",
        "chainId": "0x7e1"
      },
      "additionalContracts": [],
      "isFixedGasLimit": false
    },
    {
      "hash": "0xf2d355de1197eb77d178a2508bf158fdc5d52bfe63a5e0f8761cba5f785bb684",
      "transactionType": "CALL",
      "contractName": null,
      "contractAddress": "0x25d45a942405834b963c84b66418514c81b2f8c7",
      "function": "transfer(address,uint256)",
      "arguments": [
        "0x3da87b1c3743BD2dA60DF2ef1BC6F26Ef9Da6086",
        "10000000000"
      ],
      "transaction": {
        "from": "0xc1612c97537c2cc62a11fc4516367ab6f62d4b23",
        "to": "0x25d45a942405834b963c84b66418514c81b2f8c7",
        "gas": "0x12f2f",
        "value": "0x0",
        "input": "0xa9059cbb0000000000000000000000003da87b1c3743bd2da60df2ef1bc6f26ef9da608600000000000000000000000000000000000000000000000000000002540be400",
        "nonce": "0x60",
        "chainId": "0x7e1"
      },
      "additionalContracts": [],
      "isFixedGasLimit": false
    },
    {
      "hash": "0xd40ab3f9e26a963b960ab4778e2780530910863b7f9c672c40eafdef04bc5dc5",
      "transactionType": "CALL",
      "contractName": null,
      "contractAddress": "0x5fe291dd7b6a35502a51814df5e51a461b9c085f",
      "function": "mint(uint256)",
      "arguments": [
        "10000000000"
      ],
      "transaction": {
        "from": "0xc1612c97537c2cc62a11fc4516367ab6f62d4b23",
        "to": "0x5fe291dd7b6a35502a51814df5e51a461b9c085f",
        "gas": "0x1aeec",
        "value": "0x0",
        "input": "0xa0712d6800000000000000000000000000000000000000000000000000000002540be400",
        "nonce": "0x61",
        "chainId": "0x7e1"
      },
      "additionalContracts": [],
      "isFixedGasLimit": false
    },
    {
      "hash": "0x8e8716ef421b0ee4c4bd371fae144c3ed79d9bb7018045b2d23df62da6849032",
      "transactionType": "CALL",
      "contractName": null,
      "contractAddress": "0x5fe291dd7b6a35502a51814df5e51a461b9c085f",
      "function": "transfer(address,uint256)",
      "arguments": [
        "0x3da87b1c3743BD2dA60DF2ef1BC6F26Ef9Da6086",
        "10000000000"
      ],
      "transaction": {
        "from": "0xc1612c97537c2cc62a11fc4516367ab6f62d4b23",
        "to": "0x5fe291dd7b6a35502a51814df5e51a461b9c085f",
        "gas": "0x12f2f",
        "value": "0x0",
        "input": "0xa9059cbb0000000000000000000000003da87b1c3743bd2da60df2ef1bc6f26ef9da608600000000000000000000000000000000000000000000000000000002540be400",
        "nonce": "0x62",
        "chainId": "0x7e1"
      },
      "additionalContracts": [],
      "isFixedGasLimit": false
    },
    {
      "hash": "0x0a220c2ab34c6da386fce65de88f75e199fa90d306e4743e1b97b230adbec9eb",
      "transactionType": "CALL",
      "contractName": null,
      "contractAddress": "0x3a60acd97fea737ddd3e8fb2070601c19ac22699",
      "function": "mint(uint256)",
      "arguments": [
        "10000000000"
      ],
      "transaction": {
        "from": "0xc1612c97537c2cc62a11fc4516367ab6f62d4b23",
        "to": "0x3a60acd97fea737ddd3e8fb2070601c19ac22699",
        "gas": "0x1aeec",
        "value": "0x0",
        "input": "0xa0712d6800000000000000000000000000000000000000000000000000000002540be400",
        "nonce": "0x63",
        "chainId": "0x7e1"
      },
      "additionalContracts": [],
      "isFixedGasLimit": false
    },
    {
      "hash": "0x043c0dd78b07256dc192dbea9a9848c6e0331d62826901a9c29ce4c37494f04d",
      "transactionType": "CALL",
      "contractName": null,
      "contractAddress": "0x3a60acd97fea737ddd3e8fb2070601c19ac22699",
      "function": "transfer(address,uint256)",
      "arguments": [
        "0x3da87b1c3743BD2dA60DF2ef1BC6F26Ef9Da6086",
        "10000000000"
      ],
      "transaction": {
        "from": "0xc1612c97537c2cc62a11fc4516367ab6f62d4b23",
        "to": "0x3a60acd97fea737ddd3e8fb2070601c19ac22699",
        "gas": "0x12f2f",
        "value": "0x0",
        "input": "0xa9059cbb0000000000000000000000003da87b1c3743bd2da60df2ef1bc6f26ef9da608600000000000000000000000000000000000000000000000000000002540be400",
        "nonce": "0x64",
        "chainId": "0x7e1"
      },
      "additionalContracts": [],
      "isFixedGasLimit": false
    },
    {
      "hash": "0x59091e865bed1495b42a6abfbbafc260ad589895357aefdadba98a80b3d378c9",
      "transactionType": "CALL",
      "contractName": null,
      "contractAddress": "0x7c76c4f1f0ae16fb6648c8a0abf9f19ad6c059d9",
      "function": "mint(uint256)",
      "arguments": [
        "10000000000"
      ],
      "transaction": {
        "from": "0xc1612c97537c2cc62a11fc4516367ab6f62d4b23",
        "to": "0x7c76c4f1f0ae16fb6648c8a0abf9f19ad6c059d9",
        "gas": "0x1aeec",
        "value": "0x0",
        "input": "0xa0712d6800000000000000000000000000000000000000000000000000000002540be400",
        "nonce": "0x65",
        "chainId": "0x7e1"
      },
      "additionalContracts": [],
      "isFixedGasLimit": false
    },
    {
      "hash": "0x8b89099fac54cc9692d1e936bcac39376f4f5403a38b0715fb79f9d24d8dc5e4",
      "transactionType": "CALL",
      "contractName": null,
      "contractAddress": "0x7c76c4f1f0ae16fb6648c8a0abf9f19ad6c059d9",
      "function": "transfer(address,uint256)",
      "arguments": [
        "0x3da87b1c3743BD2dA60DF2ef1BC6F26Ef9Da6086",
        "10000000000"
      ],
      "transaction": {
        "from": "0xc1612c97537c2cc62a11fc4516367ab6f62d4b23",
        "to": "0x7c76c4f1f0ae16fb6648c8a0abf9f19ad6c059d9",
        "gas": "0x12f2f",
        "value": "0x0",
        "input": "0xa9059cbb0000000000000000000000003da87b1c3743bd2da60df2ef1bc6f26ef9da608600000000000000000000000000000000000000000000000000000002540be400",
        "nonce": "0x66",
        "chainId": "0x7e1"
      },
      "additionalContracts": [],
      "isFixedGasLimit": false
    },
    {
      "hash": "0x8767af5526d6c4c4d31029b57e8c43d6f62e36a5b224fdd2cc511031d7065109",
      "transactionType": "CALL",
      "contractName": null,
      "contractAddress": "0xf84548d35a90d8b107019478188a3791f3b8f6c1",
      "function": "mint(uint256)",
      "arguments": [
        "10000000000"
      ],
      "transaction": {
        "from": "0xc1612c97537c2cc62a11fc4516367ab6f62d4b23",
        "to": "0xf84548d35a90d8b107019478188a3791f3b8f6c1",
        "gas": "0x1aeec",
        "value": "0x0",
        "input": "0xa0712d6800000000000000000000000000000000000000000000000000000002540be400",
        "nonce": "0x67",
        "chainId": "0x7e1"
      },
      "additionalContracts": [],
      "isFixedGasLimit": false
    },
    {
      "hash": "0xd2921feebe77a990890799160e94b66438ac1ae0f642046cd8038b5eb407ea66",
      "transactionType": "CALL",
      "contractName": null,
      "contractAddress": "0xf84548d35a90d8b107019478188a3791f3b8f6c1",
      "function": "transfer(address,uint256)",
      "arguments": [
        "0x3da87b1c3743BD2dA60DF2ef1BC6F26Ef9Da6086",
        "10000000000"
      ],
      "transaction": {
        "from": "0xc1612c97537c2cc62a11fc4516367ab6f62d4b23",
        "to": "0xf84548d35a90d8b107019478188a3791f3b8f6c1",
        "gas": "0x12f2f",
        "value": "0x0",
        "input": "0xa9059cbb0000000000000000000000003da87b1c3743bd2da60df2ef1bc6f26ef9da608600000000000000000000000000000000000000000000000000000002540be400",
        "nonce": "0x68",
        "chainId": "0x7e1"
      },
      "additionalContracts": [],
      "isFixedGasLimit": false
    },
    {
      "hash": "0xbbe53247a8b937a28dfa71ef00d31371ef67e26be36cdbc1a0a7552768cc2057",
      "transactionType": "CALL",
      "contractName": null,
      "contractAddress": "0x5cc307482eaba4c03526c00b6d6f5e05949550d9",
      "function": "mint(uint256)",
      "arguments": [
        "10000000000"
      ],
      "transaction": {
        "from": "0xc1612c97537c2cc62a11fc4516367ab6f62d4b23",
        "to": "0x5cc307482eaba4c03526c00b6d6f5e05949550d9",
        "gas": "0x1aeec",
        "value": "0x0",
        "input": "0xa0712d6800000000000000000000000000000000000000000000000000000002540be400",
        "nonce": "0x69",
        "chainId": "0x7e1"
      },
      "additionalContracts": [],
      "isFixedGasLimit": false
    },
    {
      "hash": "0x48cd6dd3c8b0a44ead248c41918b3de9a4e30e09c8fffc903e588c417a46c2a2",
      "transactionType": "CALL",
      "contractName": null,
      "contractAddress": "0x5cc307482eaba4c03526c00b6d6f5e05949550d9",
      "function": "transfer(address,uint256)",
      "arguments": [
        "0x3da87b1c3743BD2dA60DF2ef1BC6F26Ef9Da6086",
        "10000000000"
      ],
      "transaction": {
        "from": "0xc1612c97537c2cc62a11fc4516367ab6f62d4b23",
        "to": "0x5cc307482eaba4c03526c00b6d6f5e05949550d9",
        "gas": "0x12f2f",
        "value": "0x0",
        "input": "0xa9059cbb0000000000000000000000003da87b1c3743bd2da60df2ef1bc6f26ef9da608600000000000000000000000000000000000000000000000000000002540be400",
        "nonce": "0x6a",
        "chainId": "0x7e1"
      },
      "additionalContracts": [],
      "isFixedGasLimit": false
    },
    {
      "hash": "0xd8fd0cd75c78aa0620feda384379282c18b1e9310fcaf5203faa8b4158cc91f3",
      "transactionType": "CALL",
      "contractName": null,
      "contractAddress": "0x989251ff79b744736a91c617dde3d3b5da2c09ef",
      "function": "mint(uint256)",
      "arguments": [
        "10000000000"
      ],
      "transaction": {
        "from": "0xc1612c97537c2cc62a11fc4516367ab6f62d4b23",
        "to": "0x989251ff79b744736a91c617dde3d3b5da2c09ef",
        "gas": "0x1aeec",
        "value": "0x0",
        "input": "0xa0712d6800000000000000000000000000000000000000000000000000000002540be400",
        "nonce": "0x6b",
        "chainId": "0x7e1"
      },
      "additionalContracts": [],
      "isFixedGasLimit": false
    },
    {
      "hash": "0xa601ba77e0390f072bfb8e92f200969da0293d971cde12f6c372cb56cdd2da5d",
      "transactionType": "CALL",
      "contractName": null,
      "contractAddress": "0x989251ff79b744736a91c617dde3d3b5da2c09ef",
      "function": "transfer(address,uint256)",
      "arguments": [
        "0x3da87b1c3743BD2dA60DF2ef1BC6F26Ef9Da6086",
        "10000000000"
      ],
      "transaction": {
        "from": "0xc1612c97537c2cc62a11fc4516367ab6f62d4b23",
        "to": "0x989251ff79b744736a91c617dde3d3b5da2c09ef",
        "gas": "0x12f2f",
        "value": "0x0",
        "input": "0xa9059cbb0000000000000000000000003da87b1c3743bd2da60df2ef1bc6f26ef9da608600000000000000000000000000000000000000000000000000000002540be400",
        "nonce": "0x6c",
        "chainId": "0x7e1"
      },
      "additionalContracts": [],
      "isFixedGasLimit": false
    },
    {
      "hash": "0xd0eeb1f7a96297bf0a21a43d4ae9c501b376d4544dd13d06e268d101c283404f",
      "transactionType": "CALL",
      "contractName": null,
      "contractAddress": "0x7e27fc84da5e35097982fda7b2c93e8ce4fb5817",
      "function": "mint(uint256)",
      "arguments": [
        "10000000000"
      ],
      "transaction": {
        "from": "0xc1612c97537c2cc62a11fc4516367ab6f62d4b23",
        "to": "0x7e27fc84da5e35097982fda7b2c93e8ce4fb5817",
        "gas": "0x1aeec",
        "value": "0x0",
        "input": "0xa0712d6800000000000000000000000000000000000000000000000000000002540be400",
        "nonce": "0x6d",
        "chainId": "0x7e1"
      },
      "additionalContracts": [],
      "isFixedGasLimit": false
    },
    {
      "hash": "0x3ef89cca3a3eb2423626332ea442b2475ec53eb69f7858936fbaa104f4cbe729",
      "transactionType": "CALL",
      "contractName": null,
      "contractAddress": "0x7e27fc84da5e35097982fda7b2c93e8ce4fb5817",
      "function": "transfer(address,uint256)",
      "arguments": [
        "0x3da87b1c3743BD2dA60DF2ef1BC6F26Ef9Da6086",
        "10000000000"
      ],
      "transaction": {
        "from": "0xc1612c97537c2cc62a11fc4516367ab6f62d4b23",
        "to": "0x7e27fc84da5e35097982fda7b2c93e8ce4fb5817",
        "gas": "0x12f2f",
        "value": "0x0",
        "input": "0xa9059cbb0000000000000000000000003da87b1c3743bd2da60df2ef1bc6f26ef9da608600000000000000000000000000000000000000000000000000000002540be400",
        "nonce": "0x6e",
        "chainId": "0x7e1"
      },
      "additionalContracts": [],
      "isFixedGasLimit": false
    },
    {
      "hash": "0xa0168a16e917d0adf4b78f8a397c4e30c52720a56c2eb63c1a489c29bd4ea3d5",
      "transactionType": "CALL",
      "contractName": null,
      "contractAddress": "0xc8156af812714b8cedb540adec69fc104d99930b",
      "function": "mint(uint256)",
      "arguments": [
        "10000000000"
      ],
      "transaction": {
        "from": "0xc1612c97537c2cc62a11fc4516367ab6f62d4b23",
        "to": "0xc8156af812714b8cedb540adec69fc104d99930b",
        "gas": "0x1aeec",
        "value": "0x0",
        "input": "0xa0712d6800000000000000000000000000000000000000000000000000000002540be400",
        "nonce": "0x6f",
        "chainId": "0x7e1"
      },
      "additionalContracts": [],
      "isFixedGasLimit": false
    },
    {
      "hash": "0xcf33607c61c972eb7e467d1a12cc3486a336272dbc1231f79b646a1e107f648b",
      "transactionType": "CALL",
      "contractName": null,
      "contractAddress": "0xc8156af812714b8cedb540adec69fc104d99930b",
      "function": "transfer(address,uint256)",
      "arguments": [
        "0x3da87b1c3743BD2dA60DF2ef1BC6F26Ef9Da6086",
        "10000000000"
      ],
      "transaction": {
        "from": "0xc1612c97537c2cc62a11fc4516367ab6f62d4b23",
        "to": "0xc8156af812714b8cedb540adec69fc104d99930b",
        "gas": "0x12f2f",
        "value": "0x0",
        "input": "0xa9059cbb0000000000000000000000003da87b1c3743bd2da60df2ef1bc6f26ef9da608600000000000000000000000000000000000000000000000000000002540be400",
        "nonce": "0x70",
        "chainId": "0x7e1"
      },
      "additionalContracts": [],
      "isFixedGasLimit": false
    },
    {
      "hash": "0x130b0d209e62f51d4460f094cf0c49eb90a060c6bc306d69740a48792c5faebf",
      "transactionType": "CALL",
      "contractName": null,
      "contractAddress": "0x356ccc8a7cbe1eadf0282e6c23278b0e67fb3f91",
      "function": "mint(uint256)",
      "arguments": [
        "10000000000"
      ],
      "transaction": {
        "from": "0xc1612c97537c2cc62a11fc4516367ab6f62d4b23",
        "to": "0x356ccc8a7cbe1eadf0282e6c23278b0e67fb3f91",
        "gas": "0x1aeec",
        "value": "0x0",
        "input": "0xa0712d6800000000000000000000000000000000000000000000000000000002540be400",
        "nonce": "0x71",
        "chainId": "0x7e1"
      },
      "additionalContracts": [],
      "isFixedGasLimit": false
    },
    {
      "hash": "0x1e4c86b3e701fb786ca413359ac6aacad58f49c7c34154a19c469cca646b0893",
      "transactionType": "CALL",
      "contractName": null,
      "contractAddress": "0x356ccc8a7cbe1eadf0282e6c23278b0e67fb3f91",
      "function": "transfer(address,uint256)",
      "arguments": [
        "0x3da87b1c3743BD2dA60DF2ef1BC6F26Ef9Da6086",
        "10000000000"
      ],
      "transaction": {
        "from": "0xc1612c97537c2cc62a11fc4516367ab6f62d4b23",
        "to": "0x356ccc8a7cbe1eadf0282e6c23278b0e67fb3f91",
        "gas": "0x12f2f",
        "value": "0x0",
        "input": "0xa9059cbb0000000000000000000000003da87b1c3743bd2da60df2ef1bc6f26ef9da608600000000000000000000000000000000000000000000000000000002540be400",
        "nonce": "0x72",
        "chainId": "0x7e1"
      },
      "additionalContracts": [],
      "isFixedGasLimit": false
    },
    {
      "hash": "0xcb6506aa13a29ec67dc9ad938913d2d70b29b3fd46401e6b00a494f2fe8f317b",
      "transactionType": "CALL",
      "contractName": null,
      "contractAddress": "0x5404f8b4f4625cff045a3076bc28c250a71e4507",
      "function": "mint(uint256)",
      "arguments": [
        "10000000000"
      ],
      "transaction": {
        "from": "0xc1612c97537c2cc62a11fc4516367ab6f62d4b23",
        "to": "0x5404f8b4f4625cff045a3076bc28c250a71e4507",
        "gas": "0x1aeec",
        "value": "0x0",
        "input": "0xa0712d6800000000000000000000000000000000000000000000000000000002540be400",
        "nonce": "0x73",
        "chainId": "0x7e1"
      },
      "additionalContracts": [],
      "isFixedGasLimit": false
    },
    {
      "hash": "0x2282f3b3a7efcddf64a428bd0fff56fb42cc776bba9e25ac4f513ab0960a56f7",
      "transactionType": "CALL",
      "contractName": null,
      "contractAddress": "0x5404f8b4f4625cff045a3076bc28c250a71e4507",
      "function": "transfer(address,uint256)",
      "arguments": [
        "0x3da87b1c3743BD2dA60DF2ef1BC6F26Ef9Da6086",
        "10000000000"
      ],
      "transaction": {
        "from": "0xc1612c97537c2cc62a11fc4516367ab6f62d4b23",
        "to": "0x5404f8b4f4625cff045a3076bc28c250a71e4507",
        "gas": "0x12f2f",
        "value": "0x0",
        "input": "0xa9059cbb0000000000000000000000003da87b1c3743bd2da60df2ef1bc6f26ef9da608600000000000000000000000000000000000000000000000000000002540be400",
        "nonce": "0x74",
        "chainId": "0x7e1"
      },
      "additionalContracts": [],
      "isFixedGasLimit": false
    }
  ],
  "receipts": [],
  "libraries": [],
  "pending": [],
  "returns": {},
  "timestamp": 1727067343,
  "chain": 2017,
  "commit": "220703d"
}