{
  "transactions": [
    {
      "hash": "0xa100d9b2baa182aed1ec2cacfa8c8910c16c259e4f0feb069eeb2d59f9e301a4",
      "transactionType": "CALL",
      "contractName": null,
      "contractAddress": "0x3da87b1c3743BD2dA60DF2ef1BC6F26Ef9Da6086",
      "function": null,
      "arguments": null,
      "transaction": {
        "from": "0xc1612C97537c2CC62a11FC4516367AB6F62d4B23",
        "to": "0x3da87b1c3743BD2dA60DF2ef1BC6F26Ef9Da6086",
        "gas": "0x714d",
        "value": "0xde0b6b3a7640000",
        "input": "0x",
        "nonce": "0x58",
        "chainId": "0x7e1"
      },
      "additionalContracts": [],
      "isFixedGasLimit": false
    },
    {
      "hash": "0xf918bf08ec941dcd758ed64911547c5d562e59453d6a4d84e4ac640361fa152f",
      "transactionType": "CALL",
      "contractName": null,
      "contractAddress": "0x5c78ebbcfdc8Fd432C6D7581F6F8E6B82079f24a",
      "function": "deposit()",
      "arguments": [],
      "transaction": {
        "from": "0xc1612C97537c2CC62a11FC4516367AB6F62d4B23",
        "to": "0x5c78ebbcfdc8Fd432C6D7581F6F8E6B82079f24a",
        "gas": "0x16ba7",
        "value": "0x21e19e0c9bab2400000",
        "input": "0xd0e30db0",
        "nonce": "0x59",
        "chainId": "0x7e1"
      },
      "additionalContracts": [],
      "isFixedGasLimit": false
    },
    {
      "hash": "0xee55ba485dd8fa1128174b0a5f5b3fc8c432cf326c4fb336b581e91b974b312e",
      "transactionType": "CALL",
      "contractName": null,
      "contractAddress": "0x5c78ebbcfdc8Fd432C6D7581F6F8E6B82079f24a",
      "function": "transfer(address,uint256)",
      "arguments": [
        "0x3da87b1c3743BD2dA60DF2ef1BC6F26Ef9Da6086",
        "10000000000000000000000"
      ],
      "transaction": {
        "from": "0xc1612C97537c2CC62a11FC4516367AB6F62d4B23",
        "to": "0x5c78ebbcfdc8Fd432C6D7581F6F8E6B82079f24a",
        "gas": "0xfa29",
        "value": "0x0",
        "input": "0xa9059cbb0000000000000000000000003da87b1c3743bd2da60df2ef1bc6f26ef9da608600000000000000000000000000000000000000000000021e19e0c9bab2400000",
        "nonce": "0x5a",
        "chainId": "0x7e1"
      },
      "additionalContracts": [],
      "isFixedGasLimit": false
    },
    {
      "hash": "0x2e29258471465f145d1061cf527d516524d2e29f8fb5fbf7bd430e40c6b6a22c",
      "transactionType": "CALL",
      "contractName": null,
      "contractAddress": "0x25D45a942405834B963c84b66418514c81b2f8c7",
      "function": "mint(uint256)",
      "arguments": [
        "10000000000"
      ],
      "transaction": {
        "from": "0xc1612C97537c2CC62a11FC4516367AB6F62d4B23",
        "to": "0x25D45a942405834B963c84b66418514c81b2f8c7",
        "gas": "0x1aeec",
        "value": "0x0",
        "input": "0xa0712d6800000000000000000000000000000000000000000000000000000002540be400",
        "nonce": "0x5b",
        "chainId": "0x7e1"
      },
      "additionalContracts": [],
      "isFixedGasLimit": false
    },
    {
      "hash": "0x762180bdae5db597c60077eac208baed5ef259a4d214f4c6dacec0ae37d436e2",
      "transactionType": "CALL",
      "contractName": null,
      "contractAddress": "0x25D45a942405834B963c84b66418514c81b2f8c7",
      "function": "transfer(address,uint256)",
      "arguments": [
        "0x3da87b1c3743BD2dA60DF2ef1BC6F26Ef9Da6086",
        "10000000000"
      ],
      "transaction": {
        "from": "0xc1612C97537c2CC62a11FC4516367AB6F62d4B23",
        "to": "0x25D45a942405834B963c84b66418514c81b2f8c7",
        "gas": "0x12f2f",
        "value": "0x0",
        "input": "0xa9059cbb0000000000000000000000003da87b1c3743bd2da60df2ef1bc6f26ef9da608600000000000000000000000000000000000000000000000000000002540be400",
        "nonce": "0x5c",
        "chainId": "0x7e1"
      },
      "additionalContracts": [],
      "isFixedGasLimit": false
    },
    {
      "hash": "0xc3eb1915d2698311f5ff07561d28302b5b63db216c2110edddb2ee6ec3d1a9cd",
      "transactionType": "CALL",
      "contractName": null,
      "contractAddress": "0x5fe291dD7b6A35502a51814df5E51A461B9c085f",
      "function": "mint(uint256)",
      "arguments": [
        "10000000000"
      ],
      "transaction": {
        "from": "0xc1612C97537c2CC62a11FC4516367AB6F62d4B23",
        "to": "0x5fe291dD7b6A35502a51814df5E51A461B9c085f",
        "gas": "0x1aeec",
        "value": "0x0",
        "input": "0xa0712d6800000000000000000000000000000000000000000000000000000002540be400",
        "nonce": "0x5d",
        "chainId": "0x7e1"
      },
      "additionalContracts": [],
      "isFixedGasLimit": false
    },
    {
      "hash": "0xcbe380dbc7fd2ebb184196ffd4edbed0208a0fba3407ee555679008f802c17bf",
      "transactionType": "CALL",
      "contractName": null,
      "contractAddress": "0x5fe291dD7b6A35502a51814df5E51A461B9c085f",
      "function": "transfer(address,uint256)",
      "arguments": [
        "0x3da87b1c3743BD2dA60DF2ef1BC6F26Ef9Da6086",
        "10000000000"
      ],
      "transaction": {
        "from": "0xc1612C97537c2CC62a11FC4516367AB6F62d4B23",
        "to": "0x5fe291dD7b6A35502a51814df5E51A461B9c085f",
        "gas": "0x12f2f",
        "value": "0x0",
        "input": "0xa9059cbb0000000000000000000000003da87b1c3743bd2da60df2ef1bc6f26ef9da608600000000000000000000000000000000000000000000000000000002540be400",
        "nonce": "0x5e",
        "chainId": "0x7e1"
      },
      "additionalContracts": [],
      "isFixedGasLimit": false
    },
    {
      "hash": "0x540767423920fb0a21e97bd83e67b1f81e252e8552231ec443f7a441628f654b",
      "transactionType": "CALL",
      "contractName": null,
      "contractAddress": "0x3A60aCD97fEA737ddD3e8FB2070601c19Ac22699",
      "function": "mint(uint256)",
      "arguments": [
        "10000000000"
      ],
      "transaction": {
        "from": "0xc1612C97537c2CC62a11FC4516367AB6F62d4B23",
        "to": "0x3A60aCD97fEA737ddD3e8FB2070601c19Ac22699",
        "gas": "0x1aeec",
        "value": "0x0",
        "input": "0xa0712d6800000000000000000000000000000000000000000000000000000002540be400",
        "nonce": "0x5f",
        "chainId": "0x7e1"
      },
      "additionalContracts": [],
      "isFixedGasLimit": false
    },
    {
      "hash": "0xe9120e0db36f2f4e25da2bf57ee9a8e976dfeca996c20e22b3c85f5130fe2e38",
      "transactionType": "CALL",
      "contractName": null,
      "contractAddress": "0x3A60aCD97fEA737ddD3e8FB2070601c19Ac22699",
      "function": "transfer(address,uint256)",
      "arguments": [
        "0x3da87b1c3743BD2dA60DF2ef1BC6F26Ef9Da6086",
        "10000000000"
      ],
      "transaction": {
        "from": "0xc1612C97537c2CC62a11FC4516367AB6F62d4B23",
        "to": "0x3A60aCD97fEA737ddD3e8FB2070601c19Ac22699",
        "gas": "0x12f2f",
        "value": "0x0",
        "input": "0xa9059cbb0000000000000000000000003da87b1c3743bd2da60df2ef1bc6f26ef9da608600000000000000000000000000000000000000000000000000000002540be400",
        "nonce": "0x60",
        "chainId": "0x7e1"
      },
      "additionalContracts": [],
      "isFixedGasLimit": false
    },
    {
      "hash": "0x593af6a575aba5fcfb362bf888ff621ec9222300db35d46952990cf65be74a15",
      "transactionType": "CALL",
      "contractName": null,
      "contractAddress": "0x7c76C4F1F0ae16Fb6648C8a0aBF9F19ad6c059d9",
      "function": "mint(uint256)",
      "arguments": [
        "10000000000"
      ],
      "transaction": {
        "from": "0xc1612C97537c2CC62a11FC4516367AB6F62d4B23",
        "to": "0x7c76C4F1F0ae16Fb6648C8a0aBF9F19ad6c059d9",
        "gas": "0x1aeec",
        "value": "0x0",
        "input": "0xa0712d6800000000000000000000000000000000000000000000000000000002540be400",
        "nonce": "0x61",
        "chainId": "0x7e1"
      },
      "additionalContracts": [],
      "isFixedGasLimit": false
    },
    {
      "hash": "0x20053e8198172cb483da18a083f429ecec06d9f237ffbcadb05d9e899fee51b3",
      "transactionType": "CALL",
      "contractName": null,
      "contractAddress": "0x7c76C4F1F0ae16Fb6648C8a0aBF9F19ad6c059d9",
      "function": "transfer(address,uint256)",
      "arguments": [
        "0x3da87b1c3743BD2dA60DF2ef1BC6F26Ef9Da6086",
        "10000000000"
      ],
      "transaction": {
        "from": "0xc1612C97537c2CC62a11FC4516367AB6F62d4B23",
        "to": "0x7c76C4F1F0ae16Fb6648C8a0aBF9F19ad6c059d9",
        "gas": "0x12f2f",
        "value": "0x0",
        "input": "0xa9059cbb0000000000000000000000003da87b1c3743bd2da60df2ef1bc6f26ef9da608600000000000000000000000000000000000000000000000000000002540be400",
        "nonce": "0x62",
        "chainId": "0x7e1"
      },
      "additionalContracts": [],
      "isFixedGasLimit": false
    },
    {
      "hash": "0x22021da745d2d90f74f85863a2a5eab6ea9af7a2e846ec0d93fe901f5fd41fef",
      "transactionType": "CALL",
      "contractName": null,
      "contractAddress": "0xF84548d35A90d8B107019478188a3791f3b8f6C1",
      "function": "mint(uint256)",
      "arguments": [
        "10000000000"
      ],
      "transaction": {
        "from": "0xc1612C97537c2CC62a11FC4516367AB6F62d4B23",
        "to": "0xF84548d35A90d8B107019478188a3791f3b8f6C1",
        "gas": "0x1aeec",
        "value": "0x0",
        "input": "0xa0712d6800000000000000000000000000000000000000000000000000000002540be400",
        "nonce": "0x63",
        "chainId": "0x7e1"
      },
      "additionalContracts": [],
      "isFixedGasLimit": false
    },
    {
      "hash": "0x9bdfe3461644884fe0100f120468cd649a88d2fcf38ec05721f6a4a5c39f0465",
      "transactionType": "CALL",
      "contractName": null,
      "contractAddress": "0xF84548d35A90d8B107019478188a3791f3b8f6C1",
      "function": "transfer(address,uint256)",
      "arguments": [
        "0x3da87b1c3743BD2dA60DF2ef1BC6F26Ef9Da6086",
        "10000000000"
      ],
      "transaction": {
        "from": "0xc1612C97537c2CC62a11FC4516367AB6F62d4B23",
        "to": "0xF84548d35A90d8B107019478188a3791f3b8f6C1",
        "gas": "0x12f2f",
        "value": "0x0",
        "input": "0xa9059cbb0000000000000000000000003da87b1c3743bd2da60df2ef1bc6f26ef9da608600000000000000000000000000000000000000000000000000000002540be400",
        "nonce": "0x64",
        "chainId": "0x7e1"
      },
      "additionalContracts": [],
      "isFixedGasLimit": false
    },
    {
      "hash": "0x9a6b4cc6f02f91d2cae839a3c1be120b9f69534af002857af427e535db88457a",
      "transactionType": "CALL",
      "contractName": null,
      "contractAddress": "0x5Cc307482EabA4C03526C00B6D6f5e05949550d9",
      "function": "mint(uint256)",
      "arguments": [
        "10000000000"
      ],
      "transaction": {
        "from": "0xc1612C97537c2CC62a11FC4516367AB6F62d4B23",
        "to": "0x5Cc307482EabA4C03526C00B6D6f5e05949550d9",
        "gas": "0x1aeec",
        "value": "0x0",
        "input": "0xa0712d6800000000000000000000000000000000000000000000000000000002540be400",
        "nonce": "0x65",
        "chainId": "0x7e1"
      },
      "additionalContracts": [],
      "isFixedGasLimit": false
    },
    {
      "hash": "0xad62e2a26ac0c8abd1fcbab40703226c6d60275f7c4b1978b13de3049749ae78",
      "transactionType": "CALL",
      "contractName": null,
      "contractAddress": "0x5Cc307482EabA4C03526C00B6D6f5e05949550d9",
      "function": "transfer(address,uint256)",
      "arguments": [
        "0x3da87b1c3743BD2dA60DF2ef1BC6F26Ef9Da6086",
        "10000000000"
      ],
      "transaction": {
        "from": "0xc1612C97537c2CC62a11FC4516367AB6F62d4B23",
        "to": "0x5Cc307482EabA4C03526C00B6D6f5e05949550d9",
        "gas": "0x12f2f",
        "value": "0x0",
        "input": "0xa9059cbb0000000000000000000000003da87b1c3743bd2da60df2ef1bc6f26ef9da608600000000000000000000000000000000000000000000000000000002540be400",
        "nonce": "0x66",
        "chainId": "0x7e1"
      },
      "additionalContracts": [],
      "isFixedGasLimit": false
    },
    {
      "hash": "0xcd7e06780bab73a651ad9fdc9e3bcd2b9a6530d115806fe81ecb1a9de9fb0e47",
      "transactionType": "CALL",
      "contractName": null,
      "contractAddress": "0x989251Ff79b744736a91c617DDE3D3b5Da2C09Ef",
      "function": "mint(uint256)",
      "arguments": [
        "10000000000"
      ],
      "transaction": {
        "from": "0xc1612C97537c2CC62a11FC4516367AB6F62d4B23",
        "to": "0x989251Ff79b744736a91c617DDE3D3b5Da2C09Ef",
        "gas": "0x1aeec",
        "value": "0x0",
        "input": "0xa0712d6800000000000000000000000000000000000000000000000000000002540be400",
        "nonce": "0x67",
        "chainId": "0x7e1"
      },
      "additionalContracts": [],
      "isFixedGasLimit": false
    },
    {
      "hash": "0xcdb227771be3935116b10f5ecba5c97e04437ee1636d3a40971de1815f88d134",
      "transactionType": "CALL",
      "contractName": null,
      "contractAddress": "0x989251Ff79b744736a91c617DDE3D3b5Da2C09Ef",
      "function": "transfer(address,uint256)",
      "arguments": [
        "0x3da87b1c3743BD2dA60DF2ef1BC6F26Ef9Da6086",
        "10000000000"
      ],
      "transaction": {
        "from": "0xc1612C97537c2CC62a11FC4516367AB6F62d4B23",
        "to": "0x989251Ff79b744736a91c617DDE3D3b5Da2C09Ef",
        "gas": "0x12f2f",
        "value": "0x0",
        "input": "0xa9059cbb0000000000000000000000003da87b1c3743bd2da60df2ef1bc6f26ef9da608600000000000000000000000000000000000000000000000000000002540be400",
        "nonce": "0x68",
        "chainId": "0x7e1"
      },
      "additionalContracts": [],
      "isFixedGasLimit": false
    },
    {
      "hash": "0x7fd2054768bb270286f92151a73526745ec7abe18e5a35406bc653617ed5332b",
      "transactionType": "CALL",
      "contractName": null,
      "contractAddress": "0x7e27fC84da5e35097982fdA7b2C93E8cE4FB5817",
      "function": "mint(uint256)",
      "arguments": [
        "10000000000"
      ],
      "transaction": {
        "from": "0xc1612C97537c2CC62a11FC4516367AB6F62d4B23",
        "to": "0x7e27fC84da5e35097982fdA7b2C93E8cE4FB5817",
        "gas": "0x1aeec",
        "value": "0x0",
        "input": "0xa0712d6800000000000000000000000000000000000000000000000000000002540be400",
        "nonce": "0x69",
        "chainId": "0x7e1"
      },
      "additionalContracts": [],
      "isFixedGasLimit": false
    },
    {
      "hash": "0x4930f322157be137f9d1f671f50cb8d842043d647742de6cf85cb5f446a4d326",
      "transactionType": "CALL",
      "contractName": null,
      "contractAddress": "0x7e27fC84da5e35097982fdA7b2C93E8cE4FB5817",
      "function": "transfer(address,uint256)",
      "arguments": [
        "0x3da87b1c3743BD2dA60DF2ef1BC6F26Ef9Da6086",
        "10000000000"
      ],
      "transaction": {
        "from": "0xc1612C97537c2CC62a11FC4516367AB6F62d4B23",
        "to": "0x7e27fC84da5e35097982fdA7b2C93E8cE4FB5817",
        "gas": "0x12f2f",
        "value": "0x0",
        "input": "0xa9059cbb0000000000000000000000003da87b1c3743bd2da60df2ef1bc6f26ef9da608600000000000000000000000000000000000000000000000000000002540be400",
        "nonce": "0x6a",
        "chainId": "0x7e1"
      },
      "additionalContracts": [],
      "isFixedGasLimit": false
    },
    {
      "hash": "0x7ac0b0e87fbc98c78b5dfb17ea22f4a97c8d6962f7d1652c9ff090809ed9593f",
      "transactionType": "CALL",
      "contractName": null,
      "contractAddress": "0xC8156aF812714b8cedb540AdEc69FC104d99930B",
      "function": "mint(uint256)",
      "arguments": [
        "10000000000"
      ],
      "transaction": {
        "from": "0xc1612C97537c2CC62a11FC4516367AB6F62d4B23",
        "to": "0xC8156aF812714b8cedb540AdEc69FC104d99930B",
        "gas": "0x1aeec",
        "value": "0x0",
        "input": "0xa0712d6800000000000000000000000000000000000000000000000000000002540be400",
        "nonce": "0x6b",
        "chainId": "0x7e1"
      },
      "additionalContracts": [],
      "isFixedGasLimit": false
    },
    {
      "hash": "0x09a41a3b7dd6d2d54cb79a4e0921be5b3b1e025c640b43bda3da56ef783b61c3",
      "transactionType": "CALL",
      "contractName": null,
      "contractAddress": "0xC8156aF812714b8cedb540AdEc69FC104d99930B",
      "function": "transfer(address,uint256)",
      "arguments": [
        "0x3da87b1c3743BD2dA60DF2ef1BC6F26Ef9Da6086",
        "10000000000"
      ],
      "transaction": {
        "from": "0xc1612C97537c2CC62a11FC4516367AB6F62d4B23",
        "to": "0xC8156aF812714b8cedb540AdEc69FC104d99930B",
        "gas": "0x12f2f",
        "value": "0x0",
        "input": "0xa9059cbb0000000000000000000000003da87b1c3743bd2da60df2ef1bc6f26ef9da608600000000000000000000000000000000000000000000000000000002540be400",
        "nonce": "0x6c",
        "chainId": "0x7e1"
      },
      "additionalContracts": [],
      "isFixedGasLimit": false
    },
    {
      "hash": "0x1cd3f38ed59d85e78ca968eb94412403aed80bc5b1cdc3d9e6552246c42494d0",
      "transactionType": "CALL",
      "contractName": null,
      "contractAddress": "0x356Ccc8a7cBE1EADF0282E6C23278B0e67fB3f91",
      "function": "mint(uint256)",
      "arguments": [
        "10000000000"
      ],
      "transaction": {
        "from": "0xc1612C97537c2CC62a11FC4516367AB6F62d4B23",
        "to": "0x356Ccc8a7cBE1EADF0282E6C23278B0e67fB3f91",
        "gas": "0x1aeec",
        "value": "0x0",
        "input": "0xa0712d6800000000000000000000000000000000000000000000000000000002540be400",
        "nonce": "0x6d",
        "chainId": "0x7e1"
      },
      "additionalContracts": [],
      "isFixedGasLimit": false
    },
    {
      "hash": "0x67a9cc6f2e5c7ee6a3d64a21f059d18b56fd7b280d9ceeb334bf660beb8e513d",
      "transactionType": "CALL",
      "contractName": null,
      "contractAddress": "0x356Ccc8a7cBE1EADF0282E6C23278B0e67fB3f91",
      "function": "transfer(address,uint256)",
      "arguments": [
        "0x3da87b1c3743BD2dA60DF2ef1BC6F26Ef9Da6086",
        "10000000000"
      ],
      "transaction": {
        "from": "0xc1612C97537c2CC62a11FC4516367AB6F62d4B23",
        "to": "0x356Ccc8a7cBE1EADF0282E6C23278B0e67fB3f91",
        "gas": "0x12f2f",
        "value": "0x0",
        "input": "0xa9059cbb0000000000000000000000003da87b1c3743bd2da60df2ef1bc6f26ef9da608600000000000000000000000000000000000000000000000000000002540be400",
        "nonce": "0x6e",
        "chainId": "0x7e1"
      },
      "additionalContracts": [],
      "isFixedGasLimit": false
    },
    {
      "hash": "0xa06527ced6997e542b8bdfc5cc60e68b365af8bf2cd14d434ed859fb5d13567b",
      "transactionType": "CALL",
      "contractName": null,
      "contractAddress": "0x5404F8B4F4625CFf045A3076Bc28c250a71E4507",
      "function": "mint(uint256)",
      "arguments": [
        "10000000000"
      ],
      "transaction": {
        "from": "0xc1612C97537c2CC62a11FC4516367AB6F62d4B23",
        "to": "0x5404F8B4F4625CFf045A3076Bc28c250a71E4507",
        "gas": "0x1aeec",
        "value": "0x0",
        "input": "0xa0712d6800000000000000000000000000000000000000000000000000000002540be400",
        "nonce": "0x6f",
        "chainId": "0x7e1"
      },
      "additionalContracts": [],
      "isFixedGasLimit": false
    },
    {
      "hash": "0xedcbf9d3c221324b071f6ce4b1f35f6f70652c7dbfee0bc822db4b92a8c42f41",
      "transactionType": "CALL",
      "contractName": null,
      "contractAddress": "0x5404F8B4F4625CFf045A3076Bc28c250a71E4507",
      "function": "transfer(address,uint256)",
      "arguments": [
        "0x3da87b1c3743BD2dA60DF2ef1BC6F26Ef9Da6086",
        "10000000000"
      ],
      "transaction": {
        "from": "0xc1612C97537c2CC62a11FC4516367AB6F62d4B23",
        "to": "0x5404F8B4F4625CFf045A3076Bc28c250a71E4507",
        "gas": "0x12f2f",
        "value": "0x0",
        "input": "0xa9059cbb0000000000000000000000003da87b1c3743bd2da60df2ef1bc6f26ef9da608600000000000000000000000000000000000000000000000000000002540be400",
        "nonce": "0x70",
        "chainId": "0x7e1"
      },
      "additionalContracts": [],
      "isFixedGasLimit": false
    }
  ],
  "receipts": [
    {
      "status": "0x1",
      "cumulativeGasUsed": "0x5208",
      "logs": [],
      "logsBloom": "0x00000000000000000000000000000000000000000000000000000000000000000000000000000000000000000000000000000000000000000000000000000000000000000000000000000000000000000000000000000000000000000000000000000000000000000000000000000000000000000000000000000000000000000000000000000000000000000000000000000000000000000000000000000000000000000000000000000000000000000000000000000000000000000000000000000000000000000000000000000000000000000000000000000000000000000000000000000000000000000000000000000000000000000000000000000000",
      "type": "0x2",
      "transactionHash": "0xa100d9b2baa182aed1ec2cacfa8c8910c16c259e4f0feb069eeb2d59f9e301a4",
      "transactionIndex": "0x0",
      "blockHash": "0x12c660fe5e5223781848551da6618c0a8c0801050fb93ee4ee229161b087f24b",
      "blockNumber": "0x277",
      "gasUsed": "0x5208",
      "effectiveGasPrice": "0x8",
      "from": "0xc1612C97537c2CC62a11FC4516367AB6F62d4B23",
      "to": "0x3da87b1c3743BD2dA60DF2ef1BC6F26Ef9Da6086",
      "contractAddress": null
    },
    {
      "status": "0x1",
      "cumulativeGasUsed": "0x10748",
      "logs": [
        {
          "address": "0x5c78ebbcfdc8Fd432C6D7581F6F8E6B82079f24a",
          "topics": [
            "0xddf252ad1be2c89b69c2b068fc378daa952ba7f163c4a11628f55a4df523b3ef",
            "0x0000000000000000000000000000000000000000000000000000000000000000",
            "0x000000000000000000000000c1612c97537c2cc62a11fc4516367ab6f62d4b23"
          ],
          "data": "0x00000000000000000000000000000000000000000000021e19e0c9bab2400000",
          "blockHash": "0xc6039e0bf6be0fcba16ef767edd84363eab64fadd81b271c3779e726d3118daf",
          "blockNumber": "0x279",
          "blockTimestamp": "0x670ed688",
          "transactionHash": "0xf918bf08ec941dcd758ed64911547c5d562e59453d6a4d84e4ac640361fa152f",
          "transactionIndex": "0x0",
          "logIndex": "0x0",
          "removed": false
        }
      ],
      "logsBloom": "0x00000000000000100000000000000000000000000000000000000000000000000000000000000000000000000000004000000000000000000000000000000000000000000000000000000008000000000000000000000000000000200000000000000000020000000000000000000800000000000000000000000010000000000000000000000000000000000000000000000000000000000000000000000000000000000400000000000000000000000000000000000000000000000000000000000002000000000000000000000000000000000000002000000000000820000000000000000000000000000000000000000000000000000000000000000000",
      "type": "0x2",
      "transactionHash": "0xf918bf08ec941dcd758ed64911547c5d562e59453d6a4d84e4ac640361fa152f",
      "transactionIndex": "0x0",
      "blockHash": "0xc6039e0bf6be0fcba16ef767edd84363eab64fadd81b271c3779e726d3118daf",
      "blockNumber": "0x279",
      "gasUsed": "0x10748",
      "effectiveGasPrice": "0x8",
      "from": "0xc1612C97537c2CC62a11FC4516367AB6F62d4B23",
      "to": "0x5c78ebbcfdc8Fd432C6D7581F6F8E6B82079f24a",
      "contractAddress": null
    },
    {
      "status": "0x1",
      "cumulativeGasUsed": "0x1bc66",
      "logs": [
        {
          "address": "0x5c78ebbcfdc8Fd432C6D7581F6F8E6B82079f24a",
          "topics": [
            "0xddf252ad1be2c89b69c2b068fc378daa952ba7f163c4a11628f55a4df523b3ef",
            "0x000000000000000000000000c1612c97537c2cc62a11fc4516367ab6f62d4b23",
            "0x0000000000000000000000003da87b1c3743bd2da60df2ef1bc6f26ef9da6086"
          ],
          "data": "0x00000000000000000000000000000000000000000000021e19e0c9bab2400000",
          "blockHash": "0xc6039e0bf6be0fcba16ef767edd84363eab64fadd81b271c3779e726d3118daf",
          "blockNumber": "0x279",
          "blockTimestamp": "0x670ed688",
          "transactionHash": "0xee55ba485dd8fa1128174b0a5f5b3fc8c432cf326c4fb336b581e91b974b312e",
          "transactionIndex": "0x1",
          "logIndex": "0x1",
          "removed": false
        }
      ],
      "logsBloom": "0x00000000000000100000000000000000000000000000000000000000000000000000000002000000000000000000004000000000000000000000000000000000000000000000000000000008000000000000000000000000000000200000000000000000000000000000000000000000000000000000000000000010000000000000000000000000000000000000000000000000000000000000000000000000000000000400000000000000000000000000000000000000000020000000000000000002000000000000000000000000000000000000002000000000000800000000000000020000000000000000000000000000000000000000000000000000",
      "type": "0x2",
      "transactionHash": "0xee55ba485dd8fa1128174b0a5f5b3fc8c432cf326c4fb336b581e91b974b312e",
      "transactionIndex": "0x1",
      "blockHash": "0xc6039e0bf6be0fcba16ef767edd84363eab64fadd81b271c3779e726d3118daf",
      "blockNumber": "0x279",
      "gasUsed": "0xb51e",
      "effectiveGasPrice": "0x8",
      "from": "0xc1612C97537c2CC62a11FC4516367AB6F62d4B23",
      "to": "0x5c78ebbcfdc8Fd432C6D7581F6F8E6B82079f24a",
      "contractAddress": null
    },
    {
      "status": "0x1",
      "cumulativeGasUsed": "0x2f462",
      "logs": [
        {
          "address": "0x25D45a942405834B963c84b66418514c81b2f8c7",
          "topics": [
            "0xddf252ad1be2c89b69c2b068fc378daa952ba7f163c4a11628f55a4df523b3ef",
            "0x0000000000000000000000000000000000000000000000000000000000000000",
            "0x000000000000000000000000c1612c97537c2cc62a11fc4516367ab6f62d4b23"
          ],
          "data": "0x00000000000000000000000000000000000000000000000000000002540be400",
          "blockHash": "0xc6039e0bf6be0fcba16ef767edd84363eab64fadd81b271c3779e726d3118daf",
          "blockNumber": "0x279",
          "blockTimestamp": "0x670ed688",
          "transactionHash": "0x2e29258471465f145d1061cf527d516524d2e29f8fb5fbf7bd430e40c6b6a22c",
          "transactionIndex": "0x2",
          "logIndex": "0x2",
          "removed": false
        }
      ],
      "logsBloom": "0x00000000000000000000000000000000000000000000000000000000000000008000000000000000000000000000004000000000000000000000000000000000000000000000000000000008000000000000000000000000000000200000000001000000020000000000000000000800000000000040000000000010000000000000000000000000000000000000000000000000000000000000000000000000000000000400000000000000000000000000000000000000000000000000000000000002000000000000000000000000000000000000000000000000000020000000000000000000000000000000000000000000000000000000000000000000",
      "type": "0x2",
      "transactionHash": "0x2e29258471465f145d1061cf527d516524d2e29f8fb5fbf7bd430e40c6b6a22c",
      "transactionIndex": "0x2",
      "blockHash": "0xc6039e0bf6be0fcba16ef767edd84363eab64fadd81b271c3779e726d3118daf",
      "blockNumber": "0x279",
      "gasUsed": "0x137fc",
      "effectiveGasPrice": "0x8",
      "from": "0xc1612C97537c2CC62a11FC4516367AB6F62d4B23",
      "to": "0x25D45a942405834B963c84b66418514c81b2f8c7",
      "contractAddress": null
    },
    {
      "status": "0x1",
      "cumulativeGasUsed": "0x3cfe2",
      "logs": [
        {
          "address": "0x25D45a942405834B963c84b66418514c81b2f8c7",
          "topics": [
            "0xddf252ad1be2c89b69c2b068fc378daa952ba7f163c4a11628f55a4df523b3ef",
            "0x000000000000000000000000c1612c97537c2cc62a11fc4516367ab6f62d4b23",
            "0x0000000000000000000000003da87b1c3743bd2da60df2ef1bc6f26ef9da6086"
          ],
          "data": "0x00000000000000000000000000000000000000000000000000000002540be400",
          "blockHash": "0xc6039e0bf6be0fcba16ef767edd84363eab64fadd81b271c3779e726d3118daf",
          "blockNumber": "0x279",
          "blockTimestamp": "0x670ed688",
          "transactionHash": "0x762180bdae5db597c60077eac208baed5ef259a4d214f4c6dacec0ae37d436e2",
          "transactionIndex": "0x3",
          "logIndex": "0x3",
          "removed": false
        }
      ],
      "logsBloom": "0x00000000000000000000000000000000000000000000000000000000000000008000000002000000000000000000004000000000000000000000000000000000000000000000000000000008000000000000000000000000000000200000000001000000000000000000000000000000000000000040000000000010000000000000000000000000000000000000000000000000000000000000000000000000000000000400000000000000000000000000000000000000000020000000000000000002000000000000000000000000000000000000000000000000000000000000000000020000000000000000000000000000000000000000000000000000",
      "type": "0x2",
      "transactionHash": "0x762180bdae5db597c60077eac208baed5ef259a4d214f4c6dacec0ae37d436e2",
      "transactionIndex": "0x3",
      "blockHash": "0xc6039e0bf6be0fcba16ef767edd84363eab64fadd81b271c3779e726d3118daf",
      "blockNumber": "0x279",
      "gasUsed": "0xdb80",
      "effectiveGasPrice": "0x8",
      "from": "0xc1612C97537c2CC62a11FC4516367AB6F62d4B23",
      "to": "0x25D45a942405834B963c84b66418514c81b2f8c7",
      "contractAddress": null
    },
    {
      "status": "0x1",
      "cumulativeGasUsed": "0x507de",
      "logs": [
        {
          "address": "0x5fe291dD7b6A35502a51814df5E51A461B9c085f",
          "topics": [
            "0xddf252ad1be2c89b69c2b068fc378daa952ba7f163c4a11628f55a4df523b3ef",
            "0x0000000000000000000000000000000000000000000000000000000000000000",
            "0x000000000000000000000000c1612c97537c2cc62a11fc4516367ab6f62d4b23"
          ],
          "data": "0x00000000000000000000000000000000000000000000000000000002540be400",
          "blockHash": "0xc6039e0bf6be0fcba16ef767edd84363eab64fadd81b271c3779e726d3118daf",
          "blockNumber": "0x279",
          "blockTimestamp": "0x670ed688",
          "transactionHash": "0xc3eb1915d2698311f5ff07561d28302b5b63db216c2110edddb2ee6ec3d1a9cd",
          "transactionIndex": "0x4",
          "logIndex": "0x4",
          "removed": false
        }
      ],
      "logsBloom": "0x00000000000000000000000000000000000000000000000020000000000000000000000000000000000000000000004000000000000000000000000000000000000000000000000000000008000000000000000000000000000000200000000000000001020000000000000000000800000000000000000000000010000000000000000000000000000000000000000000000000000000000000000000000000000000000400000000000000000040000000000000000000000000000000000000000002000000000000000000000000000000000000000000000000000020000000000000000000000000000000000000000000000000000000000000000000",
      "type": "0x2",
      "transactionHash": "0xc3eb1915d2698311f5ff07561d28302b5b63db216c2110edddb2ee6ec3d1a9cd",
      "transactionIndex": "0x4",
      "blockHash": "0xc6039e0bf6be0fcba16ef767edd84363eab64fadd81b271c3779e726d3118daf",
      "blockNumber": "0x279",
      "gasUsed": "0x137fc",
      "effectiveGasPrice": "0x8",
      "from": "0xc1612C97537c2CC62a11FC4516367AB6F62d4B23",
      "to": "0x5fe291dD7b6A35502a51814df5E51A461B9c085f",
      "contractAddress": null
    },
    {
      "status": "0x1",
      "cumulativeGasUsed": "0x5e35e",
      "logs": [
        {
          "address": "0x5fe291dD7b6A35502a51814df5E51A461B9c085f",
          "topics": [
            "0xddf252ad1be2c89b69c2b068fc378daa952ba7f163c4a11628f55a4df523b3ef",
            "0x000000000000000000000000c1612c97537c2cc62a11fc4516367ab6f62d4b23",
            "0x0000000000000000000000003da87b1c3743bd2da60df2ef1bc6f26ef9da6086"
          ],
          "data": "0x00000000000000000000000000000000000000000000000000000002540be400",
          "blockHash": "0xc6039e0bf6be0fcba16ef767edd84363eab64fadd81b271c3779e726d3118daf",
          "blockNumber": "0x279",
          "blockTimestamp": "0x670ed688",
          "transactionHash": "0xcbe380dbc7fd2ebb184196ffd4edbed0208a0fba3407ee555679008f802c17bf",
          "transactionIndex": "0x5",
          "logIndex": "0x5",
          "removed": false
        }
      ],
      "logsBloom": "0x00000000000000000000000000000000000000000000000020000000000000000000000002000000000000000000004000000000000000000000000000000000000000000000000000000008000000000000000000000000000000200000000000000001000000000000000000000000000000000000000000000010000000000000000000000000000000000000000000000000000000000000000000000000000000000400000000000000000040000000000000000000000020000000000000000002000000000000000000000000000000000000000000000000000000000000000000020000000000000000000000000000000000000000000000000000",
      "type": "0x2",
      "transactionHash": "0xcbe380dbc7fd2ebb184196ffd4edbed0208a0fba3407ee555679008f802c17bf",
      "transactionIndex": "0x5",
      "blockHash": "0xc6039e0bf6be0fcba16ef767edd84363eab64fadd81b271c3779e726d3118daf",
      "blockNumber": "0x279",
      "gasUsed": "0xdb80",
      "effectiveGasPrice": "0x8",
      "from": "0xc1612C97537c2CC62a11FC4516367AB6F62d4B23",
      "to": "0x5fe291dD7b6A35502a51814df5E51A461B9c085f",
      "contractAddress": null
    },
    {
      "status": "0x1",
      "cumulativeGasUsed": "0x71b5a",
      "logs": [
        {
          "address": "0x3A60aCD97fEA737ddD3e8FB2070601c19Ac22699",
          "topics": [
            "0xddf252ad1be2c89b69c2b068fc378daa952ba7f163c4a11628f55a4df523b3ef",
            "0x0000000000000000000000000000000000000000000000000000000000000000",
            "0x000000000000000000000000c1612c97537c2cc62a11fc4516367ab6f62d4b23"
          ],
          "data": "0x00000000000000000000000000000000000000000000000000000002540be400",
          "blockHash": "0xc6039e0bf6be0fcba16ef767edd84363eab64fadd81b271c3779e726d3118daf",
          "blockNumber": "0x279",
          "blockTimestamp": "0x670ed688",
          "transactionHash": "0x540767423920fb0a21e97bd83e67b1f81e252e8552231ec443f7a441628f654b",
          "transactionIndex": "0x6",
          "logIndex": "0x6",
          "removed": false
        }
      ],
      "logsBloom": "0x00000000000000000000000000000000000000000000000000020000000000000000000000000000000000000000004000000000000000000000000000000000000000000000000000000008000000000000000000000000000000200000000000000000020000000000000000000800000000000000000000000010000000000000000000000000000000000000000000000000000000000000000000010000000000000400000000000000000000000000000000000000000000000000000000000002000000000000000000000000000000000000000000000000000020000000000000000000000000000000000000000000000000000000000000000040",
      "type": "0x2",
      "transactionHash": "0x540767423920fb0a21e97bd83e67b1f81e252e8552231ec443f7a441628f654b",
      "transactionIndex": "0x6",
      "blockHash": "0xc6039e0bf6be0fcba16ef767edd84363eab64fadd81b271c3779e726d3118daf",
      "blockNumber": "0x279",
      "gasUsed": "0x137fc",
      "effectiveGasPrice": "0x8",
      "from": "0xc1612C97537c2CC62a11FC4516367AB6F62d4B23",
      "to": "0x3A60aCD97fEA737ddD3e8FB2070601c19Ac22699",
      "contractAddress": null
    },
    {
      "status": "0x1",
      "cumulativeGasUsed": "0x7f6da",
      "logs": [
        {
          "address": "0x3A60aCD97fEA737ddD3e8FB2070601c19Ac22699",
          "topics": [
            "0xddf252ad1be2c89b69c2b068fc378daa952ba7f163c4a11628f55a4df523b3ef",
            "0x000000000000000000000000c1612c97537c2cc62a11fc4516367ab6f62d4b23",
            "0x0000000000000000000000003da87b1c3743bd2da60df2ef1bc6f26ef9da6086"
          ],
          "data": "0x00000000000000000000000000000000000000000000000000000002540be400",
          "blockHash": "0xc6039e0bf6be0fcba16ef767edd84363eab64fadd81b271c3779e726d3118daf",
          "blockNumber": "0x279",
          "blockTimestamp": "0x670ed688",
          "transactionHash": "0xe9120e0db36f2f4e25da2bf57ee9a8e976dfeca996c20e22b3c85f5130fe2e38",
          "transactionIndex": "0x7",
          "logIndex": "0x7",
          "removed": false
        }
      ],
      "logsBloom": "0x00000000000000000000000000000000000000000000000000020000000000000000000002000000000000000000004000000000000000000000000000000000000000000000000000000008000000000000000000000000000000200000000000000000000000000000000000000000000000000000000000000010000000000000000000000000000000000000000000000000000000000000000000010000000000000400000000000000000000000000000000000000000020000000000000000002000000000000000000000000000000000000000000000000000000000000000000020000000000000000000000000000000000000000000000000040",
      "type": "0x2",
      "transactionHash": "0xe9120e0db36f2f4e25da2bf57ee9a8e976dfeca996c20e22b3c85f5130fe2e38",
      "transactionIndex": "0x7",
      "blockHash": "0xc6039e0bf6be0fcba16ef767edd84363eab64fadd81b271c3779e726d3118daf",
      "blockNumber": "0x279",
      "gasUsed": "0xdb80",
      "effectiveGasPrice": "0x8",
      "from": "0xc1612C97537c2CC62a11FC4516367AB6F62d4B23",
      "to": "0x3A60aCD97fEA737ddD3e8FB2070601c19Ac22699",
      "contractAddress": null
    },
    {
      "status": "0x1",
      "cumulativeGasUsed": "0x92ed6",
      "logs": [
        {
          "address": "0x7c76C4F1F0ae16Fb6648C8a0aBF9F19ad6c059d9",
          "topics": [
            "0xddf252ad1be2c89b69c2b068fc378daa952ba7f163c4a11628f55a4df523b3ef",
            "0x0000000000000000000000000000000000000000000000000000000000000000",
            "0x000000000000000000000000c1612c97537c2cc62a11fc4516367ab6f62d4b23"
          ],
          "data": "0x00000000000000000000000000000000000000000000000000000002540be400",
          "blockHash": "0xc6039e0bf6be0fcba16ef767edd84363eab64fadd81b271c3779e726d3118daf",
          "blockNumber": "0x279",
          "blockTimestamp": "0x670ed688",
          "transactionHash": "0x593af6a575aba5fcfb362bf888ff621ec9222300db35d46952990cf65be74a15",
          "transactionIndex": "0x8",
          "logIndex": "0x8",
          "removed": false
        }
      ],
      "logsBloom": "0x00000000000000000000000000000000000000000000000000000000000000000000000000000000000000000000004000000000000000000000000000000000000000000000000000000008000000000000000000000000000000200000000000000000020000000000000000000800000000000000000000000010000000000000000000000000000000000000000000000000000000000000000000000000000000000400000000000000000000000000000000000000008000000000000000000002000000000000000000000008000000000000000000000000000020000000000000000000000000000000000000000000000000000000000000400000",
      "type": "0x2",
      "transactionHash": "0x593af6a575aba5fcfb362bf888ff621ec9222300db35d46952990cf65be74a15",
      "transactionIndex": "0x8",
      "blockHash": "0xc6039e0bf6be0fcba16ef767edd84363eab64fadd81b271c3779e726d3118daf",
      "blockNumber": "0x279",
      "gasUsed": "0x137fc",
      "effectiveGasPrice": "0x8",
      "from": "0xc1612C97537c2CC62a11FC4516367AB6F62d4B23",
      "to": "0x7c76C4F1F0ae16Fb6648C8a0aBF9F19ad6c059d9",
      "contractAddress": null
    },
    {
      "status": "0x1",
      "cumulativeGasUsed": "0xa0a56",
      "logs": [
        {
          "address": "0x7c76C4F1F0ae16Fb6648C8a0aBF9F19ad6c059d9",
          "topics": [
            "0xddf252ad1be2c89b69c2b068fc378daa952ba7f163c4a11628f55a4df523b3ef",
            "0x000000000000000000000000c1612c97537c2cc62a11fc4516367ab6f62d4b23",
            "0x0000000000000000000000003da87b1c3743bd2da60df2ef1bc6f26ef9da6086"
          ],
          "data": "0x00000000000000000000000000000000000000000000000000000002540be400",
          "blockHash": "0xc6039e0bf6be0fcba16ef767edd84363eab64fadd81b271c3779e726d3118daf",
          "blockNumber": "0x279",
          "blockTimestamp": "0x670ed688",
          "transactionHash": "0x20053e8198172cb483da18a083f429ecec06d9f237ffbcadb05d9e899fee51b3",
          "transactionIndex": "0x9",
          "logIndex": "0x9",
          "removed": false
        }
      ],
      "logsBloom": "0x00000000000000000000000000000000000000000000000000000000000000000000000002000000000000000000004000000000000000000000000000000000000000000000000000000008000000000000000000000000000000200000000000000000000000000000000000000000000000000000000000000010000000000000000000000000000000000000000000000000000000000000000000000000000000000400000000000000000000000000000000000000008020000000000000000002000000000000000000000008000000000000000000000000000000000000000000020000000000000000000000000000000000000000000000400000",
      "type": "0x2",
      "transactionHash": "0x20053e8198172cb483da18a083f429ecec06d9f237ffbcadb05d9e899fee51b3",
      "transactionIndex": "0x9",
      "blockHash": "0xc6039e0bf6be0fcba16ef767edd84363eab64fadd81b271c3779e726d3118daf",
      "blockNumber": "0x279",
      "gasUsed": "0xdb80",
      "effectiveGasPrice": "0x8",
      "from": "0xc1612C97537c2CC62a11FC4516367AB6F62d4B23",
      "to": "0x7c76C4F1F0ae16Fb6648C8a0aBF9F19ad6c059d9",
      "contractAddress": null
    },
    {
      "status": "0x1",
      "cumulativeGasUsed": "0xb4252",
      "logs": [
        {
          "address": "0xF84548d35A90d8B107019478188a3791f3b8f6C1",
          "topics": [
            "0xddf252ad1be2c89b69c2b068fc378daa952ba7f163c4a11628f55a4df523b3ef",
            "0x0000000000000000000000000000000000000000000000000000000000000000",
            "0x000000000000000000000000c1612c97537c2cc62a11fc4516367ab6f62d4b23"
          ],
          "data": "0x00000000000000000000000000000000000000000000000000000002540be400",
          "blockHash": "0xc6039e0bf6be0fcba16ef767edd84363eab64fadd81b271c3779e726d3118daf",
          "blockNumber": "0x279",
          "blockTimestamp": "0x670ed688",
          "transactionHash": "0x22021da745d2d90f74f85863a2a5eab6ea9af7a2e846ec0d93fe901f5fd41fef",
          "transactionIndex": "0xa",
          "logIndex": "0xa",
          "removed": false
        }
      ],
      "logsBloom": "0x00000000800000000000000000000000000000000000000000000000000000000000000000000000000000000000004000000000000000000000000000000000000000000000000000000008000000000000000000000000000000200000000000000000020000000000000000000800000000000000000000000010000000000000000000008000000000000000000000000000000000000000000000000000000000000400000000000000000000000000000000000000000000000000000000000002000000000000000000000000000000000000000000000000000020080000000000000000000000000000000000000000000000000000000000000000",
      "type": "0x2",
      "transactionHash": "0x22021da745d2d90f74f85863a2a5eab6ea9af7a2e846ec0d93fe901f5fd41fef",
      "transactionIndex": "0xa",
      "blockHash": "0xc6039e0bf6be0fcba16ef767edd84363eab64fadd81b271c3779e726d3118daf",
      "blockNumber": "0x279",
      "gasUsed": "0x137fc",
      "effectiveGasPrice": "0x8",
      "from": "0xc1612C97537c2CC62a11FC4516367AB6F62d4B23",
      "to": "0xF84548d35A90d8B107019478188a3791f3b8f6C1",
      "contractAddress": null
    },
    {
      "status": "0x1",
      "cumulativeGasUsed": "0xc1dd2",
      "logs": [
        {
          "address": "0xF84548d35A90d8B107019478188a3791f3b8f6C1",
          "topics": [
            "0xddf252ad1be2c89b69c2b068fc378daa952ba7f163c4a11628f55a4df523b3ef",
            "0x000000000000000000000000c1612c97537c2cc62a11fc4516367ab6f62d4b23",
            "0x0000000000000000000000003da87b1c3743bd2da60df2ef1bc6f26ef9da6086"
          ],
          "data": "0x00000000000000000000000000000000000000000000000000000002540be400",
          "blockHash": "0xc6039e0bf6be0fcba16ef767edd84363eab64fadd81b271c3779e726d3118daf",
          "blockNumber": "0x279",
          "blockTimestamp": "0x670ed688",
          "transactionHash": "0x9bdfe3461644884fe0100f120468cd649a88d2fcf38ec05721f6a4a5c39f0465",
          "transactionIndex": "0xb",
          "logIndex": "0xb",
          "removed": false
        }
      ],
      "logsBloom": "0x00000000800000000000000000000000000000000000000000000000000000000000000002000000000000000000004000000000000000000000000000000000000000000000000000000008000000000000000000000000000000200000000000000000000000000000000000000000000000000000000000000010000000000000000000008000000000000000000000000000000000000000000000000000000000000400000000000000000000000000000000000000000020000000000000000002000000000000000000000000000000000000000000000000000000080000000000020000000000000000000000000000000000000000000000000000",
      "type": "0x2",
      "transactionHash": "0x9bdfe3461644884fe0100f120468cd649a88d2fcf38ec05721f6a4a5c39f0465",
      "transactionIndex": "0xb",
      "blockHash": "0xc6039e0bf6be0fcba16ef767edd84363eab64fadd81b271c3779e726d3118daf",
      "blockNumber": "0x279",
      "gasUsed": "0xdb80",
      "effectiveGasPrice": "0x8",
      "from": "0xc1612C97537c2CC62a11FC4516367AB6F62d4B23",
      "to": "0xF84548d35A90d8B107019478188a3791f3b8f6C1",
      "contractAddress": null
    },
    {
      "status": "0x1",
      "cumulativeGasUsed": "0xd55ce",
      "logs": [
        {
          "address": "0x5Cc307482EabA4C03526C00B6D6f5e05949550d9",
          "topics": [
            "0xddf252ad1be2c89b69c2b068fc378daa952ba7f163c4a11628f55a4df523b3ef",
            "0x0000000000000000000000000000000000000000000000000000000000000000",
            "0x000000000000000000000000c1612c97537c2cc62a11fc4516367ab6f62d4b23"
          ],
          "data": "0x00000000000000000000000000000000000000000000000000000002540be400",
          "blockHash": "0xc6039e0bf6be0fcba16ef767edd84363eab64fadd81b271c3779e726d3118daf",
          "blockNumber": "0x279",
          "blockTimestamp": "0x670ed688",
          "transactionHash": "0x9a6b4cc6f02f91d2cae839a3c1be120b9f69534af002857af427e535db88457a",
          "transactionIndex": "0xc",
          "logIndex": "0xc",
          "removed": false
        }
      ],
      "logsBloom": "0x00000000000000000000000000000000000000000000000000000000000000000000000000000000000000000000004000000000000000000000000000000000000000000000000000000008000000000000000000000000000000280000000000000000020000000000000000000800000000000000000000000010000000000000000000000000000000000000000000000000000000000000000400000000000000000400000000000000000000000000000004000000000000000000000000000002000000000000000000000000000000000000000000000000000020000000000000000000000000000000000000000000000000000000000000000000",
      "type": "0x2",
      "transactionHash": "0x9a6b4cc6f02f91d2cae839a3c1be120b9f69534af002857af427e535db88457a",
      "transactionIndex": "0xc",
      "blockHash": "0xc6039e0bf6be0fcba16ef767edd84363eab64fadd81b271c3779e726d3118daf",
      "blockNumber": "0x279",
      "gasUsed": "0x137fc",
      "effectiveGasPrice": "0x8",
      "from": "0xc1612C97537c2CC62a11FC4516367AB6F62d4B23",
      "to": "0x5Cc307482EabA4C03526C00B6D6f5e05949550d9",
      "contractAddress": null
    },
    {
      "status": "0x1",
      "cumulativeGasUsed": "0xe314e",
      "logs": [
        {
          "address": "0x5Cc307482EabA4C03526C00B6D6f5e05949550d9",
          "topics": [
            "0xddf252ad1be2c89b69c2b068fc378daa952ba7f163c4a11628f55a4df523b3ef",
            "0x000000000000000000000000c1612c97537c2cc62a11fc4516367ab6f62d4b23",
            "0x0000000000000000000000003da87b1c3743bd2da60df2ef1bc6f26ef9da6086"
          ],
          "data": "0x00000000000000000000000000000000000000000000000000000002540be400",
          "blockHash": "0xc6039e0bf6be0fcba16ef767edd84363eab64fadd81b271c3779e726d3118daf",
          "blockNumber": "0x279",
          "blockTimestamp": "0x670ed688",
          "transactionHash": "0xad62e2a26ac0c8abd1fcbab40703226c6d60275f7c4b1978b13de3049749ae78",
          "transactionIndex": "0xd",
          "logIndex": "0xd",
          "removed": false
        }
      ],
      "logsBloom": "0x00000000000000000000000000000000000000000000000000000000000000000000000002000000000000000000004000000000000000000000000000000000000000000000000000000008000000000000000000000000000000280000000000000000000000000000000000000000000000000000000000000010000000000000000000000000000000000000000000000000000000000000000400000000000000000400000000000000000000000000000004000000000020000000000000000002000000000000000000000000000000000000000000000000000000000000000000020000000000000000000000000000000000000000000000000000",
      "type": "0x2",
      "transactionHash": "0xad62e2a26ac0c8abd1fcbab40703226c6d60275f7c4b1978b13de3049749ae78",
      "transactionIndex": "0xd",
      "blockHash": "0xc6039e0bf6be0fcba16ef767edd84363eab64fadd81b271c3779e726d3118daf",
      "blockNumber": "0x279",
      "gasUsed": "0xdb80",
      "effectiveGasPrice": "0x8",
      "from": "0xc1612C97537c2CC62a11FC4516367AB6F62d4B23",
      "to": "0x5Cc307482EabA4C03526C00B6D6f5e05949550d9",
      "contractAddress": null
    },
    {
      "status": "0x1",
      "cumulativeGasUsed": "0xf694a",
      "logs": [
        {
          "address": "0x989251Ff79b744736a91c617DDE3D3b5Da2C09Ef",
          "topics": [
            "0xddf252ad1be2c89b69c2b068fc378daa952ba7f163c4a11628f55a4df523b3ef",
            "0x0000000000000000000000000000000000000000000000000000000000000000",
            "0x000000000000000000000000c1612c97537c2cc62a11fc4516367ab6f62d4b23"
          ],
          "data": "0x00000000000000000000000000000000000000000000000000000002540be400",
          "blockHash": "0xc6039e0bf6be0fcba16ef767edd84363eab64fadd81b271c3779e726d3118daf",
          "blockNumber": "0x279",
          "blockTimestamp": "0x670ed688",
          "transactionHash": "0xcd7e06780bab73a651ad9fdc9e3bcd2b9a6530d115806fe81ecb1a9de9fb0e47",
          "transactionIndex": "0xe",
          "logIndex": "0xe",
          "removed": false
        }
      ],
      "logsBloom": "0x00000000000000000000000000000000000000000000000000000000000000000000000000000000000000000000004000000000000000000000000000000000000000000000000000000008000000000000000000000000000000200000000000000000020000000000001008000800000000000000000000000010000000000000000000000000000000000000000000000000000000000000000000000000000000000400000000000000000000000000000000000000000000000000000000000002000000000000000000000000000000000000000000000000000020000000000000000000000000000000000000000000100000000000000000000000",
      "type": "0x2",
      "transactionHash": "0xcd7e06780bab73a651ad9fdc9e3bcd2b9a6530d115806fe81ecb1a9de9fb0e47",
      "transactionIndex": "0xe",
      "blockHash": "0xc6039e0bf6be0fcba16ef767edd84363eab64fadd81b271c3779e726d3118daf",
      "blockNumber": "0x279",
      "gasUsed": "0x137fc",
      "effectiveGasPrice": "0x8",
      "from": "0xc1612C97537c2CC62a11FC4516367AB6F62d4B23",
      "to": "0x989251Ff79b744736a91c617DDE3D3b5Da2C09Ef",
      "contractAddress": null
    },
    {
      "status": "0x1",
      "cumulativeGasUsed": "0x1044ca",
      "logs": [
        {
          "address": "0x989251Ff79b744736a91c617DDE3D3b5Da2C09Ef",
          "topics": [
            "0xddf252ad1be2c89b69c2b068fc378daa952ba7f163c4a11628f55a4df523b3ef",
            "0x000000000000000000000000c1612c97537c2cc62a11fc4516367ab6f62d4b23",
            "0x0000000000000000000000003da87b1c3743bd2da60df2ef1bc6f26ef9da6086"
          ],
          "data": "0x00000000000000000000000000000000000000000000000000000002540be400",
          "blockHash": "0xc6039e0bf6be0fcba16ef767edd84363eab64fadd81b271c3779e726d3118daf",
          "blockNumber": "0x279",
          "blockTimestamp": "0x670ed688",
          "transactionHash": "0xcdb227771be3935116b10f5ecba5c97e04437ee1636d3a40971de1815f88d134",
          "transactionIndex": "0xf",
          "logIndex": "0xf",
          "removed": false
        }
      ],
      "logsBloom": "0x00000000000000000000000000000000000000000000000000000000000000000000000002000000000000000000004000000000000000000000000000000000000000000000000000000008000000000000000000000000000000200000000000000000000000000000001008000000000000000000000000000010000000000000000000000000000000000000000000000000000000000000000000000000000000000400000000000000000000000000000000000000000020000000000000000002000000000000000000000000000000000000000000000000000000000000000000020000000000000000000000000000100000000000000000000000",
      "type": "0x2",
      "transactionHash": "0xcdb227771be3935116b10f5ecba5c97e04437ee1636d3a40971de1815f88d134",
      "transactionIndex": "0xf",
      "blockHash": "0xc6039e0bf6be0fcba16ef767edd84363eab64fadd81b271c3779e726d3118daf",
      "blockNumber": "0x279",
      "gasUsed": "0xdb80",
      "effectiveGasPrice": "0x8",
      "from": "0xc1612C97537c2CC62a11FC4516367AB6F62d4B23",
      "to": "0x989251Ff79b744736a91c617DDE3D3b5Da2C09Ef",
      "contractAddress": null
    },
    {
      "status": "0x1",
      "cumulativeGasUsed": "0x117cc6",
      "logs": [
        {
          "address": "0x7e27fC84da5e35097982fdA7b2C93E8cE4FB5817",
          "topics": [
            "0xddf252ad1be2c89b69c2b068fc378daa952ba7f163c4a11628f55a4df523b3ef",
            "0x0000000000000000000000000000000000000000000000000000000000000000",
            "0x000000000000000000000000c1612c97537c2cc62a11fc4516367ab6f62d4b23"
          ],
          "data": "0x00000000000000000000000000000000000000000000000000000002540be400",
          "blockHash": "0xc6039e0bf6be0fcba16ef767edd84363eab64fadd81b271c3779e726d3118daf",
          "blockNumber": "0x279",
          "blockTimestamp": "0x670ed688",
          "transactionHash": "0x7fd2054768bb270286f92151a73526745ec7abe18e5a35406bc653617ed5332b",
          "transactionIndex": "0x10",
          "logIndex": "0x10",
          "removed": false
        }
      ],
      "logsBloom": "0x00000000000000000000000000000000000000000000000000000000000000000000000000000000000000000000004000000000000000000000000000000000000000000000000000000008000000000000000000000000000000a00000000000000000020000000000000000000800000000000000000000000010000000000000000000000000000000000000000000000000000000000000000000000000000000000400000000000000000000000000000000000000000000000000000000000002002000000000000000000000000000010000000000000000000020000000000000000000000000000000000000000000000000000000000000000000",
      "type": "0x2",
      "transactionHash": "0x7fd2054768bb270286f92151a73526745ec7abe18e5a35406bc653617ed5332b",
      "transactionIndex": "0x10",
      "blockHash": "0xc6039e0bf6be0fcba16ef767edd84363eab64fadd81b271c3779e726d3118daf",
      "blockNumber": "0x279",
      "gasUsed": "0x137fc",
      "effectiveGasPrice": "0x8",
      "from": "0xc1612C97537c2CC62a11FC4516367AB6F62d4B23",
      "to": "0x7e27fC84da5e35097982fdA7b2C93E8cE4FB5817",
      "contractAddress": null
    },
    {
      "status": "0x1",
      "cumulativeGasUsed": "0x125846",
      "logs": [
        {
          "address": "0x7e27fC84da5e35097982fdA7b2C93E8cE4FB5817",
          "topics": [
            "0xddf252ad1be2c89b69c2b068fc378daa952ba7f163c4a11628f55a4df523b3ef",
            "0x000000000000000000000000c1612c97537c2cc62a11fc4516367ab6f62d4b23",
            "0x0000000000000000000000003da87b1c3743bd2da60df2ef1bc6f26ef9da6086"
          ],
          "data": "0x00000000000000000000000000000000000000000000000000000002540be400",
          "blockHash": "0xc6039e0bf6be0fcba16ef767edd84363eab64fadd81b271c3779e726d3118daf",
          "blockNumber": "0x279",
          "blockTimestamp": "0x670ed688",
          "transactionHash": "0x4930f322157be137f9d1f671f50cb8d842043d647742de6cf85cb5f446a4d326",
          "transactionIndex": "0x11",
          "logIndex": "0x11",
          "removed": false
        }
      ],
      "logsBloom": "0x00000000000000000000000000000000000000000000000000000000000000000000000002000000000000000000004000000000000000000000000000000000000000000000000000000008000000000000000000000000000000a00000000000000000000000000000000000000000000000000000000000000010000000000000000000000000000000000000000000000000000000000000000000000000000000000400000000000000000000000000000000000000000020000000000000000002002000000000000000000000000000010000000000000000000000000000000000020000000000000000000000000000000000000000000000000000",
      "type": "0x2",
      "transactionHash": "0x4930f322157be137f9d1f671f50cb8d842043d647742de6cf85cb5f446a4d326",
      "transactionIndex": "0x11",
      "blockHash": "0xc6039e0bf6be0fcba16ef767edd84363eab64fadd81b271c3779e726d3118daf",
      "blockNumber": "0x279",
      "gasUsed": "0xdb80",
      "effectiveGasPrice": "0x8",
      "from": "0xc1612C97537c2CC62a11FC4516367AB6F62d4B23",
      "to": "0x7e27fC84da5e35097982fdA7b2C93E8cE4FB5817",
      "contractAddress": null
    },
    {
      "status": "0x1",
      "cumulativeGasUsed": "0x139042",
      "logs": [
        {
          "address": "0xC8156aF812714b8cedb540AdEc69FC104d99930B",
          "topics": [
            "0xddf252ad1be2c89b69c2b068fc378daa952ba7f163c4a11628f55a4df523b3ef",
            "0x0000000000000000000000000000000000000000000000000000000000000000",
            "0x000000000000000000000000c1612c97537c2cc62a11fc4516367ab6f62d4b23"
          ],
          "data": "0x00000000000000000000000000000000000000000000000000000002540be400",
          "blockHash": "0xc6039e0bf6be0fcba16ef767edd84363eab64fadd81b271c3779e726d3118daf",
          "blockNumber": "0x279",
          "blockTimestamp": "0x670ed688",
          "transactionHash": "0x7ac0b0e87fbc98c78b5dfb17ea22f4a97c8d6962f7d1652c9ff090809ed9593f",
          "transactionIndex": "0x12",
          "logIndex": "0x12",
          "removed": false
        }
      ],
      "logsBloom": "0x00000000000000000000000000000000000000000000000000000000000000000000000000000000000000000000004000000000000000000000000000000000000000000000000000000008000000000000000000000000000000a00000000000000010020000000000000000000800000000000000000000000010000000000000000000000000000000000000000000000000000000000000000000000000000000000400000000000000000000000000000000000000000000000000000000000002000000000000000000000000000000000000000000000000000020000000000000000000000000000000000000000000000000000400000000000000",
      "type": "0x2",
      "transactionHash": "0x7ac0b0e87fbc98c78b5dfb17ea22f4a97c8d6962f7d1652c9ff090809ed9593f",
      "transactionIndex": "0x12",
      "blockHash": "0xc6039e0bf6be0fcba16ef767edd84363eab64fadd81b271c3779e726d3118daf",
      "blockNumber": "0x279",
      "gasUsed": "0x137fc",
      "effectiveGasPrice": "0x8",
      "from": "0xc1612C97537c2CC62a11FC4516367AB6F62d4B23",
      "to": "0xC8156aF812714b8cedb540AdEc69FC104d99930B",
      "contractAddress": null
    },
    {
      "status": "0x1",
      "cumulativeGasUsed": "0x146bc2",
      "logs": [
        {
          "address": "0xC8156aF812714b8cedb540AdEc69FC104d99930B",
          "topics": [
            "0xddf252ad1be2c89b69c2b068fc378daa952ba7f163c4a11628f55a4df523b3ef",
            "0x000000000000000000000000c1612c97537c2cc62a11fc4516367ab6f62d4b23",
            "0x0000000000000000000000003da87b1c3743bd2da60df2ef1bc6f26ef9da6086"
          ],
          "data": "0x00000000000000000000000000000000000000000000000000000002540be400",
          "blockHash": "0xc6039e0bf6be0fcba16ef767edd84363eab64fadd81b271c3779e726d3118daf",
          "blockNumber": "0x279",
          "blockTimestamp": "0x670ed688",
          "transactionHash": "0x09a41a3b7dd6d2d54cb79a4e0921be5b3b1e025c640b43bda3da56ef783b61c3",
          "transactionIndex": "0x13",
          "logIndex": "0x13",
          "removed": false
        }
      ],
      "logsBloom": "0x00000000000000000000000000000000000000000000000000000000000000000000000002000000000000000000004000000000000000000000000000000000000000000000000000000008000000000000000000000000000000a00000000000000010000000000000000000000000000000000000000000000010000000000000000000000000000000000000000000000000000000000000000000000000000000000400000000000000000000000000000000000000000020000000000000000002000000000000000000000000000000000000000000000000000000000000000000020000000000000000000000000000000000000400000000000000",
      "type": "0x2",
      "transactionHash": "0x09a41a3b7dd6d2d54cb79a4e0921be5b3b1e025c640b43bda3da56ef783b61c3",
      "transactionIndex": "0x13",
      "blockHash": "0xc6039e0bf6be0fcba16ef767edd84363eab64fadd81b271c3779e726d3118daf",
      "blockNumber": "0x279",
      "gasUsed": "0xdb80",
      "effectiveGasPrice": "0x8",
      "from": "0xc1612C97537c2CC62a11FC4516367AB6F62d4B23",
      "to": "0xC8156aF812714b8cedb540AdEc69FC104d99930B",
      "contractAddress": null
    },
    {
      "status": "0x1",
      "cumulativeGasUsed": "0x15a3be",
      "logs": [
        {
          "address": "0x356Ccc8a7cBE1EADF0282E6C23278B0e67fB3f91",
          "topics": [
            "0xddf252ad1be2c89b69c2b068fc378daa952ba7f163c4a11628f55a4df523b3ef",
            "0x0000000000000000000000000000000000000000000000000000000000000000",
            "0x000000000000000000000000c1612c97537c2cc62a11fc4516367ab6f62d4b23"
          ],
          "data": "0x00000000000000000000000000000000000000000000000000000002540be400",
          "blockHash": "0xc6039e0bf6be0fcba16ef767edd84363eab64fadd81b271c3779e726d3118daf",
          "blockNumber": "0x279",
          "blockTimestamp": "0x670ed688",
          "transactionHash": "0x1cd3f38ed59d85e78ca968eb94412403aed80bc5b1cdc3d9e6552246c42494d0",
          "transactionIndex": "0x14",
          "logIndex": "0x14",
          "removed": false
        }
      ],
      "logsBloom": "0x00000000000000000000000000000000000000000000000000000000000000000000000000000000000000000000004000000000000000000000000000000000000000000000000000000008000000000000000000000000000000200000000000000000020000000000000000000800000000000000000000000010000000000000000000000800000000000000000000000000000000000000000000000000000000000500000000000000000000000040000000000000000000000000000000000002000000000000000000000000000000000000000000000000000020000000000000000000000000000000000000000000000000000000000000000000",
      "type": "0x2",
      "transactionHash": "0x1cd3f38ed59d85e78ca968eb94412403aed80bc5b1cdc3d9e6552246c42494d0",
      "transactionIndex": "0x14",
      "blockHash": "0xc6039e0bf6be0fcba16ef767edd84363eab64fadd81b271c3779e726d3118daf",
      "blockNumber": "0x279",
      "gasUsed": "0x137fc",
      "effectiveGasPrice": "0x8",
      "from": "0xc1612C97537c2CC62a11FC4516367AB6F62d4B23",
      "to": "0x356Ccc8a7cBE1EADF0282E6C23278B0e67fB3f91",
      "contractAddress": null
    },
    {
      "status": "0x1",
      "cumulativeGasUsed": "0x167f3e",
      "logs": [
        {
          "address": "0x356Ccc8a7cBE1EADF0282E6C23278B0e67fB3f91",
          "topics": [
            "0xddf252ad1be2c89b69c2b068fc378daa952ba7f163c4a11628f55a4df523b3ef",
            "0x000000000000000000000000c1612c97537c2cc62a11fc4516367ab6f62d4b23",
            "0x0000000000000000000000003da87b1c3743bd2da60df2ef1bc6f26ef9da6086"
          ],
          "data": "0x00000000000000000000000000000000000000000000000000000002540be400",
          "blockHash": "0xc6039e0bf6be0fcba16ef767edd84363eab64fadd81b271c3779e726d3118daf",
          "blockNumber": "0x279",
          "blockTimestamp": "0x670ed688",
          "transactionHash": "0x67a9cc6f2e5c7ee6a3d64a21f059d18b56fd7b280d9ceeb334bf660beb8e513d",
          "transactionIndex": "0x15",
          "logIndex": "0x15",
          "removed": false
        }
      ],
      "logsBloom": "0x00000000000000000000000000000000000000000000000000000000000000000000000002000000000000000000004000000000000000000000000000000000000000000000000000000008000000000000000000000000000000200000000000000000000000000000000000000000000000000000000000000010000000000000000000000800000000000000000000000000000000000000000000000000000000000500000000000000000000000040000000000000000020000000000000000002000000000000000000000000000000000000000000000000000000000000000000020000000000000000000000000000000000000000000000000000",
      "type": "0x2",
      "transactionHash": "0x67a9cc6f2e5c7ee6a3d64a21f059d18b56fd7b280d9ceeb334bf660beb8e513d",
      "transactionIndex": "0x15",
      "blockHash": "0xc6039e0bf6be0fcba16ef767edd84363eab64fadd81b271c3779e726d3118daf",
      "blockNumber": "0x279",
      "gasUsed": "0xdb80",
      "effectiveGasPrice": "0x8",
      "from": "0xc1612C97537c2CC62a11FC4516367AB6F62d4B23",
      "to": "0x356Ccc8a7cBE1EADF0282E6C23278B0e67fB3f91",
      "contractAddress": null
    },
    {
      "status": "0x1",
      "cumulativeGasUsed": "0x17b73a",
      "logs": [
        {
          "address": "0x5404F8B4F4625CFf045A3076Bc28c250a71E4507",
          "topics": [
            "0xddf252ad1be2c89b69c2b068fc378daa952ba7f163c4a11628f55a4df523b3ef",
            "0x0000000000000000000000000000000000000000000000000000000000000000",
            "0x000000000000000000000000c1612c97537c2cc62a11fc4516367ab6f62d4b23"
          ],
          "data": "0x00000000000000000000000000000000000000000000000000000002540be400",
          "blockHash": "0xc6039e0bf6be0fcba16ef767edd84363eab64fadd81b271c3779e726d3118daf",
          "blockNumber": "0x279",
          "blockTimestamp": "0x670ed688",
          "transactionHash": "0xa06527ced6997e542b8bdfc5cc60e68b365af8bf2cd14d434ed859fb5d13567b",
          "transactionIndex": "0x16",
          "logIndex": "0x16",
          "removed": false
        }
      ],
      "logsBloom": "0x00000000000000000000000000000000000000000000000000000000000000000000000000000000000000000000004000000000000000000000000000000000000000000000000000000008040000000000000000000000000000200000000000000000020000000000000000000800000000000000000000000010000000000000000000000000000000000000000000000000000000000000000000000000000000000400000000000000000000000000000000000000000000000000000000000002000000000000000000000000000800000100000000000000000020000000000000000000000000000000000000000000000000000000000000000000",
      "type": "0x2",
      "transactionHash": "0xa06527ced6997e542b8bdfc5cc60e68b365af8bf2cd14d434ed859fb5d13567b",
      "transactionIndex": "0x16",
      "blockHash": "0xc6039e0bf6be0fcba16ef767edd84363eab64fadd81b271c3779e726d3118daf",
      "blockNumber": "0x279",
      "gasUsed": "0x137fc",
      "effectiveGasPrice": "0x8",
      "from": "0xc1612C97537c2CC62a11FC4516367AB6F62d4B23",
      "to": "0x5404F8B4F4625CFf045A3076Bc28c250a71E4507",
      "contractAddress": null
    },
    {
      "status": "0x1",
      "cumulativeGasUsed": "0x1892ba",
      "logs": [
        {
          "address": "0x5404F8B4F4625CFf045A3076Bc28c250a71E4507",
          "topics": [
            "0xddf252ad1be2c89b69c2b068fc378daa952ba7f163c4a11628f55a4df523b3ef",
            "0x000000000000000000000000c1612c97537c2cc62a11fc4516367ab6f62d4b23",
            "0x0000000000000000000000003da87b1c3743bd2da60df2ef1bc6f26ef9da6086"
          ],
          "data": "0x00000000000000000000000000000000000000000000000000000002540be400",
          "blockHash": "0xc6039e0bf6be0fcba16ef767edd84363eab64fadd81b271c3779e726d3118daf",
          "blockNumber": "0x279",
          "blockTimestamp": "0x670ed688",
          "transactionHash": "0xedcbf9d3c221324b071f6ce4b1f35f6f70652c7dbfee0bc822db4b92a8c42f41",
          "transactionIndex": "0x17",
          "logIndex": "0x17",
          "removed": false
        }
      ],
      "logsBloom": "0x00000000000000000000000000000000000000000000000000000000000000000000000002000000000000000000004000000000000000000000000000000000000000000000000000000008040000000000000000000000000000200000000000000000000000000000000000000000000000000000000000000010000000000000000000000000000000000000000000000000000000000000000000000000000000000400000000000000000000000000000000000000000020000000000000000002000000000000000000000000000800000100000000000000000000000000000000020000000000000000000000000000000000000000000000000000",
      "type": "0x2",
      "transactionHash": "0xedcbf9d3c221324b071f6ce4b1f35f6f70652c7dbfee0bc822db4b92a8c42f41",
      "transactionIndex": "0x17",
      "blockHash": "0xc6039e0bf6be0fcba16ef767edd84363eab64fadd81b271c3779e726d3118daf",
      "blockNumber": "0x279",
      "gasUsed": "0xdb80",
      "effectiveGasPrice": "0x8",
      "from": "0xc1612C97537c2CC62a11FC4516367AB6F62d4B23",
      "to": "0x5404F8B4F4625CFf045A3076Bc28c250a71E4507",
      "contractAddress": null
    }
  ],
  "libraries": [],
  "pending": [],
  "returns": {},
  "timestamp": 1729025675,
  "chain": 2017,
  "commit": "b1c180c"
}